:100000000C943D010C94830C0C94580C0C942D0C06
:100010000C94020C0C94D70B0C94AC0B0C94810B2D
:100020000C94560B0C946E010C946E010C946E01A2
:100030000C946E010C940D0A0C946E010C946E01DC
:100040000C946E010C946E010C946E010C946E0174
:100050000C946E010C946E010C946E010C940C0BBC
:100060000C946E010C94D60A0C94AC0A0C946E019C
:100070000C946E010C946E010C946E010C946E0144
:100080000C946E010C946E010C946E010C946E0134
:100090000C946E010C946E010C946E010C946E0124
:1000A0000C946E010C946E010C946E010C946E0114
:1000B0000C946E010C946E010C946E010C946E0104
:1000C0000C946E010C946E010C946E010C946E01F4
:1000D0000C946E010C946E010C946E010C946E01E4
:1000E0000C946E010C9434030C94D2040C94ED1116
:1000F0000C9416030C94DC010C9420030C9446031E
:100100000C9407030C9438030C940B030C94FF011C
:100110000C9442030C94EB010C94AF010C949202EA
:100120000C941C030C942A030C9441030C94450278
:100130000C943C030C940F030C9413030C940D02C9
:100140000C9426030C9401030C9473030C94280D57
:100150000C942E0300002100240027002A002D000B
:100160003000330001010000040107010A01000012
:1001700020002300260029002C002F00320000015F
:10018000000003010601090100000A0B02090C0D21
:100190000E0807030401000000000000000000003A
:1001A000000000000000000000000000000000004F
:1001B000000000001211100000000000000000000C
:1001C000000000000000000000000000000002012C
:1001D0000210202008081020401020408002010258
:1001E0000108040201010204081020408080402020
:1001F000100804020180040201804020100804025B
:1002000001080402010102040810204080010204D8
:10021000081020408000002200250028002B002E1E
:10022000003100340002010000050108010B010546
:10023000050505070508080808020202020A0A085F
:100240000804040404010101010101010103030385
:100250000303030303040707070C0C0C0C0C0C0C22
:100260000C0202020206060606060606060B0B0B29
:100270000B0B0B0B0B00280DED1111241FBECFEF44
:10028000D1E2DEBFCDBF00E00CBF12E0A0E0B2E0E3
:10029000E0E4F7E200E00BBF02C007900D92A8383F
:1002A000B107D9F724E0A8E8B2E001C01D92AF3150
:1002B000B207E1F711E0CCE3D1E000E006C02197FE
:1002C0000109802FFE010E945A12CB33D10780E032
:1002D0000807A9F70E94F60D0C948E130C940000E9
:1002E0000F931F93CF93DF93EC012885222319F1FD
:1002F00009851A852150D9F030E050E040E06FEFD9
:100300007FEF80E090E00E943B12F8014C815D811C
:10031000CF01801B910B8417950760F44081429FA9
:10032000C001439F900D112490833196EFCF30E0B0
:1003300020E0EBCF1886DF91CF911F910F910895A8
:1003400080917103909172038230910538F0880F8B
:10035000991F880F991F05970197F1F70895AF929C
:10036000BF92CF92DF92EF92FF920F931F93CF93A2
:10037000DF936C017B018B01040F151FEB015E0104
:10038000AE18BF08C017D10759F06991D601ED9199
:10039000FC910190F081E02DC6011995892B79F728
:1003A000C501DF91CF911F910F91FF90EF90DF90EA
:1003B000CF90BF90AF900895FC01538D448D252FB1
:1003C00030E0842F90E0821B930B541710F0CF96EF
:1003D000089501970895FC01918D828D981761F021
:1003E000A28DAE0FBF2FB11D5D968C91928D9F5F38
:1003F0009F73928F90E008958FEF9FEF0895FC0117
:10040000918D828D981731F0828DE80FF11D858DC9
:1004100090E008958FEF9FEF0895FC01918D228D5C
:10042000892F90E0805C9F4F821B91098F739927E1
:10043000089581ED92E00E940D0221E0892B09F4DC
:1004400020E0822F0895FC01A48DA80FB92FB11DC3
:10045000A35ABF4F2C91848D90E001968F739927FA
:10046000848FA689B7892C93A089B1898C918370D8
:1004700080648C93938D848D981306C00288F389D1
:10048000E02D80818F7D80830895EF92FF920F93FE
:100490001F93CF93DF93EC0181E0888F9B8D8C8D30
:1004A00098131AC0E889F989808185FF15C09FB724
:1004B000F894EE89FF896083E889F98980818370E7
:1004C000806480839FBF81E090E0DF91CF911F9196
:1004D0000F91FF90EF900895F62E0B8D10E00F5FB7
:1004E0001F4F0F731127E02E8C8D8E110CC00FB68D
:1004F00007FCFACFE889F989808185FFF5CFCE0125
:100500000E942302F1CFEB8DEC0FFD2FF11DE35A7A
:10051000FF4FF0829FB7F8940B8FEA89FB898081A7
:100520008062CFCFCF93DF93EC01888D8823B9F021
:10053000AA89BB89E889F9898C9185FD03C08081EE
:1005400086FD0DC00FB607FCF7CF8C9185FFF2CF6B
:10055000808185FFEDCFCE010E942302E9CFDF919C
:10056000CF91089580E090E0892B29F00E94190234
:1005700081110E94000080E090E0892B49F080E02A
:1005800090E0892B29F00E94000081110E94000058
:1005900080E090E0892B49F080E090E0892B29F001
:1005A0000E94000081110E94000080E090E0892BF1
:1005B00049F080E090E0892B29F00E940000811131
:1005C0000C94000008958150823108F05AC0E82F41
:1005D000F0E08827E151FD4F8F4F0C945A120F0322
:1005E0001303010307030B03410316031C0320033A
:1005F00026032A032E033403380341033C0342033A
:100600004603809180008F778093800008958091C9
:1006100080008F7DF9CF80918000877FF5CF84B5F2
:100620008F7784BD089584B58F7DFBCF8091B00016
:100630008F778093B00008958091B0008F7DF9CFBF
:10064000809190008F778093900008958091900022
:100650008F7DF9CF80919000877FF5CF8091A000AA
:100660008F778093A00008958091A0008F7DF9CFAF
:100670008091A000877FF5CF809120018F778093B4
:1006800020010895809120018F7DF9CF8091200174
:10069000877FF5CFCF93DF93282F30E0F901E8571C
:1006A000FE4F8491F901E153FE4FD491F901E15DD0
:1006B000FD4FC491CC23A1F081110E94E302EC2FE5
:1006C000F0E0EE0FFF1FE259FE4FA591B491EC91BF
:1006D000ED2381E090E009F480E0DF91CF9108956F
:1006E00080E090E0FACF0F931F93CF93DF9381E0E8
:1006F0008093BC0209E112E0D0E0C0E0F8018191F2
:100700008F010E944A03FE01E354FD4F808321962E
:10071000CF30D10599F7DF91CF911F910F910895B7
:100720001F93CF93DF93282F30E0F901E857FE4F56
:100730008491F901E153FE4FD491F901E15DFD4F40
:10074000C491CC23A9F0162F81110E94E302EC2F53
:10075000F0E0EE0FFF1FEB5EFD4FA591B4918FB758
:10076000F894EC91111108C0D095DE23DC938FBF73
:10077000DF91CF911F910895DE2BF8CFCF93DF93B8
:1007800090E0FC01E153FE4F2491815D9D4FFC01FF
:1007900084918823C9F090E0880F991FFC01EC5ADE
:1007A000FE4FA591B491FC01EB5EFD4FC591D49134
:1007B00061110DC09FB7F8948C91209582238C9382
:1007C0008881282328839FBFDF91CF9108956230CD
:1007D00051F49FB7F8943C91822F809583238C939A
:1007E000E8812E2BEFCF8FB7F894EC912E2B2C9322
:1007F0008FBFEACFCF93DF93CEE6D3E061E089816C
:100800000E94BE030E94A00160E088810E94BE0396
:100810000E94A00160E089810E94BE03DF91CF9118
:100820000C94A0010F931F93CF93DF93D82FC8E0B0
:1008300061E080916E030E94BE030E94A0010D2F13
:1008400010E060E0D0FF61E080916F030E94BE0382
:100850000E94A00160E080916E030E94BE030E948E
:10086000A00115950795D02FC15011F761E0809137
:100870006E030E94BE0360E080916F030E94BE037E
:100880000E94A00160E080916E030E94BE030E945E
:10089000A00180916F030E944A03C82F811105C0F7
:1008A00061E080916F030E94BE030E94A00161E09D
:1008B00080916E030E94BE030E94A00181E0C111DD
:1008C00001C080E0DF91CF911F910F91089561E009
:1008D00080916F030E94BE030C94A001EF92FF92DF
:1008E0000F931F93CF93DF93182FE92E062FC42F5A
:1008F0000E94670480E40E9412040E94FA030E948E
:10090000670480EC8C0F0E941204F12EC12FDE2DA3
:1009100089910E9412048C2F8F198017C8F30E94AE
:10092000FA030E946704809170038F7080580E94C0
:100930001204DF91CF911F910F91FF90EF900C94D3
:10094000FA033FB7F8948091A7029091A802A09172
:10095000A902B091AA0226B5A89B05C02F3F19F0A5
:100960000196A11DB11D3FBFBA2FA92F982F88272F
:10097000BC01CD01620F711D811D911D42E0660F0A
:10098000771F881F991F4A95D1F708952FB7F894BC
:100990006091A3027091A4028091A5029091A60299
:1009A0002FBF089508958F929F92AF92BF92CF92DA
:1009B000DF92EF92FF921F93CF93DF93FC0182812E
:1009C000938168177907A8F54A01AA24BB24C82D8A
:1009D000C32ED42EE52EFF241C2DD22F80858823F4
:1009E00061F0889E40011124C92D8C9D6001112465
:1009F0001D2D829FD0011124DB2FA685E184F28476
:100A00009385A91322C0CB01880F991F680F791F06
:100A10006E0D7F1DA385A60FB72FB11DCC93A485A6
:100A2000A60FB72FB11D1C938585680F711DFB01A3
:100A3000D083DF91CF911F91FF90EF90DF90CF9007
:100A4000BF90AF909F908F900895660F771F660FAD
:100A5000771F6E0D7F1D252F3327442755278823A9
:100A600049F090E0829F7001839FF00C929FF00C00
:100A700011242F2DA60FB72FB11D2C93CBCFCF92C2
:100A8000DF92EF92FF920F931F93CF93DF9300D0EB
:100A900000D000D0CDB7DEB78C01DC0119968D9166
:100AA0009C91892B09F465C00E94A104F801C784B8
:100AB000D088E188F2886C197D098E099F096C3213
:100AC00071408105910580F3F894D80114968D91B9
:100AD0009C9115979A8389831996ED91FC917F01DA
:100AE000BFEFEB1AFB0A80818987F80190810388A8
:100AF000F489E02DD80155968C91992309F448C0CA
:100B00009081982B98879081809589238F838F81FE
:100B10008C8388E08B8358856F8149853B812C814C
:100B200089819A81D701508347FD252F3A952083EB
:100B3000262F39F0441F00C000006083000000C071
:100B4000F2CF38E04D9160830000019761F7D80142
:100B50005496FC93EE93539749873B832C839A8357
:100B6000898378940E94A104F8016787708B818B38
:100B7000928B29960FB6F894DEBF0FBECDBFDF91E2
:100B8000CF911F910F91FF90EF90DF90CF9008953C
:100B90009081982B98879081809589238F838F816E
:100BA0008E8388E08D8358856F8149853D812E81B4
:100BB00089819A81D701508347FD252F00C000C04D
:100BC000208300C000C000C000C000C060830000DF
:100BD000262F3A9541F0441F000000C000C000C01D
:100BE00000C000C0E8CF38E04D9100C0608300C075
:100BF000019709F7D8015496FC93EE9353974987D0
:100C00003D832E83ACCFCF93DF93EC018E819F8108
:100C100097FD07C061E00E94BE0360E08E810E94E4
:100C2000900381E08983DF91CF9108958F929F9205
:100C3000AF92BF92CF92DF92EF92FF920F931F93EA
:100C4000CF93DF93EC018E858823D1F10E94C604F7
:100C500088809980AA80BB80CC80DD80EE80FF8078
:100C60008B019C01081919092A093B0940E00C1560
:100C70001D052E053F05B0F04C85442351F18B0135
:100C80009C010C191D092E093F098C0C9D1CAE1CE2
:100C9000BF1C8C149D04AE04BF04A8F48882998202
:100CA000AA82BB82842FDF91CF911F910F91FF9079
:100CB000EF90DF90CF90BF90AF909F908F9008956E
:100CC0000E94A104C5CF80169106A206B306E8F2E1
:100CD000E5CF1D8641E0E6CFCF93DF93EC018E8513
:100CE000882349F00E94C604688379838A839B83A2
:100CF000DF91CF9108950E94A104F6CFCF92DF92A9
:100D0000EF92FF920F931F93CF93DF93EC018981B2
:100D100082FD13C085FD11C08A810E944A0339817A
:100D200031FB222720F933FB332730F9232731E029
:100D3000892B09F030E02327298B0E94C604AB01E0
:100D4000BC0199892A898881992309F46BC02111F2
:100D500069C080FD4EC0816088834D875E876F8744
:100D6000788B8A89882319F1992309F18D819E81D5
:100D7000B0E0A0E00D851E852F8538896A017B01D2
:100D8000C01AD10AE20AF30A970186010817190767
:100D90002A073B0760F0888181FD09C01B861C86FD
:100DA0008A648F7788834D875E876F87788B8D8580
:100DB0009E85AF85B889481B590B6A0B7B0B8F81C9
:100DC0009885B0E0A0E0481759076A077B0740F014
:100DD0008B85882329F08C871B8688818460888393
:100DE000DF91CF911F910F91FF90EF90DF90CF9007
:100DF00008950D851E852F8538896A017B01C01AEB
:100E0000D10AE20AF30A0B811C8130E020E0C0160F
:100E1000D106E206F30658F221E02A8B8062806850
:100E200088839FCF8E7F888391119BCF222309F4E3
:100E3000BECF1A8A81FD03C08B858F5F8B87888127
:100E40008D7F4D875E876F87788B80618F7B8883EE
:100E500087FFADCF8F77888389818160898381CF38
:100E6000CF93DF93EC01898184FF03C0CE010E9400
:100E70007E06988192FB882780F992FF05C02C8519
:100E8000213029F49B7F9883DF91CF91089580E0F2
:100E9000FBCFCF9380910002833121F08F3FC9F0C7
:100EA000CF910895EEECF1E0C491C7FDF9CF61E078
:100EB00083E10E94BE03CC2309F4DEC0C23009F0F6
:100EC000F3C08091B100887F84608093B10089EF86
:100ED0007FC183E180930002EEECF1E0C4918C2F9E
:100EE000CF3FF1F2C23009F468C060F4CC2379F14D
:100EF000C13009F444C087FDD3CF61E083E10E9493
:100F0000BE03DCCFC43009F499C008F478C0C53002
:100F100091F71092200110922101809121018860A7
:100F20008093210180912101816080932101E2E47D
:100F3000F2E0E491F0E0EE0FFF1FEB5EFD4F8591D4
:100F40009491E2EEF1E0E491E0938902B0CF14BC19
:100F500015BC84B5826084BD85B5816085BDE2E441
:100F6000F2E0E491F0E0EE0FFF1FEB5EFD4F8591A4
:100F70009491E2EEF1E0E491E0938D0298CF10922B
:100F800080001092810080918100886080938100B0
:100F900080918100816080938100E2E4F2E0E4913D
:100FA000F0E0EE0FFF1FEB5EFD4F85919491E2EEB6
:100FB000F1E0E491E0938C027ACF1092B0001092AD
:100FC000B1008091B00082608093B0008091B10048
:100FD00081608093B100E2E4F2E0E491F0E0EE0F92
:100FE000FF1FEB5EFD4F859194919093AC0280932F
:100FF000AB02E2EEF1E0E491E093AD0258CF109243
:1010000090001092910080919100886080939100EF
:1010100080919100816080939100E2E4F2E0E4919C
:10102000F0E0EE0FFF1FEB5EFD4F85919491E2EE35
:10103000F1E0E491E0938B02C3E039CF1092A0007D
:101040001092A1008091A10088608093A1008091FE
:10105000A10081608093A100E2E4F2E0E491F0E07D
:10106000EE0FFF1FEB5EFD4F85919491E2EEF1E0F4
:10107000E491E0938A021BCF85B5887F836085BDAC
:1010800089EF87BD84E690E0A0E0B0E080939E0207
:1010900090939F02A093A002B093A10280916E0052
:1010A000826080936E00FCCEC130F1F480918100AB
:1010B000887F8160809381008FE79EE39093890011
:1010C0008093880084E690E0A0E0B0E080939A02EC
:1010D00090939B02A0939C02B0939D0280916F001D
:1010E000826080936F00DCCEC330F1F48091910078
:1010F000887F8160809391008FE79EE390939900B1
:101100008093980084E690E0A0E0B0E0809396029F
:1011100090939702A0939802B093990280917100E6
:10112000826080937100BCCEC430F1F48091A10044
:10113000887F81608093A1008FE79EE39093A90050
:101140008093A80084E690E0A0E0B0E08093920253
:1011500090939302A0939402B093950280917200B1
:101160008260809372009CCEC530F1F480912101A1
:10117000887F8160809321018FE79EE3909329010E
:101180008093280184E690E0A0E0B0E080938E0296
:1011900090938F02A0939002B0939102809173007C
:1011A0008260809373007CCEC23089F034F4CC230B
:1011B00061F0C13009F074CE7FCFC43009F4BCCFE8
:1011C0000CF49ACFC530C1F26BCE8FE75ACF8FE7C0
:1011D0008093B30084E690E0A0E0B0E08093AE029C
:1011E0009093AF02A093B002B093B10280917000CF
:1011F00082608093700054CEDF92EF92FF920F9343
:101200001F93CF93DF9300D01F92CDB7DEB7D62EBA
:10121000262F30E0B90161507109009701F59981DD
:1012200080E0861717061CF48F5F90E0FACF998351
:101230006C0F7D1F8FE3DB0111968C936D2DCE011A
:1012400001960E946E040F900F900F900F90DF9107
:10125000CF911F910F91FF90EF90DF900895FC01C7
:101260008E010F5F1F4F200F311F8AE0E82EF12CF7
:10127000CF01B7010E94051221503109009769F48E
:10128000309759F4D9011C92CF01B7010E94051281
:10129000FB010217130761F7D1CF815C9D4FDC0181
:1012A0008C91D9018C93F0CFFF920F931F93CF9322
:1012B000DF9300D01F92CDB7DEB76CE370E00E94E1
:1012C0000512262F182F092F6623D9F010928802B5
:1012D00040E062E0822F972F0E94FC0889E081178E
:1012E00010F542E062E0812F902F0E94FC080F90E1
:1012F0000F900F900F90DF91CF911F910F91FF9062
:101300000895809188028111ECCF19821A821B8284
:101310001C8240E064E0CE0101960E946E0481E0F0
:1013200080938802DECF42E061E090E080E00E949E
:10133000FC0843E061E0D7CFFC014481558170E0B7
:1013400060E0818592850C948713AF92BF92CF9213
:10135000DF92EF92FF921F93CF93DF935C016A01BC
:101360007B0188ED93E00E949C0982EC93E00E944F
:101370009C098CEA93E00E949C09A114B104E9F055
:1013800010E0C12FD0E0CA15DB05B8F4A701960123
:10139000BE0188ED93E00E94D304A7019601BE012F
:1013A00082EC93E00E94D304A7019601BE018CEA6F
:1013B00093E00E94D3041F5FE4CF88ED93E00E9486
:1013C0003F0582EC93E00E943F058CEA93E0DF91B9
:1013D000CF911F91FF90EF90DF90CF90BF90AF9093
:1013E0000C943F05FC0101900020E9F73197AF0113
:1013F000481B590BBC0181ED92E00C94AF01CF93D7
:10140000DF930E94F209EC0181E692E00E94F2096A
:101410008C0F9D1FDF91CF9108951F920F920FB6F1
:101420000F9211240BB60F922F933F934F935F931C
:101430006F937F938F939F93AF93BF93EF93FF939C
:101440008091AE029091AF02A091B002B091B10232
:10145000892B8A2B8B2BE1F19091AD02E091AB02AD
:10146000F091AC028081892780838091AE029091B7
:10147000AF02A091B002B091B102181619061A0677
:101480001B069CF48091AE029091AF02A091B00235
:10149000B091B1020197A109B1098093AE02909376
:1014A000AF02A093B002B093B102FF91EF91BF9150
:1014B000AF919F918F917F916F915F914F913F91EC
:1014C0002F910F900BBE0F900FBE0F901F9018958D
:1014D00080910002EEECF1E0E4919FEF9093000226
:1014E000E230E9F040F4EE2389F0E13091F060E081
:1014F0000E949003DACFE43049F110F1E530B9F7FA
:10150000909173009D7F90937300F1CF10926E00C5
:10151000EECF90916F009D7F90936F00E8CF9091F8
:1015200070009D7F9093700091E09093B000909137
:10153000B100987F94609093B1001092B300D7CF20
:10154000909171009D7F90937100D1CF9091720026
:101550009D7F90937200CBCF1F920F920FB60F9288
:1015600011240BB60F922F933F934F935F936F937A
:101570007F938F939F93AF93BF93EF93FF9381EDEF
:1015800092E00E942302FF91EF91BF91AF919F9152
:101590008F917F916F915F914F913F912F910F901C
:1015A0000BBE0F900FBE0F901F9018951F920F92B9
:1015B0000FB60F9211240BB60F922F938F939F9318
:1015C000EF93FF93E091E102F091E2028081E091DC
:1015D000E702F091E80282FD1DC090818091EA024D
:1015E0008F5F8F732091EB02821741F0E091EA0246
:1015F000F0E0EF52FD4F958F8093EA02FF91EF915B
:101600009F918F912F910F900BBE0F900FBE0F9057
:101610001F9018958081F2CF1F920F920FB60F92F4
:1016200011242F933F938F939F93AF93BF938091F8
:10163000A3029091A402A091A502B091A6023091BC
:10164000A20223E0230F2D3758F50196A11DB11DED
:101650002093A2028093A3029093A402A093A502D8
:10166000B093A6028091A7029091A802A091A9022E
:10167000B091AA020196A11DB11D8093A70290937B
:10168000A802A093A902B093AA02BF91AF919F9123
:101690008F913F912F910F900FBE0F901F90189533
:1016A00026E8230F0296A11DB11DD2CF1F920F92E3
:1016B0000FB60F9211240BB60F922F933F934F93B7
:1016C0005F936F937F938F939F93AF93BF93EF93AA
:1016D000FF93E0910F02F09110021995FF91EF91A5
:1016E000BF91AF919F918F917F916F915F914F913A
:1016F0003F912F910F900BBE0F900FBE0F901F9038
:1017000018951F920F920FB60F9211240BB60F92DD
:101710002F933F934F935F936F937F938F939F93F9
:10172000AF93BF93EF93FF93E0910D02F0910E0200
:101730001995FF91EF91BF91AF919F918F917F91FB
:101740006F915F914F913F912F910F900BBE0F9032
:101750000FBE0F901F9018951F920F920FB60F9209
:1017600011240BB60F922F933F934F935F936F9378
:101770007F938F939F93AF93BF93EF93FF93E091EA
:101780000302F09104021995FF91EF91BF91AF917F
:101790009F918F917F916F915F914F913F912F9189
:1017A0000F900BBE0F900FBE0F901F9018951F92B9
:1017B0000F920FB60F9211240BB60F922F933F93F7
:1017C0004F935F936F937F938F939F93AF93BF9349
:1017D000EF93FF93E0910102F09102021995FF91BE
:1017E000EF91BF91AF919F918F917F916F915F9199
:1017F0004F913F912F910F900BBE0F900FBE0F9006
:101800001F9018951F920F920FB60F9211240BB6CE
:101810000F922F933F934F935F936F937F938F9389
:101820009F93AF93BF93EF93FF93E0910B02F091DF
:101830000C021995FF91EF91BF91AF919F918F91FC
:101840007F916F915F914F913F912F910F900BBEC0
:101850000F900FBE0F901F9018951F920F920FB60A
:101860000F9211240BB60F922F933F934F935F93D8
:101870006F937F938F939F93AF93BF93EF93FF9358
:10188000E0910902F0910A021995FF91EF91BF9141
:10189000AF919F918F917F916F915F914F913F9108
:1018A0002F910F900BBE0F900FBE0F901F901895A9
:1018B0001F920F920FB60F9211240BB60F922F9317
:1018C0003F934F935F936F937F938F939F93AF93C8
:1018D000BF93EF93FF93E0910702F09108021995EF
:1018E000FF91EF91BF91AF919F918F917F916F91F8
:1018F0005F914F913F912F910F900BBE0F900FBEB4
:101900000F901F9018951F920F920FB60F921124EF
:101910000BB60F922F933F934F935F936F937F93E9
:101920008F939F93AF93BF93EF93FF93E091050243
:10193000F09106021995FF91EF91BF91AF919F91A0
:101940008F917F916F915F914F913F912F910F9068
:101950000BBE0F900FBE0F901F901895CF93DF9383
:10196000EC01862F2CE330E03C832B8324EF31E025
:101970003E832D832CE231E038872F8320E931E04C
:101980003A8729871B861C861D861E861F86188A15
:10199000198A1A8A6A8399819F7D977F998362E069
:1019A0000E94BE0389818B7E8D7F8983DF91CF91D9
:1019B00008950F931F93CF93DF93EC018B0119824E
:1019C00018861F86188A198A1A8A81E08E878B8763
:1019D0001C8692E09D8788838AE590E09D838C83B6
:1019E0000E9462129A878987009769F12AE5FC01B3
:1019F00011922A95E9F78EE190E09B838A831F83F9
:101A00000E838981882341F061E0802F0E94BE030C
:101A100060E0802F0E949003F801E15DFD4FE491AA
:101A2000F0E0EE0FFF1FEB5EFD4F859194919C8BD4
:101A30008B8BF801E153FE4FE491ED8BDF91CF9159
:101A40001F910F9108951D821C821B821A82D7CF8D
:101A5000CF92DF92EF92FF920F931F93CF93DF937A
:101A6000E1EDF2E01382128288EEC82E83E0D82ED8
:101A7000E12CF12CC482D582E682F78283E592E0E4
:101A80009183808385EC90E09587848784EC90E057
:101A90009787868780EC90E0918B808B81EC90E03B
:101AA000938B828B82EC90E0958B848B86EC90E01C
:101AB000978B868B118E128E138E148E0CE014E091
:101AC000F80110821182128213821086118612860A
:101AD0001386C1E0C487C68788EB9BE0A0E0B0E036
:101AE00084839583A683B783C587C8010E946C064B
:101AF000F801C6870DEF13E0F801108211821282FF
:101B000013821086118612861386C487C687C48204
:101B1000D582E682F782C587C8010E946C06F8016B
:101B2000C6870EEE13E0F801108211821282138232
:101B300014821582168217821086118612861386E9
:101B4000C4871586C6870E94C604F801C080D1806C
:101B5000E280F3806C197D098E099F096087718787
:101B600082879387C68765E070E088ED93E00E94E6
:101B7000D90C63E070E082EC93E00E94D90C64E041
:101B800070E08CEA93E00E94D90C6FE089E993E061
:101B90000E94AE0C60E186E893E00E94AE0C61E129
:101BA00083E793E00E94AE0CCEE6D3E084E3888323
:101BB00085E3898384E690E09C838B8360E084E303
:101BC0000E94BE0360E089810E94BE0360E08881BC
:101BD0000E94900360E08981DF91CF911F910F9166
:101BE000FF90EF90DF90CF900C949003CF93DF9312
:101BF000CDB7DEB7A3970FB6F894DEBF0FBECDBF4B
:101C0000789484B5826084BD84B5816084BD85B5D7
:101C1000826085BD85B5816085BD80916E008160E3
:101C200080936E0010928100809181008260809389
:101C3000810080918100816080938100809180008B
:101C40008160809380008091B10084608093B100B6
:101C50008091B00081608093B0008091910082609B
:101C60008093910080919100816080939100809198
:101C700090008160809390008091A10082608093A9
:101C8000A1008091A10081608093A1008091A000BB
:101C900081608093A0008091210182608093210166
:101CA00080912101816080932101809120018160D8
:101CB0008093200180917A00846080937A008091E3
:101CC0007A00826080937A0080917A0081608093AC
:101CD0007A0080917A00806880937A001092C10027
:101CE00090E080E021E0FC01E354FD4F2083019669
:101CF0008F309105C1F70FE312E0F0E32F2EF2E0F1
:101D00003F2E61E0D1018D911D010E94BE0302159D
:101D10001305B9F709E112E0E8E2EE2EE2E0FE2E4B
:101D200062E0F80181918F010E94BE03E016F10686
:101D3000B9F788E292E09BA38AA361E0AAA1BBA1C4
:101D40008D91BBA3AAA30E94BE03EAA1FBA1E0530D
:101D5000F24099F761E085E00E94BE0361E083E014
:101D60000E94BE0361E084E00E94BE038FE0809386
:101D7000700319821A821B821C8240E064E0CE014B
:101D800001960E946E0461E083E10E94BE03E0912F
:101D9000E102F091E20282E08083E091DD02F091C5
:101DA000DE021082E091DF02F091E0028FEC80838E
:101DB0001092E902E091E502F091E60286E080836C
:101DC000E091E302F091E402808180618083E09100
:101DD000E302F091E402808188608083E091E30275
:101DE000F091E402808180688083E091E302F091C9
:101DF000E40280818F7D808388ED93E00E9403065A
:101E000088ED93E00E94700188ED93E00E949C09A8
:101E100088ED93E00E943F0582EC93E00E94030668
:101E200082EC93E00E94700182EC93E00E949C0996
:101E300082EC93E00E943F058CEA93E00E94030647
:101E40008CEA93E00E9470018CEA93E00E949C0966
:101E50008CEA93E00E943F0560E082E00E94BE03AE
:101E600083E793E0909308028093070280916900D2
:101E70008C6080936900E99A0E94C6048CED95E01D
:101E8000A0E0B0E08093F2039093F303A093F403F7
:101E9000B093F50381E08093FA038093FB038EEE09
:101EA00093E00E946C061092FA0384E090E0909315
:101EB0001202809311027AE0472E512C612C712C72
:101EC00089E993E00E947E0686E893E00E947E0600
:101ED00083E793E00E947E0689E993E00E94300741
:101EE0008823D1F08091D0028F5F8093D00210922E
:101EF000CF021092CE021092CD021092CC0208E2D4
:101F000012E060E0D8018D918D010E949003EAA15A
:101F1000FBA1E017F107A9F710E000E0F801E35496
:101F2000FD4F8081811107C061E0F801E05DFD4F48
:101F300080810E9490030F5F1F4F0F30110571F7D2
:101F400080911904882389F08CE094E00E941606A1
:101F5000882359F000E312E060E0D8018D918D01F3
:101F60000E94900302151305B9F780910A04882393
:101F700091F08DEF93E00E941606882361F088EDC2
:101F800093E00E943F0582EC93E00E943F058CEABB
:101F900093E00E943F0510E000E0802FF801E35439
:101FA000FD4F908191114AC065E00E94F911911195
:101FB0005AC080E090E0AFEFB0E08093B20290931F
:101FC000B302A093B402B093B502C090B202D09015
:101FD000B302E090B402F090B502A7019601580157
:101FE000AA0CBB1CB50188ED93E00E94D304450107
:101FF0009FEF891A990AA7019601B40188ED93E031
:102000000E94D304A7019601B50182EC93E00E94DF
:10201000D304A7019601B40182EC93E00E94D3049B
:10202000A7019601B5018CEA93E00E94D304A701B1
:102030009601B4018CEA93E00E94D3040F5F1F4F16
:102040000F30110509F0A9CF1091D002113009F419
:1020500056C118F1123009F471C1133009F48EC160
:102060001092D00206C1913029F480E09FEFAFEFCB
:10207000B0E0A3CF923029F480E09FEFA0E0B0E081
:102080009CCF933029F48FEF9FEFA0E0B0E095CF85
:102090008FEF90E0A0E0B0E090CF8091CE02811170
:1020A0000EC061E087E00E94900361E088E00E943A
:1020B000900384E08093BB0281E08093CE0283E7AB
:1020C00093E00E943007882319F083E08093BB02DD
:1020D00089E993E00E943007882321F084E692E0AA
:1020E0000E94FF098091870384FF04C086E893E083
:1020F0000E947E068091860382FF19C09091920310
:102100009230A9F48B7F809386030E9449078CE369
:102110008093BA0281E08093BB020E94C604609360
:10212000B6027093B7028093B8029093B90280917F
:10213000BB02813009F041C00E94C6040091B60282
:102140001091B7022091B8023091B902601B710B57
:10215000820B930B683E73408105910508F471C0B2
:102160000E94C6046093B6027093B7028093B802CF
:102170009093B902F090BA020F2D10E0C8010E94AE
:102180005409C801880F991F6091110270911202C1
:102190000E940512CB0140E05FEF60E070E00E941A
:1021A000A5098FEF8F0D8093BA028B3008F049C0DC
:1021B0000E94490782E08093BB028091BB0282307B
:1021C00009F03FC00E94C6040091B6021091B70208
:1021D0002091B8023091B902601B710B820B930BF6
:1021E000683E73408105910508F443C00E94C6040F
:1021F0006093B6027093B7028093B8029093B902CD
:10220000F090BA020F2D10E0C8010E945409C801D5
:10221000880F991F60911102709112020E9405129D
:10222000CB0140E05FEF6FEF70E00E94A509FA94E8
:10223000F092BA02F1101DC00E94490783E080931A
:10224000BB028091BB028330A1F484E08093BB0287
:1022500019821A821B821C8240E064E0CE01019642
:102260000E946E0440E050E0BA0190E080E00E94DD
:10227000A5098091740384FF04C083E793E00E9462
:102280007E068091730382FF32C090917F0392306B
:1022900071F58B7F8093730310E000E0F801E35445
:1022A000FD4F208130E050E040E019A27E01E1E2E4
:1022B000EE0EF11CCA01B901A30192010E9419128C
:1022C000605DD7016E937D012115310541055105F2
:1022D00089F7109719F0CD010E94F20981E692E08A
:1022E0000E94F2090F5F1F4F0F301105B9F6809160
:1022F000BC0281111092BC020E94B202E1CD809119
:10230000CF028111B6CF88E692E00E94FF0961E01A
:1023100086E00E94900361E087E00E94900361E004
:102320008CE00E94900361E08AE00E94900361E0EB
:1023300089E00E9490031093CF029BCF8091CD0241
:10234000811197CF83E792E00E94FF0961E086E068
:102350000E94900361E087E00E94900361E08CE0BE
:102360000E94900361E088E00E94900361E089E0B0
:102370000E94900381E08093CD027BCF8091CC02BC
:10238000811177CF8CE792E00E94FF0961E08BE03A
:102390000E94900361E087E00E94900361E08CE07E
:1023A0000E94900361E088E00E94900381E08093A6
:1023B000CC025FCFCF93DF93EC0189859A850E9491
:1023C000FE128E819F8197FD05C060E0DF91CF9165
:1023D0000C94BE03DF91CF9108958CEA93E00E94A4
:1023E000DA1182EC93E00E94DA1188ED93E00C940C
:1023F000DA11991B79E004C0991F961708F0961B13
:10240000881F7A95C9F780950895AA1BBB1B51E1D7
:1024100007C0AA1FBB1FA617B70710F0A61BB70B54
:10242000881F991F5A95A9F780959095BC01CD01F9
:102430000895A1E21A2EAA1BBB1BFD010DC0AA1F05
:10244000BB1FEE1FFF1FA217B307E407F50720F01D
:10245000A21BB30BE40BF50B661F771F881F991F98
:102460001A9469F760957095809590959B01AC01E1
:10247000BD01CF010895052E97FB1EF400940E9424
:10248000521257FD07D00E94191207FC03D04EF4D8
:102490000C94521250954095309521953F4F4F4FD7
:1024A0005F4F089590958095709561957F4F8F4F00
:1024B0009F4F0895EE0FFF1F881F8BBF0790F69167
:1024C000E02D19940F931F93CF93DF9382309105E2
:1024D00010F482E090E0E0911D04F0911E0430E0E1
:1024E00020E0B0E0A0E0309799F42115310509F41F
:1024F0004AC0281B390B24303105D8F58A819B81CD
:102500006115710589F1FB0193838283FE0111C07E
:10251000408151810281138148175907E0F0481723
:10252000590799F4109761F012960C93129713962D
:102530001C933296CF01DF91CF911F910F91089597
:1025400000931D0410931E04F4CF2115310551F0A2
:102550004217530738F0A901DB019A01BD01DF01E1
:10256000F801C1CFEF01F9CF90931E0480931D04B1
:10257000CDCFFE01E20FF31F8193919322503109D9
:1025800039832883D7CF20911B0430911C04232B3F
:1025900041F4209115023091160230931C042093CF
:1025A0001B0420911302309114022115310541F4CE
:1025B0002DB73EB74091170250911802241B350BDE
:1025C000E0911B04F0911C04E217F307A0F42E1B0A
:1025D0003F0B2817390778F0AC014E5F5F4F241787
:1025E000350748F04E0F5F1F50931C0440931B04A7
:1025F000819391939FCFF0E0E0E09CCFCF93DF9366
:102600000097E9F0FC01329713821282A0911D0419
:10261000B0911E04ED0130E020E01097A1F420817C
:102620003181820F931F20911B0430911C042817C5
:10263000390709F061C0F0931C04E0931B04DF919B
:10264000CF910895EA01CE17DF07E8F54A815B8153
:102650009E0141155105B1F7E901FB83EA834991D8
:102660005991C40FD51FEC17FD0761F4808191814A
:102670000296840F951FE901998388838281938153
:102680009B838A83F0E0E0E012968D919C911397F2
:102690000097B9F52D913C911197CD010296820FCB
:1026A000931F20911B0430911C042817390739F619
:1026B000309751F510921E0410921D04B0931C0423
:1026C000A0931B04BCCFD383C28340815181840F6C
:1026D000951FC817D90761F44E5F5F4F88819981B4
:1026E000480F591F518340838A819B819383828342
:1026F0002115310509F0B0CFF0931E04E0931D04BD
:102700009ECFFD01DC01C0CF13821282D7CFDC0146
:1027100001C06D9341505040E0F7089511E0CCE3C3
:10272000D1E000E006C0802FFE010E945A122196DF
:10273000011DCD33D10780E00807A9F7F894FFCF3A
:10274000FFD204D204D204D204D204D204D204D2DE
:1027500004020000001F04800025262728292A2BB8
:102760002C2D2E2F30313233060708090A0B0C0DA1
:10277000161718191A1B1C1D1E1F20212223243F67
:10278000065B4F666D7D077F6F777C395E797100E0
:102790000000004502AF01DC0192020D02EB01FFD7
:1027A000010D0A0043474B00425241494E5F5249D6
:1027B0004E4700575F4B494C4C45520053564F59BA
:0827C000415F47414D45000057
:00000001FF
