:100000000C944B010C941A0E0C94EF0D0C94C40D2F
:100010000C94990D0C946E0D0C94430D0C94180DCA
:100020000C94ED0C0C947C010C947C010C947C01E0
:100030000C947C010C94A40B0C947C010C947C011A
:100040000C947C010C947C010C947C010C947C013C
:100050000C947C010C947C010C947C010C94A30CFA
:100060000C947C010C946D0C0C94430C0C947C014E
:100070000C947C010C947C010C947C010C947C010C
:100080000C947C010C947C010C947C010C947C01FC
:100090000C947C010C947C010C947C010C947C01EC
:1000A0000C947C010C947C010C947C010C947C01DC
:1000B0000C947C010C947C010C947C010C947C01CC
:1000C0000C947C010C947C010C947C010C947C01BC
:1000D0000C947C010C947C010C947C010C947C01AC
:1000E0000C947C010C94B8140C9422150C944203CB
:1000F0000C942E150C9446030C94F7040C944A03AC
:100100000C9419030C940D020C942A030C944F03C5
:100110000C942E140C9415030C94BF0E0C94EA014D
:100120000C94BA150C940F030C94A0020C94500379
:100130000C9454030C9480140C9434030C945302C8
:100140000C9438030C941D030C941B020C94B813EC
:100150000C94EA140C9421030C94BD010C942E030E
:100160000C943C030C9481030C94F9010C9424032B
:1001700000002100240027002A002D003000330059
:1001800001010000040107010A0100002000230012
:10019000260029002C002F0032000001000003017E
:1001A0000601090100000A0B02090C0D0E080703E5
:1001B000040100000000000000000000000000003A
:1001C000000000000000000000000000000000002F
:1001D00012111000000000000000000000000000EC
:1001E00000000000000000000000020102102020BA
:1001F000080810204010204080020102010804027B
:1002000001010204081020408080402010080402F0
:100210000180040201804020100804020108040249
:10022000010102040810204080010204081020404F
:100230008000002200250028002B002E0031003411
:100240000002010000050108010B01050505050775
:100250000508080808020202020A0A080804040441
:10026000040101010101010101030303030303036D
:1002700003040707070C0C0C0C0C0C0C0C020202FC
:100280000206060606060606060B0B0B0B0B0B0BEF
:100290000B00BF0EBA1511241FBECFEFD1E2DEBF97
:1002A000CDBF00E00CBF25E0ACE4B3E001C01D927F
:1002B000AD31B207E1F713E0A0E0B2E0EEE2F1E326
:1002C00000E00BBF02C007900D92AC34B107D9F724
:1002D00011E0CAE4D1E000E006C021970109802FB7
:1002E000FE010E946016C934D10780E00807A9F713
:1002F0000E94A20F0C9485180C9400000F931F937A
:10030000CF93DF93EC012885222319F109851A8503
:100310002150D9F030E050E040E06FEF7FEF80E017
:1003200090E00E944116F8014C815D81CF01801B55
:10033000910B8417950760F44081429FC001439F51
:10034000900D112490833196EFCF30E020E0EBCF79
:100350001886DF91CF911F910F91089580915204DB
:10036000909153048230910538F0880F991F880FBF
:10037000991F05970197F1F70895AF92BF92CF9219
:10038000DF92EF92FF920F931F93CF93DF936C0155
:100390007B018B01040F151FEB015E01AE18BF0836
:1003A000C017D10759F06991D601ED91FC910190E8
:1003B000F081E02DC6011995892B79F7C501DF91F0
:1003C000CF911F910F91FF90EF90DF90CF90BF9052
:1003D000AF900895FC01538D448D252F30E0842F7C
:1003E00090E0821B930B541710F0CF96089501975D
:1003F0000895FC01918D828D981761F0A28DAE0F4A
:10040000BF2FB11D5D968C91928D9F5F9F73928FD0
:1004100090E008958FEF9FEF0895FC01918D828DFC
:10042000981731F0828DE80FF11D858D90E00895C9
:100430008FEF9FEF0895FC01918D228D892F90E021
:10044000805C9F4F821B91098F739927089582EBDF
:1004500093E00E941B0221E0892B09F420E0822F07
:100460000895FC01A48DA80FB92FB11DA35ABF4F49
:100470002C91848D90E001968F739927848FA689A3
:10048000B7892C93A089B1898C91837080648C93F7
:10049000938D848D981306C00288F389E02D8081A6
:1004A0008F7D80830895EF92FF920F931F93CF93D8
:1004B000DF93EC0181E0888F9B8D8C8D98131AC09F
:1004C000E889F989808185FF15C09FB7F894EE8986
:1004D000FF896083E889F9898081837080648083E3
:1004E0009FBF81E090E0DF91CF911F910F91FF902E
:1004F000EF900895F62E0B8D10E00F5F1F4F0F73D6
:100500001127E02E8C8D8E110CC00FB607FCFACF90
:10051000E889F989808185FFF5CFCE010E943102FB
:10052000F1CFEB8DEC0FFD2FF11DE35AFF4FF08261
:100530009FB7F8940B8FEA89FB8980818062CFCFC7
:10054000CF93DF93EC01888D8823B9F0AA89BB890A
:10055000E889F9898C9185FD03C0808186FD0DC0F5
:100560000FB607FCF7CF8C9185FFF2CF808185FF16
:10057000EDCFCE010E943102E9CFDF91CF910895F6
:1005800080E090E0892B29F00E94270281110E94CF
:10059000000080E090E0892B49F080E090E0892B1A
:1005A00029F00E94000081110E94000080E090E08C
:1005B000892B49F080E090E0892B29F00E9400000F
:1005C00081110E94000080E090E0892B49F080E0DA
:1005D00090E0892B29F00E94000081110C9400000A
:1005E00008958150823108F05AC0E82FF0E0882742
:1005F000E350FD4F8F4F0C9460161D0321030F0332
:10060000150319034F0324032A032E03340338036D
:100610003C03420346034F034A03500354038091B3
:1006200080008F77809380000895809180008F7D77
:10063000F9CF80918000877FF5CF84B58F7784BD17
:10064000089584B58F7DFBCF8091B0008F77809324
:10065000B00008958091B0008F7DF9CF8091900017
:100660008F77809390000895809190008F7DF9CFCF
:1006700080919000877FF5CF8091A0008F77809345
:10068000A00008958091A0008F7DF9CF8091A000F7
:10069000877FF5CF809120018F7780932001089587
:1006A000809120018F7DF9CF80912001877FF5CF48
:1006B000CF93DF93282F30E0F901EC55FE4F849162
:1006C000F901E551FE4FD491F901E55BFD4FC4916D
:1006D000CC23A1F081110E94F102EC2FF0E0EE0F8B
:1006E000FF1FE657FE4FA591B491EC91ED2381E0F9
:1006F00090E009F480E0DF91CF91089580E090E0F0
:10070000FACF0F931F93CF93DF9381E08093AB03D6
:1007100009E112E0D0E0C0E0F80181918F010E9470
:100720005803FE01E656FC4F80832196CF30D10559
:1007300099F7DF91CF911F910F9108951F93CF9358
:10074000DF93282F30E0F901EC55FE4F8491F90139
:10075000E551FE4FD491F901E55BFD4FC491CC23E7
:10076000A9F0162F81110E94F102EC2FF0E0EE0F9C
:10077000FF1FEF5CFD4FA591B4918FB7F894EC91FA
:10078000111108C0D095DE23DC938FBFDF91CF918C
:100790001F910895DE2BF8CFCF93DF9390E0FC01FB
:1007A000E551FE4F2491855B9D4FFC018491882388
:1007B000C9F090E0880F991FFC01E059FE4FA59108
:1007C000B491FC01EF5CFD4FC591D49161110DC056
:1007D0009FB7F8948C91209582238C93888128234D
:1007E00028839FBFDF91CF910895623051F49FB766
:1007F000F8943C91822F809583238C93E8812E2B53
:10080000EFCF8FB7F894EC912E2B2C938FBFEACFBC
:10081000CF93DF93CFE4D4E061E089810E94CC03E1
:100820000E94AE0160E088810E94CC030E94AE016C
:1008300060E089810E94CC03DF91CF910C94AE01DE
:100840000F931F93CF93DF93D82FC8E061E080917F
:100850004F040E94CC030E94AE010D2F10E060E017
:10086000D0FF61E0809150040E94CC030E94AE0151
:1008700060E080914F040E94CC030E94AE01159568
:100880000795D02FC15011F761E080914F040E946D
:10089000CC0360E0809150040E94CC030E94AE0122
:1008A00060E080914F040E94CC030E94AE018091D1
:1008B00050040E945803C82F811105C061E0809147
:1008C00050040E94CC030E94AE0161E080914F046D
:1008D0000E94CC030E94AE0181E0C11101C080E002
:1008E000DF91CF911F910F91089561E080915004A5
:1008F0000E94CC030C94AE01EF92FF920F931F93D2
:10090000CF93DF93182FE92E062FC42F0E94750472
:1009100080E40E9420040E9408040E94750480EC78
:100920008C0F0E942004F12EC12FDE2D89910E9490
:1009300020048C2F8F198017C8F30E9408040E948E
:100940007504809151048F7080580E942004DF91BB
:10095000CF911F910F91FF90EF900C940804CF93CB
:10096000DF9300D01F92CDB7DEB719821A821B82A7
:100970001C8240E064E0CE0101960E947C040F904E
:100980000F900F900F90DF91CF9108953FB7F8949B
:1009900080916B0390916C03A0916D03B0916E03F5
:1009A00026B5A89B05C02F3F19F00196A11DB11DCA
:1009B0003FBFBA2FA92F982F8827BC01CD01620F06
:1009C000711D811D911D42E0660F771F881F991FC1
:1009D0004A95D1F708952FB7F89460916703709105
:1009E00068038091690390916A032FBF0895089569
:1009F000CF92DF92EF92FF92CF93DF93FC01CA0177
:100A0000AA27BB27C32ED42EE52EFF244C2D3085DC
:100A1000332371F0C32FD0E0C89FA001C99F500DB0
:100A2000D89F500D1124852F3C9D600111244D2D20
:100A3000A685218532859385A9131DC0DB01AA0FE8
:100A4000BB1F6A0F7B1F620F731FA385A60FB72FF3
:100A5000B11D8C93A485A60FB72FB11D4C9385852E
:100A6000680F711DFB011082DF91CF91FF90EF9015
:100A7000DF90CF900895660F771F660F771F620F84
:100A8000731FA60FB72FB11D1C92DFCFCF92DF923D
:100A9000EF92FF920F931F93CF93DF9300D000D07C
:100AA00000D0CDB7DEB78C01DC0119968D919C91F9
:100AB000892B09F465C00E94C604F801C784D08858
:100AC000E188F2886C197D098E099F096C327140AA
:100AD0008105910580F3F894D80114968D919C912D
:100AE00015979A8389831996ED91FC917F01BFEF49
:100AF000EB1AFB0A80818987F80190810388F489C9
:100B0000E02DD80155968C91992309F448C0908125
:100B1000982B98879081809589238F838F818C83F0
:100B200088E08B8358856F8149853B812C81898141
:100B30009A81D701508347FD252F3A952083262F90
:100B400039F0441F00C000006083000000C0F2CFF5
:100B500038E04D9160830000019761F7D801549609
:100B6000FC93EE93539749873B832C839A83898325
:100B700078940E94C604F8016787708B818B928BF2
:100B800029960FB6F894DEBF0FBECDBFDF91CF918F
:100B90001F910F91FF90EF90DF90CF90089590817B
:100BA000982B98879081809589238F838F818E835E
:100BB00088E08D8358856F8149853D812E818981AB
:100BC0009A81D701508347FD252F00C000C02083A4
:100BD00000C000C000C000C000C060830000262F1D
:100BE0003A9541F0441F000000C000C000C000C0A2
:100BF00000C0E8CF38E04D9100C0608300C001978D
:100C000009F7D8015496FC93EE93539749873D8397
:100C10002E83ACCFCF93DF93EC018E819F8197FD24
:100C200007C061E00E94CC0360E08E810E949E03B9
:100C300081E08983DF91CF910895CF93DF93EC0119
:100C40008E85882349F00E94EB04688379838A8328
:100C50009B83DF91CF9108950E94C604F6CFCF9277
:100C6000DF92EF92FF920F931F93CF93DF93EC01EC
:100C7000898182FD13C085FD11C08A810E945803BD
:100C8000398131FB222720F933FB332730F9232721
:100C900031E0892B09F030E02327298B0E94EB04F7
:100CA000AB01BC0199892A898881992309F46BC019
:100CB000211169C080FD4EC0816088834D875E87A9
:100CC0006F87788B8A89882319F1992309F18D819F
:100CD0009E81B0E0A0E00D851E852F8538896A01D0
:100CE0007B01C01AD10AE20AF30A970186010817AC
:100CF00019072A073B0760F0888181FD09C01B8620
:100D00001C868A648F7788834D875E876F87788B90
:100D10008D859E85AF85B889481B590B6A0B7B0B67
:100D20008F819885B0E0A0E0481759076A077B07D4
:100D300040F08B85882329F08C871B86888184600E
:100D40008883DF91CF911F910F91FF90EF90DF90FB
:100D5000CF9008950D851E852F8538896A017B0106
:100D6000C01AD10AE20AF30A0B811C8130E020E0AC
:100D7000C016D106E206F30658F221E02A8B806203
:100D8000806888839FCF8E7F888391119BCF222399
:100D900009F4BECF1A8A81FD03C08B858F5F8B87D4
:100DA00088818D7F4D875E876F87788B80618F7B91
:100DB000888387FFADCF8F7788838981816089831E
:100DC00081CFCF93DF93EC01898184FF03C0CE01F3
:100DD0000E942F06988192FB882780F992FF05C018
:100DE0002C85213029F49B7F9883DF91CF91089542
:100DF00080E0FBCFCF9380910002833121F08F3FC1
:100E0000C9F0CF910895EAEEF1E0C491C7FDF9CFA2
:100E100061E083E10E94CC03CC2309F4DEC0C23040
:100E200009F0F3C08091B100887F84608093B100A5
:100E300089EF7FC183E180930002EAEEF1E0C49183
:100E40008C2FCF3FF1F2C23009F468C060F4CC239C
:100E500079F1C13009F444C087FDD3CF61E083E16B
:100E60000E94CC03DCCFC43009F499C008F478C0E8
:100E7000C53091F71092200110922101809121013B
:100E800088608093210180912101816080932101FC
:100E9000EEE5F2E0E491F0E0EE0FFF1FEF5CFD4FB6
:100EA00085919491EEEFF1E0E491E0934D03B0CFA2
:100EB00014BC15BC84B5826084BD85B5816085BDD8
:100EC000EEE5F2E0E491F0E0EE0FFF1FEF5CFD4F86
:100ED00085919491EEEFF1E0E491E093510398CF86
:100EE0001092800010928100809181008860809330
:100EF000810080918100816080938100EEE5F2E0C5
:100F0000E491F0E0EE0FFF1FEF5CFD4F85919491AF
:100F1000EEEFF1E0E491E09350037ACF1092B0004D
:100F20001092B1008091B00082608093B0008091F7
:100F3000B10081608093B100EEE5F2E0E491F0E071
:100F4000EE0FFF1FEF5CFD4F85919491909370031E
:100F500080936F03EEEFF1E0E491E093710358CFDB
:100F6000109290001092910080919100886080937F
:100F7000910080919100816080939100EEE5F2E014
:100F8000E491F0E0EE0FFF1FEF5CFD4F859194912F
:100F9000EEEFF1E0E491E0934F03C3E039CF10921C
:100FA000A0001092A1008091A10088608093A10010
:100FB0008091A10081608093A100EEE5F2E0E491D0
:100FC000F0E0EE0FFF1FEF5CFD4F85919491EEEF87
:100FD000F1E0E491E0934E031BCF85B5887F8360F9
:100FE00085BD89EF87BD84E690E0A0E0B0E0809306
:100FF000620390936303A0936403B09365038091AD
:101000006E00826080936E00FCCEC130F1F480915E
:101010008100887F8160809381008FE79EE39093B9
:1010200089008093880084E690E0A0E0B0E080939F
:101030005E0390935F03A0936003B093610380917C
:101040006F00826080936F00DCCEC330F1F480913A
:101050009100887F8160809391008FE79EE3909359
:1010600099008093980084E690E0A0E0B0E080933F
:101070005A0390935B03A0935C03B0935D0380914C
:101080007100826080937100BCCEC430F1F4809115
:10109000A100887F81608093A1008FE79EE39093F9
:1010A000A9008093A80084E690E0A0E0B0E08093DF
:1010B000560390935703A0935803B093590380911C
:1010C00072008260809372009CCEC530F1F48091F2
:1010D0002101887F8160809321018FE79EE39093B7
:1010E00029018093280184E690E0A0E0B0E080939D
:1010F000520390935303A0935403B09355038091EC
:1011000073008260809373007CCEC23089F034F427
:10111000CC2361F0C13009F074CE7FCFC43009F424
:10112000BCCF0CF49ACFC530C1F26BCE8FE75ACF4B
:101130008FE78093B30084E690E0A0E0B0E0809376
:10114000720390937303A0937403B093750380911B
:10115000700082608093700054CEDF92EF92FF9215
:101160000F931F93CF93DF9300D01F92CDB7DEB7BD
:10117000D62E262F30E0B90161507109009701F594
:10118000998180E0861717061CF48F5F90E0FACFF4
:1011900099836C0F7D1F8FE3DB0111968C936D2D6E
:1011A000CE0101960E947C040F900F900F900F903B
:1011B000DF91CF911F910F91FF90EF90DF900895F5
:1011C000FC018E010F5F1F4F200F311F8AE0E82EB8
:1011D000F12CCF01B7010E940B1621503109009765
:1011E00069F4309759F4D9011C92CF01B7010E94DC
:1011F0000B16FB010217130761F7D1CF8F5B9D4FD1
:10120000DC018C91D9018C93F0CF1F93CF93DF93A6
:101210006CE370E00E940B16262FEC01662391F020
:1012200010924C0340E062E0822F972F0E94AD089D
:10123000CA3090F042E062E0CE01DF91CF911F9181
:101240000C94AD0880914C038111F4CF0E94AF043F
:1012500081E080934C03EECF42E061E090E080E0DB
:101260000E94AD0843E061E0E7CFFC01019000205F
:10127000E9F73197AF01481B590BBC0182EB93E0B2
:101280000C94BD018F929F92AF92BF920F931F93C8
:10129000CF93DF93CDB7DEB7A1970FB6F894DEBF3B
:1012A0000FBECDBF19A2423008F44AE08E010F5D97
:1012B0001F4F842E912CB12CA12CA50194010E94CA
:1012C0001F16E62FB901CA01EA30F4F4E05DD80137
:1012D000EE938D01232B242B252B79F790E080E0D2
:1012E000109719F0CD010E943509A1960FB6F89418
:1012F000DEBF0FBECDBFDF91CF911F910F91BF9089
:10130000AF909F908F900895E95CE1CFCF93DF93EA
:101310000E943509EC0183E692E00E9435098C0FAA
:101320009D1FDF91CF910895CF93DF93FC014481FE
:1013300055816081718182EB93E00E94BD01EC01D7
:1013400083E692E00E9435098C0F9D1FDF91CF91BB
:1013500008951F93CF93DF93C0915C04D0915D04F7
:101360002091580430915904C217D30729F480E022
:10137000DF91CF911F910895182F83E090E00E9494
:101380006816FC0112821182892B89F31083219641
:101390008091540490915504892B71F4F093550475
:1013A000E0935404F0935704E0935604D0935D0403
:1013B000C0935C0481E0DCCFA0915604B091570447
:1013C0001296FC93EE931197EDCFCF92DF92EF92AE
:1013D000FF921F93CF93DF93C7E7D3E0C12CD12CAB
:1013E000760111E0F601E656FC4F908181E08C0D0C
:1013F0002FEFC21AD20AE20AF20A911113C09881A1
:10140000911110C018830E94A90986E692E00E94FB
:1014100035094AE0C701B6010E94420983E692E01D
:101420000E94350921968FE0C816D104E104F10429
:10143000C9F6DF91CF911F91FF90EF90DF90CF9091
:101440000895FC014481558170E060E081859285BA
:101450000C947718AF92BF92CF92DF92EF92FF92E7
:101460001F93CF93DF935C016A017B0186ED94E0CB
:101470000E94210A80EC94E00E94210A8AEA94E00A
:101480000E94210AA114B10491F110E0C12FD0E013
:10149000CA15DB0560F58091D8049091D904C8176E
:1014A000D90738F4A7019601BE0186ED94E00E94A9
:1014B000F8048091C2049091C304C817D90738F486
:1014C000A7019601BE0180EC94E00E94F80480918F
:1014D000AC049091AD04C817D90738F4A701960160
:1014E000BE018AEA94E00E94F8041F5FCFCF86ED28
:1014F00094E00E94460580EC94E00E9446058AEA4A
:1015000094E0DF91CF911F91FF90EF90DF90CF900B
:10151000BF90AF900C944605FC01808191810097AB
:1015200011F00C94041708950F931F93CF93DF933A
:10153000EC0188819981009759F02A813B81261717
:10154000370730F081E0DF91CF911F910F9108951F
:101550008B016F5F7F4F0E948D17009759F0998321
:1015600088831B830A832C813D81232B59F7FC013F
:101570001082E8CF80E0E7CFEF92FF920F931F93A6
:10158000CF93DF93EC01FB01E080F180E114F104E3
:1015900011F10481158101151105A9F08C819D813E
:1015A000080F191FB801CE010E94940A882399F0F0
:1015B000288139818C819D81B701820F931F0E9400
:1015C0007E181D830C83CE01DF91CF911F910F9167
:1015D000FF90EF90089588819981009711F00E9403
:1015E0000417198218821D821C821B821A82EBCF7B
:1015F000EF92FF920F931F93CF93DF93EC017B0148
:101600008A01BA010E94940A28813981811114C08B
:101610002115310519F0C9010E9404171982188299
:101620001D821C821B821A82CE01DF91CF911F91F5
:101630000F91FF90EF9008951D830C83B701C901AE
:101640000E947E18F1CFEF92FF920F931F93CF93DA
:10165000DF93CDB7DEB762970FB6F894DEBF0FBE4B
:10166000CDBF8C01CB01F80111821082138212824E
:10167000158214824AE09E012F5F3F4F7901B90124
:101680000E94D615F70101900020E9F73197AF01CC
:101690004E195F09B701C8010E94F80A62960FB699
:1016A000F894DEBF0FBECDBFDF91CF911F910F9198
:1016B000FF90EF900895EF92FF920F931F93CF93B7
:1016C000DF93CDB7DEB761970FB6F894DEBF0FBEDC
:1016D000CDBF8C01CB01F8011182108213821282DE
:1016E000158214824AE09E012F5F3F4F7901B901B4
:1016F0000E94E115F70101900020E9F73197AF0151
:101700004E195F09B701C8010E94F80A61960FB629
:10171000F894DEBF0FBECDBFDF91CF911F910F9127
:10172000FF90EF900895FC011182108213821282C3
:1017300015821482FB0101900020E9F73197AF0177
:10174000461B570B0C94F80A1F920F920FB60F927C
:1017500011240BB60F922F933F934F935F936F9388
:101760007F938F939F93AF93BF93EF93FF9380915A
:10177000720390917303A0917403B0917503892B48
:101780008A2B8B2BE1F190917103E0916F03F09123
:101790007003808189278083809172039091730305
:1017A000A0917403B0917503181619061A061B064A
:1017B0009CF48091720390917303A0917403B09193
:1017C00075030197A109B109809372039093730384
:1017D000A0937403B0937503FF91EF91BF91AF9104
:1017E0009F918F917F916F915F914F913F912F9139
:1017F0000F900BBE0F900FBE0F901F901895809109
:101800000002EAEEF1E0E4919FEF90930002E230F3
:10181000E9F040F4EE2389F0E13091F060E00E94BD
:101820009E03DACFE43049F110F1E530B9F7909139
:1018300073009D7F90937300F1CF10926E00EECFF6
:1018400090916F009D7F90936F00E8CF9091700012
:101850009D7F9093700091E09093B0009091B100C3
:10186000987F94609093B1001092B300D7CF90917D
:1018700071009D7F90937100D1CF909172009D7FF8
:1018800090937200CBCF1F920F920FB60F9211243C
:101890000BB60F922F933F934F935F936F937F936A
:1018A0008F939F93AF93BF93EF93FF9382EB93E05C
:1018B0000E943102FF91EF91BF91AF919F918F9163
:1018C0007F916F915F914F913F912F910F900BBE40
:1018D0000F900FBE0F901F9018951F920F920FB68A
:1018E0000F9211240BB60F922F938F939F93EF9328
:1018F000FF93E091C203F091C3038081E091C8039C
:10190000F091C90382FD1DC090818091CB038F5F50
:101910008F732091CC03821741F0E091CB03F0E06C
:10192000EE54FC4F958F8093CB03FF91EF919F91E5
:101930008F912F910F900BBE0F900FBE0F901F90A5
:1019400018958081F2CF1F920F920FB60F9211243B
:101950002F933F938F939F93AF93BF938091670390
:1019600090916803A0916903B0916A033091660376
:1019700023E0230F2D3758F50196A11DB11D2093AB
:1019800066038093670390936803A0936903B09301
:101990006A0380916B0390916C03A0916D03B091E9
:1019A0006E030196A11DB11D80936B0390936C0390
:1019B000A0936D03B0936E03BF91AF919F918F91F0
:1019C0003F912F910F900FBE0F901F90189526E812
:1019D000230F0296A11DB11DD2CF1F920F920FB6F9
:1019E0000F9211240BB60F922F933F934F935F9357
:1019F0006F937F938F939F93AF93BF93EF93FF93D7
:101A0000E0910F02F09110021995FF91EF91BF91B3
:101A1000AF919F918F917F916F915F914F913F9186
:101A20002F910F900BBE0F900FBE0F901F90189527
:101A30001F920F920FB60F9211240BB60F922F9395
:101A40003F934F935F936F937F938F939F93AF9346
:101A5000BF93EF93FF93E0910D02F0910E02199561
:101A6000FF91EF91BF91AF919F918F917F916F9176
:101A70005F914F913F912F910F900BBE0F900FBE32
:101A80000F901F9018951F920F920FB60F9211246E
:101A90000BB60F922F933F934F935F936F937F9368
:101AA0008F939F93AF93BF93EF93FF93E0910302C4
:101AB000F09104021995FF91EF91BF91AF919F9121
:101AC0008F917F916F915F914F913F912F910F90E7
:101AD0000BBE0F900FBE0F901F9018951F920F9284
:101AE0000FB60F9211240BB60F922F933F934F9383
:101AF0005F936F937F938F939F93AF93BF93EF9376
:101B0000FF93E0910102F09102021995FF91EF918C
:101B1000BF91AF919F918F917F916F915F914F9105
:101B20003F912F910F900BBE0F900FBE0F901F9003
:101B300018951F920F920FB60F9211240BB60F92A9
:101B40002F933F934F935F936F937F938F939F93C5
:101B5000AF93BF93EF93FF93E0910B02F0910C02D0
:101B60001995FF91EF91BF91AF919F918F917F91C7
:101B70006F915F914F913F912F910F900BBE0F90FE
:101B80000FBE0F901F9018951F920F920FB60F92D5
:101B900011240BB60F922F933F934F935F936F9344
:101BA0007F938F939F93AF93BF93EF93FF93E091B6
:101BB0000902F0910A021995FF91EF91BF91AF913F
:101BC0009F918F917F916F915F914F913F912F9155
:101BD0000F900BBE0F900FBE0F901F9018951F9285
:101BE0000F920FB60F9211240BB60F922F933F93C3
:101BF0004F935F936F937F938F939F93AF93BF9315
:101C0000EF93FF93E0910702F09108021995FF917D
:101C1000EF91BF91AF919F918F917F916F915F9164
:101C20004F913F912F910F900BBE0F900FBE0F90D1
:101C30001F9018951F920F920FB60F9211240BB69A
:101C40000F922F933F934F935F936F937F938F9355
:101C50009F93AF93BF93EF93FF93E0910502F091B1
:101C600006021995FF91EF91BF91AF919F918F91CE
:101C70007F916F915F914F913F912F910F900BBE8C
:101C80000F900FBE0F901F901895CF93DF93EC012C
:101C9000862F2CE330E03C832B8324EF31E03E831E
:101CA0002D832CE231E038872F8320E931E03A8719
:101CB00029871B861C861D861E861F86188A198A00
:101CC0001A8A6A8399819F7D977F998362E00E9437
:101CD000CC0389818B7E8D7F8983DF91CF9108959D
:101CE0000F931F93CF93DF93EC018B01198218861A
:101CF0001F86188A198A1A8A81E08E878B871C862C
:101D000092E09D8788838AE590E09D838C830E9482
:101D100068169A878987009769F12AE5FC01119274
:101D20002A95E9F78EE190E09B838A831F830E83D7
:101D30008981882341F061E0802F0E94CC0360E01C
:101D4000802F0E949E03F801E55BFD4FE491F0E0D7
:101D5000EE0FFF1FEF5CFD4F859194919C8B8B8B59
:101D6000F801E551FE4FE491ED8BDF91CF911F918A
:101D70000F9108951D821C821B821A82D7CFCF92A9
:101D8000DF92EF92FF920F931F93CF93DF93E2EBDB
:101D9000F3E01382128288EEC82E83E0D82EE12C65
:101DA000F12CC482D582E682F78285E592E09183A8
:101DB000808385EC90E09587848784EC90E097871A
:101DC000868780EC90E0918B808B81EC90E0938B08
:101DD000828B82EC90E0958B848B86EC90E0978BE5
:101DE000868B118E128E138E148E0AE015E0F80188
:101DF0001082118212821382108611861286138637
:101E0000C1E0C487C68788EB9BE0A0E0B0E0848394
:101E10009583A683B783C587C8010E941D06F80174
:101E2000C6870BEF14E0F801108211821282138230
:101E30001086118612861386C487C687C482D5820F
:101E4000E682F782C587C8010E941D06F801C68791
:101E50000CEE14E0F80110821182128213821482B7
:101E60001582168217821086118612861386C48701
:101E70001586C6870E94EB04F801C080D180E280FD
:101E8000F3806C197D098E099F09608771878287AD
:101E90009387C68765E070E086ED94E00E94700E3F
:101EA00063E070E080EC94E00E94700E64E070E00B
:101EB0008AEA94E00E94700E6FE087E994E00E9445
:101EC000450E60E184E894E00E94450E61E181E7FF
:101ED00094E00E94450E6EE08EE594E00E94450E6F
:101EE000E4E5F4E0118210821382128211861086DA
:101EF0008FEF9FEF978386838FE090E095838483B5
:101F0000CFE4D4E084E3888385E3898384E690E0AA
:101F10009C838B8360E084E30E94CC0360E0898132
:101F20000E94CC0360E088810E949E0360E089816A
:101F3000DF91CF911F910F91FF90EF90DF90CF90A5
:101F40000C949E03CF93DF93CDB7DEB760970FB6A7
:101F5000F894DEBF0FBECDBF789484B5826084BD97
:101F600084B5816084BD85B5826085BD85B581609D
:101F700085BD80916E00816080936E00109281001B
:101F800080918100826080938100809181008160D6
:101F90008093810080918000816080938000809197
:101FA000B10084608093B1008091B0008160809323
:101FB000B0008091910082608093910080919100A7
:101FC0008160809391008091900081608093900067
:101FD0008091A10082608093A1008091A100816026
:101FE0008093A1008091A00081608093A0008091E7
:101FF0002101826080932101809121018160809381
:1020000021018091200181608093200180917A00DC
:10201000846080937A0080917A00826080937A0055
:1020200080917A00816080937A0080917A00806844
:1020300080937A001092C10090E080E021E0FC01E2
:10204000E656FC4F208301968F309105C1F708E2D8
:1020500012E061E0D8018D918D010E94CC03B2E0C5
:1020600007331B07B1F709E112E088E2E82E82E0AE
:10207000F82E62E0F80181918F010E94CC03E016F6
:10208000F106B9F711E4E12E12E0F12E09E3202E5A
:1020900002E0302E61E0D1018D911D010E94CC0340
:1020A000E214F304B9F761E085E00E94CC0361E03B
:1020B00083E00E94CC0361E084E00E94CC038FE0C7
:1020C0008093510419821A821B821C8240E064E0D2
:1020D000CE0101960E947C0461E083E10E94CC0362
:1020E000E091C203F091C30382E08083E091BE03DC
:1020F000F091BF031082E091C003F091C1038FEC17
:1021000080831092CA03E091C603F091C70386E072
:102110008083E091C403F091C50380818061808356
:10212000E091C403F091C503808188608083E091D1
:10213000C403F091C503808180688083E091C4036B
:10214000F091C50380818F7D808386ED94E00E94AD
:102150000A0686ED94E00E947E0186ED94E00E94DE
:10216000210A86ED94E00E94460580EC94E00E94EE
:102170000A0680EC94E00E947E0180EC94E00E94CC
:10218000210A80EC94E00E9446058AEA94E00E94CD
:102190000A068AEA94E00E947E018AEA94E00E949C
:1021A000210A8AEA94E00E94460560E082E00E94EB
:1021B000CC0381E893E0909308028093070280911A
:1021C00069008C6080936900E99A0E94EB048CEDB1
:1021D00095E0A0E0B0E08093F0049093F104A09328
:1021E000F204B093F30481E08093F8048093F9043F
:1021F0008CEE94E00E941D061092F80481E090E0BD
:10220000909312028093110266E0862E74E0D72E1E
:10221000E3E0BE2EF2E0AF2EAFE09A2EB5E0CB2E7B
:1022200087E994E00E942F0684E894E00E942F063C
:1022300081E794E00E942F068EE594E00E942F062D
:1022400087E994E00E94E1068823F1F08091B103D0
:102250008F5F8093B1031092B0031092AF0310927E
:10226000AE031092AD031092AC0359E3E52E52E099
:10227000F52E60E0F70181917F010E949E03E21438
:10228000F304B9F70E94AF048EE594E00E94E106E2
:10229000882309F4C2C060915C0470915D04CE0192
:1022A00001960E945B0B64E772E0CE0107960E94E4
:1022B000930BBE016F5F7F4FCE0107960E94BC0A51
:1022C0000E949409CE0107960E948C0ACE010196C5
:1022D0000E948C0A6091580470915904CE010196B5
:1022E0000E945B0B6EE872E0CE0107960E94930B92
:1022F000BE016F5F7F4FCE0107960E94BC0A0E940D
:102300009409CE0107960E948C0ACE0101960E9484
:102310008C0A61E070E08091540490915504892BFF
:1023200011F070E060E0CE0101960E94230B68EA94
:1023300072E0CE0107960E94930BBE016F5F7F4F44
:10234000CE0107960E94BC0A0E949409CE0107960E
:102350000E948C0ACE0101960E948C0A61E070E016
:1023600020915C0430915D0480915804909159044F
:102370002817390711F070E060E0CE0101960E9445
:10238000230B67EB72E0CE0107960E94930BBE0110
:102390006F5F7F4FCE0107960E94BC0A0E9494098E
:1023A000CE0107960E948C0ACE0101960E948C0AEB
:1023B00085EC92E00E948609F12CE12CF701E656AB
:1023C000FC4F608170E090E080E04AE00E944209AA
:1023D000FFEFEF1AFF0A0FE0E016F10479F783E64A
:1023E00092E00E9435098CEC92E00E9486094BE84D
:1023F000E42E43E0F42ED7016D917D0170E090E072
:1024000080E04AE00E944209BAE9EB16B3E0FB061D
:1024100091F783E692E00E943509809108058823B0
:1024200009F456C080910905882309F460C00E9410
:10243000EB04E090FB04F090FC040091FD0410918B
:10244000FE04ED86FE860F87188B4090FF045090A7
:10245000000560900105709002059B01AC012E19EA
:102460003F09400B510B241535054605570580F1F2
:1024700020910705222309F450C0AB01BC01441987
:102480005509660977090D851E852F853889040D44
:10249000151D261D371D0D871E872F87388B0415A8
:1024A00015052605370530F50093FB041093FC0451
:1024B0002093FD043093FE0486ED94E00E944605CF
:1024C00080EC94E00E9446058AEA94E00E9446056A
:1024D0008091B103813009F413C110F1823009F405
:1024E000FAC2833009F417C31092B10359C00E9495
:1024F000C6049FCF8D859E85AF85B88984179507C3
:10250000A607B70708F4BFCF8093FB049093FC04A1
:10251000A093FD04B093FE04CFCF10920805CCCF5A
:102520008091AF03811102C01092760381E794E09D
:102530000E94E106882329F0D092760381E00E9470
:10254000A90980917603823009F447C038F48823C2
:10255000B1F0813069F11092760322C0843009F421
:10256000C3C008F47EC08530B1F784E894E00E94CF
:10257000E1068823A9F081E08093760311C061E031
:1025800087E00E949E0361E088E00E949E0383ED45
:1025900092E00E94860981E08093AF03C0927603A7
:1025A0008091AB0381111092AB030E94C00238CE20
:1025B0000E94FA0687ED92E00E9486099092A90394
:1025C0000E94EB04609386037093870380938803D3
:1025D00090938903A0927603E3CF0E94EB0440908E
:1025E0008603509087036090880370908903641974
:1025F000750986099709683E73408105910580F247
:102600000E94EB0460938603709387038093880392
:10261000909389037090A903E72CF12CC7010E94C5
:102620000509C701880F991F60911102709112026C
:102630000E940B16CB0140E05FEF60E070E00E946B
:102640002A0A8FEF870D8093A9038A3008F0A8CF5C
:102650000E94FA0687ED92E00E948609B092760306
:102660009FCF0E94EB0440908603509087036090B8
:102670008803709089036419750986099709683E73
:1026800073408105910508F48BCF0E94EB046093A1
:1026900086037093870380938803909389037090D7
:1026A000A903E72CF12CC7010E940509C701880F77
:1026B000991F60911102709112020E940B16CB01BA
:1026C00040E05FEF6FEF70E00E942A0A7A94709208
:1026D000A903711065CF0E94FA0682EE92E00E9473
:1026E0008609D09276035CCFC09276030E94AF0435
:1026F00040E050E0BA0190E080E00E942A0A50CF0A
:102700008091B003811102C01092AC0381E794E084
:102710000E94E106882349F08092AC038CEE92E09F
:102720000E94860982E00E94A90980915404909138
:102730005504892B51F08091AC03823031F4C09262
:10274000AC0387EF92E00E948609E091AC03E7308A
:1027500008F026CFF0E08827EF54FC4E8F4F0C9402
:102760006016B8132E148014B814EA142E1522150E
:1027700081E093E00E94860940E050E0BA0190E0D9
:1027800080E00E942A0A61E086E00E949E0361E0E8
:1027900087E00E949E0361E08CE00E949E0361E05E
:1027A0008AE00E949E0361E089E00E949E0381E02E
:1027B0008093B003E091AA03F0E0E95CFD4F8081D3
:1027C00042E062E090E00E94AD089092A90387E7A2
:1027D000E82E83E0F82E80915C0490915D04892BB3
:1027E00011F180915404909155040097E1F0FC019F
:1027F0002181328130935504209354040E940417A0
:102800008091540490915504892B21F4109257041F
:102810001092560480915C0490915D04019790930E
:102820005D0480935C04D7011D927D01B6E8EB1630
:10283000B3E0FB0681F6EBE8F3E090E080E021E016
:10284000DC01A656BC4F2C93119201968F30910556
:10285000B9F72093AC038CE093E04CC040E050E02B
:10286000BA0190E080E00E942A0A8091980484FFD7
:1028700004C087E994E00E942F068091970482FFAC
:102880000DC09091A304923049F490918A038B7FFC
:102890008093970481E0892780938A0380918A033B
:1028A00061E0811101C060E08DE00E949E0381E73C
:1028B00094E00E94E106882391F08091AA038F5F43
:1028C0008230D8F48093AA03E091AA03F0E0E95C97
:1028D000FD4F808142E062E090E00E94AD0884E814
:1028E00094E00E94E106882309F45ACEA092AC033A
:1028F00084E193E00E94860953CE1092AA03E4CFAC
:102900000E94E5090E94EB044090860350908703E3
:102910006090880370908903641975098609970986
:10292000683E73408105910508F43ACE0E94EB049D
:102930006093860370938703809388039093890341
:10294000F090A9038F2D90E00E9405098FEF8F0D65
:102950008093A9038A3008F023CEB092AC0380E2C2
:1029600093E00E9486090E94FA0687ED92E0C2CFAA
:102970000E94E5090E94EB04409086035090870373
:102980006090880370908903641975098609970916
:10299000683E73408105910508F402CE0E94EB0465
:1029A00060938603709387038093880390938903D1
:1029B000F090A9038F2D90E00E9405098FEF8F0DF5
:1029C0008093A903853008F0EBCDD092AC038CE264
:1029D00093E090CF0E94E5090E94EB0440908603AB
:1029E000509087036090880370908903641975097B
:1029F00086099709683E73408105910508F4D0CD9A
:102A00000E94EB046093860370938703809388038E
:102A100090938903F090A9038F2D90E00E940509FF
:102A2000FA94F092A9030E94FA0687ED92E00E94C0
:102A300086098091A9038111B3CD8092AC038CEEFD
:102A400092E058CF0E94FA060E94AF0482EE92E014
:102A50000E94860981E08093AC03FDCE80915C04E6
:102A600090915D04892BA9F18091540490915504B3
:102A7000009779F1DC0111962D913C9112973093DA
:102A8000550420935404FC900E9404178091540430
:102A900090915504892B21F41092570410925604FA
:102AA00080915C0490915D04019790935D04809304
:102AB0005C0461E08F2D0E949E0384E894E00E94F4
:102AC000E106882309F46CCD8091A9038111B5CF6B
:102AD0007CCFF12CEECF8091AE03811161CD88E3E4
:102AE00093E00E94860961E086E00E949E0361E017
:102AF00087E00E949E0361E08CE00E949E0361E0FB
:102B000088E00E949E0361E089E00E949E0381E0CC
:102B10008093AE0345CD8091AD03811141CD81E419
:102B200093E00E94860961E08BE00E949E0361E0D1
:102B300087E00E949E0361E08CE00E949E0361E0BA
:102B400088E00E949E0381E08093AD0329CDCF935E
:102B5000DF93EC0189859A850E9404178E819F81FD
:102B600097FD05C060E0DF91CF910C94CC03DF911D
:102B7000CF9108958091540490915504009751F09D
:102B8000FC012181328130935504209354040E942A
:102B90000417F0CF8AEA94E00E94A71580EC94E035
:102BA0000E94A71586ED94E00C94A715BB274A3028
:102BB00031F4992322F4BDE2909581959F4F0C94B6
:102BC000E215BB27FB015527AA27880F991FAA1FCB
:102BD000A41710F0A41B83955051B9F7A05DAA3338
:102BE00008F0A95DA193009779F7B111B193119203
:102BF000CB010C94FB15DC01FC01672F719177234D
:102C0000E1F7329704C07C916D9370836291AE17A7
:102C1000BF07C8F30895AA1BBB1B51E107C0AA1F39
:102C2000BB1FA617B70710F0A61BB70B881F991F6D
:102C30005A95A9F780959095BC01CD010895A1E220
:102C40001A2EAA1BBB1BFD010DC0AA1FBB1FEE1F26
:102C5000FF1FA217B307E407F50720F0A21BB30B71
:102C6000E40BF50B661F771F881F991F1A9469F7ED
:102C700060957095809590959B01AC01BD01CF0149
:102C80000895052E97FB1EF400940E94581657FDD8
:102C900007D00E941F1607FC03D04EF40C94581660
:102CA00050954095309521953F4F4F4F5F4F089578
:102CB00090958095709561957F4F8F4F9F4F0895A8
:102CC000EE0FFF1F881F8BBF0790F691E02D199420
:102CD0000F931F93CF93DF938230910510F482E01E
:102CE00090E0E0911B05F0911C0530E020E0B0E0A1
:102CF000A0E0309799F42115310509F44AC0281B4A
:102D0000390B24303105D8F58A819B816115710515
:102D100089F1FB0193838283FE0111C040815181BF
:102D20000281138148175907E0F04817590799F4B1
:102D3000109761F012960C93129713961C9332968B
:102D4000CF01DF91CF911F910F91089500931B0543
:102D500010931C05F4CF2115310551F0421753078C
:102D600038F0A901DB019A01BD01DF01F801C1CFF3
:102D7000EF01F9CF90931C0580931B05CDCFFE0189
:102D8000E20FF31F819391932250310939832883F5
:102D9000D7CF2091190530911A05232B41F42091AA
:102DA00015023091160230931A05209319052091CF
:102DB0001302309114022115310541F42DB73EB7AD
:102DC0004091170250911802241B350BE091190510
:102DD000F0911A05E217F307A0F42E1B3F0B2817FA
:102DE000390778F0AC014E5F5F4F2417350748F084
:102DF0004E0F5F1F50931A054093190581939193CD
:102E00009FCFF0E0E0E09CCFCF93DF930097E9F015
:102E1000FC01329713821282A0911B05B0911C0510
:102E2000ED0130E020E01097A1F420813181820F84
:102E3000931F2091190530911A052817390709F0B9
:102E400061C0F0931A05E0931905DF91CF910895C1
:102E5000EA01CE17DF07E8F54A815B819E01411543
:102E60005105B1F7E901FB83EA8349915991C40FF8
:102E7000D51FEC17FD0761F4808191810296840FC4
:102E8000951FE90199838883828193819B838A833B
:102E9000F0E0E0E012968D919C9113970097B9F5C0
:102EA0002D913C911197CD010296820F931F209195
:102EB000190530911A052817390739F6309751F559
:102EC00010921C0510921B05B0931A05A0931905CA
:102ED000BCCFD383C28340815181840F951FC81713
:102EE000D90761F44E5F5F4F88819981480F591F60
:102EF000518340838A819B8193838283211531058D
:102F000009F0B0CFF0931C05E0931B059ECFFD01A7
:102F1000DC01C0CF13821282D7CF4F925F926F92A3
:102F20007F928F929F92AF92BF92CF92DF92EF9259
:102F3000FF920F931F93CF93DF938C01009799F427
:102F4000CB01DF91CF911F910F91FF90EF90DF9018
:102F5000CF90BF90AF909F908F907F906F905F9039
:102F60004F900C946816FC01E60FF71F9C0122504D
:102F70003109E217F30708F4AEC0D901CD91DC9115
:102F80001197C617D70720F1C530D10578F0CE01CB
:102F900004978617970750F0C61BD70B2297C1934B
:102FA000D1936D937C93CF010E940417C801DF91E8
:102FB000CF911F910F91FF90EF90DF90CF90BF9036
:102FC000AF909F908F907F906F905F904F900895FB
:102FD0005B01AC1ABD0A4C018C0E9D1EA0911B0515
:102FE000B0911C05512C412CF12CE12C109731F59E
:102FF0008091190590911A058815990509F05CC012
:103000004616570608F058C080911302909114029A
:10301000009741F48DB79EB7409117025091180266
:10302000841B950BE817F90708F055C0F0931A05B3
:10303000E0931905F90171836083B8CF8D919C915C
:10304000119712966C90129713967C901397A8156F
:10305000B90559F56C0142E0C40ED11CCA14DB0459
:1030600020F1AC014A195B09DA011296159780F03C
:103070006282738251834083D9016D937C93E11402
:10308000F10471F0D7011396FC93EE9312978ECF53
:1030900022968C0F9D1FF90191838083F301EFCF5E
:1030A000F0931C05E0931B0581CF4816590608F4E0
:1030B0002C017D01D3019ACFCB010E9468167C01BF
:1030C000009749F0AE01B8010E946E18C8010E9435
:1030D000041787016BCF10E000E068CFFB01DC0133
:1030E00002C001900D9241505040D8F70895DC0184
:1030F00001C06D9341505040E0F70895FB01DC01A1
:1031000001900D920020E1F7089511E0CAE4D1E0AA
:1031100000E006C0802FFE010E9460162196011D6E
:0E312000CB34D10780E00807A9F7F894FFCF61
:10312E00FFF704F704F704F704F704F704F704F7BE
:10313E0004020000001D05800025262728292A2BC1
:10314E002C2D2E2F30313233161718191A1B1C1D29
:10315E001E1F20212223240F14060708090A0B0C18
:10316E000D3F065B4F666D7D077F6F777C395E790D
:10317E0071000000005302BD01EA01A0021B02F91A
:10318E00010D020D0A006974656D20717565756516
:10319E00643A20004974656D7320696E20717565FF
:1031AE007565206E6F773A20202020202000517503
:1031BE006575652061637475616C206D6178206939
:1031CE0074656D733A202000517565756520656DC7
:1031DE007074793A20200051756575652066756C9E
:1031EE006C3A20200062746E733A20006C65647332
:1031FE003A200043474B0073686F72745F746F6EB2
:10320E0065006C6F6E675F746F6E650042525F652E
:10321E006E6467616D650042525F616E73776572B1
:10322E0000425241494E5F52494E470042525F6E34
:10323E00756C6C0042525F74696D65725F3530005B
:10324E0042525F74696D65725F35350042525F742C
:10325E00696D65725F363000575F4B494C4C455275
:0C326E000053564F59415F47414D450049
:00000001FF
