:020000040000FA
:100000000C943D010C947D0C0C94520C0C94270C18
:100010000C94FC0B0C94D10B0C94A60B0C947B0B46
:100020000C94500B0C946E010C946E010C946E01A8
:100030000C946E010C94070A0C946E010C946E01E2
:100040000C946E010C946E010C946E010C946E0174
:100050000C946E010C946E010C946E010C94060BC2
:100060000C946E010C94D00A0C94A60A0C946E01A8
:100070000C946E010C946E010C946E010C946E0144
:100080000C946E010C946E010C946E010C946E0134
:100090000C946E010C946E010C946E010C946E0124
:1000A0000C946E010C946E010C946E010C946E0114
:1000B0000C946E010C946E010C946E010C946E0104
:1000C0000C946E010C946E010C946E010C946E01F4
:1000D0000C946E010C946E010C946E010C946E01E4
:1000E0000C946E010C942E030C9442030C942A037E
:1000F0000C941F120C9407030C94EB010C94DC017C
:100100000C9441030C9492020C9401030C9426036A
:100110000C940D020C94220D0C943C030C943803A7
:100120000C9473030C941C030C940B030C94460363
:100130000C94FF010C9445020C9434030C94C406F7
:100140000C9416030C94AF010C940F030C94200331
:100150000C94130300002100240027002A002D0026
:100160003000330001010000040107010A01000012
:1001700020002300260029002C002F00320000015F
:10018000000003010601090100000A0B02090C0D21
:100190000E0807030401000000000000000000003A
:1001A000000000000000000000000000000000004F
:1001B000000000001211100000000000000000000C
:1001C000000000000000000000000000000002012C
:1001D0000210202008081020401020408002010258
:1001E0000108040201010204081020408080402020
:1001F000100804020180040201804020100804025B
:1002000001080402010102040810204080010204D8
:10021000081020408000002200250028002B002E1E
:10022000003100340002010000050108010B010546
:10023000050505070508080808020202020A0A085F
:100240000804040404010101010101010103030385
:100250000303030303040707070C0C0C0C0C0C0C22
:100260000C0202020206060606060606060B0B0B29
:100270000B0B0B0B0B00220D1F1211241FBECFEF17
:10028000D1E2DEBFCDBF00E00CBF12E0A0E0B2E0E3
:10029000EAEAF7E200E00BBF02C007900D92A8382F
:1002A000B107D9F724E0A8E8B2E001C01D92AC3054
:1002B000B207E1F711E0CCE3D1E000E006C02197FE
:1002C0000109802FFE010E948012CB33D10780E00C
:1002D0000807A9F70E94D10D0C94C3130C940000D9
:1002E0000F931F93CF93DF93EC012885222319F1FD
:1002F00009851A852150D9F030E050E040E06FEFD9
:100300007FEF80E090E00E946112F8014C815D81F6
:10031000CF01801B910B8417950760F44081429FA9
:10032000C001439F900D112490833196EFCF30E0B0
:1003300020E0EBCF1886DF91CF911F910F910895A8
:1003400080916D0390916E038230910538F0880F93
:10035000991F880F991F05970197F1F70895AF929C
:10036000BF92CF92DF92EF92FF920F931F93CF93A2
:10037000DF936C017B018B01040F151FEB015E0104
:10038000AE18BF08C017D10759F06991D601ED9199
:10039000FC910190F081E02DC6011995892B79F728
:1003A000C501DF91CF911F910F91FF90EF90DF90EA
:1003B000CF90BF90AF900895FC01538D448D252FB1
:1003C00030E0842F90E0821B930B541710F0CF96EF
:1003D000089501970895FC01918D828D981761F021
:1003E000A28DAE0FBF2FB11D5D968C91928D9F5F38
:1003F0009F73928F90E008958FEF9FEF0895FC0117
:10040000918D828D981731F0828DE80FF11D858DC9
:1004100090E008958FEF9FEF0895FC01918D228D5C
:10042000892F90E0805C9F4F821B91098F739927E1
:1004300008958DEC92E00E940D0221E0892B09F4D1
:1004400020E0822F0895FC01A48DA80FB92FB11DC3
:10045000A35ABF4F2C91848D90E001968F739927FA
:10046000848FA689B7892C93A089B1898C918370D8
:1004700080648C93938D848D981306C00288F389D1
:10048000E02D80818F7D80830895EF92FF920F93FE
:100490001F93CF93DF93EC0181E0888F9B8D8C8D30
:1004A00098131AC0E889F989808185FF15C09FB724
:1004B000F894EE89FF896083E889F98980818370E7
:1004C000806480839FBF81E090E0DF91CF911F9196
:1004D0000F91FF90EF900895F62E0B8D10E00F5FB7
:1004E0001F4F0F731127E02E8C8D8E110CC00FB68D
:1004F00007FCFACFE889F989808185FFF5CFCE0125
:100500000E942302F1CFEB8DEC0FFD2FF11DE35A7A
:10051000FF4FF0829FB7F8940B8FEA89FB898081A7
:100520008062CFCFCF93DF93EC01888D8823B9F021
:10053000AA89BB89E889F9898C9185FD03C08081EE
:1005400086FD0DC00FB607FCF7CF8C9185FFF2CF6B
:10055000808185FFEDCFCE010E942302E9CFDF919C
:10056000CF91089580E090E0892B29F00E94190234
:1005700081110E94000080E090E0892B49F080E02A
:1005800090E0892B29F00E94000081110E94000058
:1005900080E090E0892B49F080E090E0892B29F001
:1005A0000E94000081110E94000080E090E0892BF1
:1005B00049F080E090E0892B29F00E940000811131
:1005C0000C94000008958150823108F05AC0E82F41
:1005D000F0E08827E151FD4F8F4F0C9480120F03FC
:1005E0001303010307030B03410316031C0320033A
:1005F00026032A032E033403380341033C0342033A
:100600004603809180008F778093800008958091C9
:1006100080008F7DF9CF80918000877FF5CF84B5F2
:100620008F7784BD089584B58F7DFBCF8091B00016
:100630008F778093B00008958091B0008F7DF9CFBF
:10064000809190008F778093900008958091900022
:100650008F7DF9CF80919000877FF5CF8091A000AA
:100660008F778093A00008958091A0008F7DF9CFAF
:100670008091A000877FF5CF809120018F778093B4
:1006800020010895809120018F7DF9CF8091200174
:10069000877FF5CFCF93DF93282F30E0F901E8571C
:1006A000FE4F8491F901E153FE4FD491F901E15DD0
:1006B000FD4FC491CC23A1F081110E94E302EC2FE5
:1006C000F0E0EE0FFF1FE259FE4FA591B491EC91BF
:1006D000ED2381E090E009F480E0DF91CF9108956F
:1006E00080E090E0FACF0F931F93CF93DF9381E0E8
:1006F0008093980209E112E0D0E0C0E0F801819116
:100700008F010E944A03FE01E756FD4F8083219628
:10071000CF30D10599F7DF91CF911F910F910895B7
:100720001F93CF93DF93282F30E0F901E857FE4F56
:100730008491F901E153FE4FD491F901E15DFD4F40
:10074000C491CC23A9F0162F81110E94E302EC2F53
:10075000F0E0EE0FFF1FEB5EFD4FA591B4918FB758
:10076000F894EC91111108C0D095DE23DC938FBF73
:10077000DF91CF911F910895DE2BF8CFCF93DF93B8
:1007800090E0FC01E153FE4F2491815D9D4FFC01FF
:1007900084918823C9F090E0880F991FFC01EC5ADE
:1007A000FE4FA591B491FC01EB5EFD4FC591D49134
:1007B00061110DC09FB7F8948C91209582238C9382
:1007C0008881282328839FBFDF91CF9108956230CD
:1007D00051F49FB7F8943C91822F809583238C939A
:1007E000E8812E2BEFCF8FB7F894EC912E2B2C9322
:1007F0008FBFEACFCF93DF93CAE6D3E061E0898170
:100800000E94BE030E94A00160E088810E94BE0396
:100810000E94A00160E089810E94BE03DF91CF9118
:100820000C94A0010F931F93CF93DF93D82FC8E0B0
:1008300061E080916A030E94BE030E94A0010D2F17
:1008400010E060E0D0FF61E080916B030E94BE0386
:100850000E94A00160E080916A030E94BE030E9492
:10086000A00115950795D02FC15011F761E0809137
:100870006A030E94BE0360E080916B030E94BE0386
:100880000E94A00160E080916A030E94BE030E9462
:10089000A00180916B030E944A03C82F811105C0FB
:1008A00061E080916B030E94BE030E94A00161E0A1
:1008B00080916A030E94BE030E94A00181E0C111E1
:1008C00001C080E0DF91CF911F910F91089561E009
:1008D00080916B030E94BE030C94A001EF92FF92E3
:1008E0000F931F93CF93DF93182FE92E062FC42F5A
:1008F0000E94670480E40E9412040E94FA030E948E
:10090000670480EC8C0F0E941204F12EC12FDE2DA3
:1009100089910E9412048C2F8F198017C8F30E94AE
:10092000FA030E94670480916C038F7080580E94C4
:100930001204DF91CF911F910F91FF90EF900C94D3
:10094000FA038F929F92AF92BF92CF92DF92EF9273
:10095000FF920F931F93CF938C01809112028331EA
:1009600079F08F3F09F44FC0CF911F910F91FF9005
:10097000EF90DF90CF90BF90AF909F908F900895B1
:10098000EEECF1E0C491C7FDEFCF61E083E10E949E
:10099000BE034801B12CA12CCC23F1F0980150E00A
:1009A00040E0C23009F003C148015A0160E970ED2E
:1009B00083E090E00E94611269017A0181E0C81A27
:1009C000D108E108F10893E08FEFC816D104E104E3
:1009D000F10409F00CF4A0C168E478EE81E090E045
:1009E000A50194010E94611269017A0181E0C81A8F
:1009F000D108E108F10894E0C1118EC185B5887F66
:100A0000836085BDE9C083E180931202EEECF1E0E2
:100A1000C4918C2FCF3F09F4A7CFC23009F468C02E
:100A200060F4CC2379F1C13009F444C087FD9CCF38
:100A300061E083E10E94BE03B1CFC43009F499C0E4
:100A400008F478C0C53091F710922001109221016E
:100A50008091210188608093210180912101816032
:100A600080932101E2E4F2E0E491F0E0EE0FFF1F59
:100A7000EB5EFD4F85919491E2EEF1E0E491E0931D
:100A8000AD0283CF14BC15BC84B5826084BD85B52E
:100A9000816085BDE2E4F2E0E491F0E0EE0FFF1F3B
:100AA000EB5EFD4F85919491E2EEF1E0E491E093ED
:100AB000B4026BCF1092800010928100809181006F
:100AC00088608093810080918100816080938100A3
:100AD000E2E4F2E0E491F0E0EE0FFF1FEB5EFD4F89
:100AE00085919491E2EEF1E0E491E093B3024DCF71
:100AF0001092B0001092B1008091B000826080939B
:100B0000B0008091B10081608093B100E2E4F2E036
:100B1000E491F0E0EE0FFF1FEB5EFD4F85919491A5
:100B20009093B2028093B102E2EEF1E0E491E0939F
:100B3000B0022BCF10929000109291008091910002
:100B400088608093910080919100816080939100F2
:100B5000E2E4F2E0E491F0E0EE0FFF1FEB5EFD4F08
:100B600085919491E2EEF1E0E491E093AF02C3E06D
:100B70000CCF1092A0001092A1008091A10088607B
:100B80008093A1008091A10081608093A100E2E4A4
:100B9000F2E0E491F0E0EE0FFF1FEB5EFD4F859178
:100BA0009491E2EEF1E0E491E093AE02EECE60E0EB
:100BB00072E18AE790E00E94611269017A0181E0A6
:100BC000C81AD108E108F108C13079F58091810097
:100BD000887F8160809381009801220F331FA4E6F3
:100BE000B0E00E94881228EE33E040E050E00E941E
:100BF0003F12C23009F45CC09CF5CC2309F449C013
:100C0000C13009F0B1CED0928900C0928800209303
:100C1000C5023093C6024093C7025093C802809128
:100C20006F00826080936F009FCEC33039F4809153
:100C30009100887F816080939100CECFC43039F4D9
:100C40008091A100887F81608093A100C5CFC530CD
:100C500019F680912101887F816080932101BCCFAA
:100C6000C43009F447C0A4F1C53009F07DCED0925C
:100C70002901C09228012093B5023093B602409317
:100C8000B7025093B8028091730082608093730022
:100C90006BCEC7BC2093C9023093CA024093CB02EB
:100CA0005093CC0280916E00826080936E005CCE87
:100CB000C092B3002093C1023093C2024093C3029A
:100CC0005093C402809170008260809370004CCE7B
:100CD000D0929900C09298002093BD023093BE023A
:100CE0004093BF025093C002809171008260809354
:100CF00071003ACED092A900C092A8002093B90208
:100D00003093BA024093BB025093BC0280917200B0
:100D100082608093720028CE8091B100887F892BF9
:100D20008093B10059CF3FB7F89480918E02909193
:100D30008F02A0919002B091910226B5A89B05C0A8
:100D40002F3F19F00196A11DB11D3FBFBA2FA92F4A
:100D5000982F8827BC01CD01620F711D811D911D47
:100D600042E0660F771F881F991F4A95D1F70895B3
:100D70002FB7F89460918A0270918B0280918C0257
:100D800090918D022FBF08950895CF92DF92EF9238
:100D9000FF92CF93DF93FC01CA01AA27BB27C32E82
:100DA000D42EE52EFF244C2D3085332371F0C32F34
:100DB000D0E0C89FA001C99F500DD89F500D1124AD
:100DC000852F3C9D600111244D2DA68521853285FE
:100DD0009385A9131DC0DB01AA0FBB1F6A0F7B1FE0
:100DE000620F731FA385A60FB72FB11D8C93A48527
:100DF000A60FB72FB11D4C938585680F711DFB01A0
:100E00001082DF91CF91FF90EF90DF90CF90089507
:100E1000660F771F660F771F620F731FA60FB72F1E
:100E2000B11D1C92DFCFCF92DF92EF92FF920F9312
:100E30001F93CF93DF9300D000D000D0CDB7DEB7A3
:100E40008C01DC0119968D919C91892B09F465C068
:100E50000E949306F801C784D088E188F2886C1953
:100E60007D098E099F096C3271408105910580F3DF
:100E7000F894D80114968D919C9115979A83898343
:100E80001996ED91FC917F01BFEFEB1AFB0A80816F
:100E90008987F80190810388F489E02DD80155965F
:100EA0008C91992309F448C09081982B9887908160
:100EB000809589238F838F818C8388E08B835885ED
:100EC0006F8149853B812C8189819A81D70150832B
:100ED00047FD252F3A952083262F39F0441F00C067
:100EE00000006083000000C0F2CF38E04D916083C5
:100EF0000000019761F7D8015496FC93EE93539745
:100F000049873B832C839A83898378940E94930634
:100F1000F8016787708B818B928B29960FB6F894B6
:100F2000DEBF0FBECDBFDF91CF911F910F91FF901C
:100F3000EF90DF90CF9008959081982B98879081C3
:100F4000809589238F838F818E8388E08D83588558
:100F50006F8149853D812E8189819A81D701508396
:100F600047FD252F00C000C0208300C000C000C086
:100F700000C000C060830000262F3A9541F0441F56
:100F8000000000C000C000C000C000C0E8CF38E0D2
:100F90004D9100C0608300C0019709F7D8015496B5
:100FA000FC93EE93539749873D832E83ACCFCF9329
:100FB000DF93EC018E819F8197FD07C061E00E9465
:100FC000BE0360E08E810E94900381E08983DF91FF
:100FD000CF910895CF93DF93EC018E85882349F05C
:100FE0000E94B806688379838A839B83DF91CF91BF
:100FF00008950E949306F6CFCF92DF92EF92FF9270
:101000000F931F93CF93DF93EC01898182FD13C06F
:1010100085FD11C08A810E944A03398131FB222754
:1010200020F933FB332730F9232731E0892B09F0EE
:1010300030E02327298B0E94B806AB01BC019989B7
:101040002A898881992309F46BC0211169C080FD28
:101050004EC0816088834D875E876F87788B8A89D1
:10106000882319F1992309F18D819E81B0E0A0E0D8
:101070000D851E852F8538896A017B01C01AD10A2A
:10108000E20AF30A97018601081719072A073B07A6
:1010900060F0888181FD09C01B861C868A648F7779
:1010A00088834D875E876F87788B8D859E85AF851A
:1010B000B889481B590B6A0B7B0B8F819885B0E070
:1010C000A0E0481759076A077B0740F08B85882303
:1010D00029F08C871B86888184608883DF91CF917B
:1010E0001F910F91FF90EF90DF90CF9008950D85A5
:1010F0001E852F8538896A017B01C01AD10AE20A50
:10110000F30A0B811C8130E020E0C016D106E20614
:10111000F30658F221E02A8B8062806888839FCF93
:101120008E7F888391119BCF222309F4BECF1A8A28
:1011300081FD03C08B858F5F8B8788818D7F4D8775
:101140005E876F87788B80618F7B888387FFADCFC9
:101150008F77888389818160898381CFCF93DF9363
:10116000EC01898184FF03C0CE010E94FC079881B5
:1011700092FB882780F992FF05C02C85223029F444
:101180009B7F9883DF91CF91089580E0FBCFCF9331
:10119000DF93EC01898184FF03C0CE010E94FC072C
:1011A000988192FB882780F992FF05C02C85213019
:1011B00029F49B7F9883DF91CF91089580E0FBCF46
:1011C00084EF91E00C94A104DF92EF92FF920F93D1
:1011D0001F93CF93DF9300D01F92CDB7DEB7D62EEB
:1011E000262F30E0B90161507109009701F599810E
:1011F00080E0861717061CF48F5F90E0FACF998382
:101200006C0F7D1F8FE3DB0111968C936D2DCE014A
:1012100001960E946E040F900F900F900F90DF9137
:10122000CF911F910F91FF90EF90DF900895FC01F7
:101230008E010F5F1F4F200F311F8AE0E82EF12C27
:10124000CF01B7010E942B1221503109009769F498
:10125000309759F4D9011C92CF01B7010E942B128B
:10126000FB010217130761F7D1CF815C9D4FDC01B1
:101270008C91D9018C93F0CFFF920F931F93CF9352
:10128000DF9300D01F92CDB7DEB76CE370E00E9411
:101290002B12262F182F092F6623D9F010928802BF
:1012A00040E062E0822F972F0E94E40889E08117D6
:1012B00010F542E062E0812F902F0E94E4080F9029
:1012C0000F900F900F90DF91CF911F910F91FF9092
:1012D0000895809188028111ECCF19821A821B82B5
:1012E0001C8240E064E0CE0101960E946E0481E021
:1012F00080938802DECF42E061E090E080E00E94CF
:10130000E40843E061E0D7CFFC014481558170E0FF
:1013100060E0818592850C94BC13CF92DF92EF92AE
:10132000FF920F931F93CF93DF938C016A017B0190
:1013300084ED93E00E9484098EEB93E00E9484097F
:1013400088EA93E00E9484090115110589F1D0E033
:10135000C0E0C017D10761F18091D6039091D70307
:10136000C817D90738F4A7019601BE0184ED93E0B0
:101370000E94C5068091C0039091C103C817D90788
:1013800038F4A7019601BE018EEB93E00E94C506DA
:101390008091AA039091AB03C817D90738F4A7012D
:1013A0009601BE0188EA93E00E94C5062196D1CF3E
:1013B00084ED93E00E9413078EEB93E00E941307E5
:1013C00088EA93E0DF91CF911F910F91FF90EF900A
:1013D000DF90CF900C941307FC0101900020E9F7F7
:1013E0003197AF01481B590BBC018DEC92E00C9476
:1013F000AF01CF93DF930E94EC09EC0181E692E00C
:101400000E94EC098C0F9D1FDF91CF9108951F92D0
:101410000F920FB60F9211240BB60F922F933F939A
:101420004F935F936F937F938F939F93AF93BF93EC
:10143000EF93FF938091C1029091C202A091C302E9
:10144000B091C402892B8A2B8B2BE1F19091B002D1
:10145000E091B102F091B20280818927808380916E
:10146000C1029091C202A091C302B091C4021816A9
:1014700019061A061B069CF48091C1029091C202C3
:10148000A091C302B091C4020197A109B109809350
:10149000C1029093C202A093C302B093C402FF9111
:1014A000EF91BF91AF919F918F917F916F915F91DC
:1014B0004F913F912F910F900BBE0F900FBE0F9049
:1014C0001F90189580911202EEECF1E0E4919FEFED
:1014D00090931202E230E9F040F4EE2389F0E1301B
:1014E00091F060E00E949003DACFE43049F110F10E
:1014F000E530B9F7909173009D7F90937300F1CF21
:1015000010926E00EECF90916F009D7F90936F00D0
:10151000E8CF909170009D7F9093700091E0909340
:10152000B0009091B100987F94609093B1001092B8
:10153000B300D7CF909171009D7F90937100D1CF70
:10154000909172009D7F90937200CBCF1F920F926B
:101550000FB60F9211240BB60F922F933F934F9318
:101560005F936F937F938F939F93AF93BF93EF930B
:10157000FF938DEC92E00E942302FF91EF91BF91C7
:10158000AF919F918F917F916F915F914F913F911B
:101590002F910F900BBE0F900FBE0F901F901895BC
:1015A0001F920F920FB60F9211240BB60F922F932A
:1015B0008F939F93EF93FF93E091DD02F091DE0212
:1015C0008081E091E302F091E40282FD1DC09081F0
:1015D0008091E6028F5F8F732091E702821741F0BE
:1015E000E091E602F0E0E353FD4F958F8093E60231
:1015F000FF91EF919F918F912F910F900BBE0F90C4
:101600000FBE0F901F9018958081F2CF1F920F92FE
:101610000FB60F9211242F933F938F939F93AF9305
:10162000BF9380918A0290918B02A0918C02B0911D
:101630008D023091890223E0230F2D3758F5019652
:10164000A11DB11D2093890280938A0290938B0281
:10165000A0938C02B0938D0280918E0290918F02A4
:10166000A0919002B09191020196A11DB11D8093AD
:101670008E0290938F02A0939002B0939102BF913B
:10168000AF919F918F913F912F910F900FBE0F902F
:101690001F90189526E8230F0296A11DB11DD2CFE9
:1016A0001F920F920FB60F9211240BB60F922F9329
:1016B0003F934F935F936F937F938F939F93AF93DA
:1016C000BF93EF93FF93E0910E02F0910F021995F3
:1016D000FF91EF91BF91AF919F918F917F916F910A
:1016E0005F914F913F912F910F900BBE0F900FBEC6
:1016F0000F901F9018951F920F920FB60F92112402
:101700000BB60F922F933F934F935F936F937F93FB
:101710008F939F93AF93BF93EF93FF93E0910C024E
:10172000F0910D021995FF91EF91BF91AF919F91AB
:101730008F917F916F915F914F913F912F910F907A
:101740000BBE0F900FBE0F901F9018951F920F9217
:101750000FB60F9211240BB60F922F933F934F9316
:101760005F936F937F938F939F93AF93BF93EF9309
:10177000FF93E0910202F09103021995FF91EF911E
:10178000BF91AF919F918F917F916F915F914F9199
:101790003F912F910F900BBE0F900FBE0F901F9097
:1017A00018951F920F920FB60F9211240BB60F923D
:1017B0002F933F934F935F936F937F938F939F9359
:1017C000AF93BF93EF93FF93E0910002F09101027A
:1017D0001995FF91EF91BF91AF919F918F917F915B
:1017E0006F915F914F913F912F910F900BBE0F9092
:1017F0000FBE0F901F9018951F920F920FB60F9269
:1018000011240BB60F922F933F934F935F936F93D7
:101810007F938F939F93AF93BF93EF93FF93E09149
:101820000A02F0910B021995FF91EF91BF91AF91D0
:101830009F918F917F916F915F914F913F912F91E8
:101840000F900BBE0F900FBE0F901F9018951F9218
:101850000F920FB60F9211240BB60F922F933F9356
:101860004F935F936F937F938F939F93AF93BF93A8
:10187000EF93FF93E0910802F09109021995FF910F
:10188000EF91BF91AF919F918F917F916F915F91F8
:101890004F913F912F910F900BBE0F900FBE0F9065
:1018A0001F9018951F920F920FB60F9211240BB62E
:1018B0000F922F933F934F935F936F937F938F93E9
:1018C0009F93AF93BF93EF93FF93E0910602F09144
:1018D00007021995FF91EF91BF91AF919F918F9161
:1018E0007F916F915F914F913F912F910F900BBE20
:1018F0000F900FBE0F901F9018951F920F920FB66A
:101900000F9211240BB60F922F933F934F935F9337
:101910006F937F938F939F93AF93BF93EF93FF93B7
:10192000E0910402F09105021995FF91EF91BF91AA
:10193000AF919F918F917F916F915F914F913F9167
:101940002F910F900BBE0F900FBE0F901F90189508
:10195000CF93DF93EC01862F2CE330E03C832B8385
:1019600024EF31E03E832D832CE231E038872F8352
:1019700020E931E03A8729871B861C861D861E8652
:101980001F86188A198A1A8A6A8399819F7D977F90
:10199000998362E00E94BE0389818B7E8D7F89835B
:1019A000DF91CF9108950F931F93CF93DF93EC01B5
:1019B0008B01198218861F86188A198A1A8A81E073
:1019C0008E878B871C8692E09D8788838AE590E0CE
:1019D0009D838C830E9497129A878987009769F16B
:1019E0002AE5FC0111922A95E9F78EE190E09B83AC
:1019F0008A831F830E838981882341F061E0802FD1
:101A00000E94BE0360E0802F0E949003F801E15D18
:101A1000FD4FE491F0E0EE0FFF1FEB5EFD4F85916F
:101A200094919C8B8B8BF801E153FE4FE491ED8BED
:101A3000DF91CF911F910F9108951D821C821B820F
:101A40001A82D7CFCF92DF92EF92FF921F93CF935C
:101A5000DF93EDECF2E01382128288EE93E0A0E0D7
:101A6000B0E084839583A683B78383E592E0918376
:101A7000808385EC90E09587848784EC90E097875D
:101A8000868780EC90E0918B808B81EC90E0938B4B
:101A9000828B82EC90E0958B848B86EC90E0978B28
:101AA000868B118E128E138E148EC9EFD3E018829E
:101AB00019821A821B82188619861A861B8611E0E3
:101AC0001C871E8788EB9BE0A0E0B0E08C839D83A1
:101AD000AE83BF831D87CE010E94EA071E87CAEE30
:101AE000D3E0188219821A821B821C821D821E82F8
:101AF0001F82188619861A861B861C871D861E87DC
:101B00000E94B806C880D980EA80FB806C197D09E4
:101B10008E099F09688779878A879B871E8765E07A
:101B200070E084ED93E00E94D30C63E070E08EEBF4
:101B300093E00E94D30C64E070E088EA93E00E9496
:101B4000D30C6FE085E993E00E94A80C60E182E885
:101B500093E00E94A80C61E18FE693E00E94A80C3C
:101B6000CAE6D3E084E3888385E3898384E690E052
:101B70009C838B8360E084E30E94BE0360E08981E4
:101B80000E94BE0360E088810E94900360E089812A
:101B9000DF91CF911F91FF90EF90DF90CF900C9449
:101BA0009003CF93DF93CDB7DEB7A5970FB6F89428
:101BB000DEBF0FBECDBF789484B5826084BD84B58E
:101BC000816084BD85B5826085BD85B5816085BD38
:101BD00080916E00816080936E00109281008091F0
:101BE0008100826080938100809181008160809378
:101BF0008100809180008160809380008091B1009D
:101C000084608093B1008091B00081608093B000C7
:101C10008091910082608093910080919100816019
:101C200080939100809190008160809390008091DA
:101C3000A10082608093A1008091A10081608093C7
:101C4000A1008091A00081608093A000809121017B
:101C50008260809321018091210181608093210124
:101C60008091200181608093200180917A008460BE
:101C700080937A0080917A00826080937A008091CC
:101C80007A00816080937A0080917A0080688093E6
:101C90007A001092C10090E080E011E0FC01E7566C
:101CA000FD4F108301968F309105C1F761E086E109
:101CB0000E94BE0361E087E10E94BE0361E088E10B
:101CC0000E94BE0361E089E10E94BE0361E08AE1F7
:101CD0000E94BE0361E08BE10E94BE0361E08CE1E3
:101CE0000E94BE0361E08DE10E94BE0361E08EE1CF
:101CF0000E94BE0361E08FE10E94BE0361E080E2CA
:101D00000E94BE0361E081E20E94BE0361E082E2C4
:101D10000E94BE0361E083E20E94BE0361E084E2B0
:101D20000E94BE0362E085E20E94BE0362E086E29A
:101D30000E94BE0362E087E20E94BE0362E088E286
:101D40000E94BE0362E089E20E94BE0362E08AE272
:101D50000E94BE0362E08BE20E94BE0362E08CE25E
:101D60000E94BE0362E08DE20E94BE0362E08EE24A
:101D70000E94BE0362E08FE20E94BE0362E080E345
:101D80000E94BE0362E081E30E94BE0362E082E340
:101D90000E94BE0362E083E30E94BE0361E086E02E
:101DA0000E94BE0361E087E00E94BE0361E088E01C
:101DB0000E94BE0361E089E00E94BE0361E08AE008
:101DC0000E94BE0361E08BE00E94BE0361E08CE0F4
:101DD0000E94BE0361E08DE00E94BE0361E085E0E9
:101DE0000E94BE0361E083E00E94BE0361E084E0E4
:101DF0000E94BE038FE080936C0319821A821B82BB
:101E00001C8240E064E0CE0101960E946E0461E015
:101E100083E10E94BE03E091DD02F091DE0282E0E8
:101E20008083E091D902F091DA021082E091DB0226
:101E3000F091DC028FEC80831092E502E091E102E8
:101E4000F091E20286E08083E091DF02F091E0020F
:101E5000808180618083E091DF02F091E0028081E7
:101E600088608083E091DF02F091E00280818068E9
:101E70008083E091DF02F091E00280818F7D80839A
:101E800084ED93E00E94D70784ED93E00E947001F7
:101E900084ED93E00E94840984ED93E00E9413078F
:101EA0008EEB93E00E94D7078EEB93E00E947001C7
:101EB0008EEB93E00E9484098EEB93E00E9413075F
:101EC00088EA93E00E94D70788EA93E00E947001B5
:101ED00088EA93E00E94840988EA93E00E9413074D
:101EE00060E082E00E94BE0383E793E090930702E4
:101EF00080930602809169008C6080936900E99A62
:101F00000E94B8068CED95E0A0E0B0E08093EE036F
:101F10009093EF03A093F003B093F1031093F603B3
:101F20001093F7038AEE93E00E94EA071092F603FB
:101F300084E090E0909311028093100242E0342EEE
:101F40005CE3252E6AE0462E512C612C712C85E92C
:101F500093E00E94FC0782E893E00E94FC078FE672
:101F600093E00E94FC0782E893E00E94C708882360
:101F7000C9F08091AC028F5F8093AC021092AB02EB
:101F80001092AA021092A9021092A80208E212E08E
:101F900060E0D8018D918D010E949003B2E0003382
:101FA0001B07B1F78FE693E00E94AE08882361F02B
:101FB00084EF91E00E94A10488EE93E00E94A104C6
:101FC0008CED95E00E94A1048091700384FF04C011
:101FD0008FE693E00E94FC0780916F0382FF13C09D
:101FE00090917B03933079F48B7F80936F038CED1A
:101FF00095E00E94A10488EE93E00E94A10484EF82
:1020000091E00E94A10480910604882309F46BC02A
:1020100080910704882309F475C00E94B806C09017
:10202000F903D090FA03E090FB03F090FC03CAA2FE
:10203000DBA2ECA2FDA20091FD031091FE03209112
:10204000FF03309100044B015C018C189D08AE0821
:10205000BF0880169106A206B30608F444C0E091BA
:102060000504EE2309F464C0AB01BC01401B510B15
:10207000620B730B8AA19BA1ACA1BDA1800F911F24
:10208000A21FB31F8AA39BA3ACA3BDA38017910774
:10209000A207B307D0F58093F9039093FA03A093B6
:1020A000FB03B093FC0300E312E060E0D8018D91E4
:1020B0008D010E949003B2E00F331B07B1F710E0CF
:1020C00000E0F801E756FD4F8081811107C061E013
:1020D000F801E05DFD4F80810E9490030F5F1F4F6C
:1020E0000F30110571F71091AC02113009F439C1AC
:1020F00010F1123009F454C1133009F471C1109277
:10210000AC02F6C00E9493068ACFCAA0DBA0ECA066
:10211000FDA0C416D506E606F70608F4ABCFC092BC
:10212000F903D092FA03E092FB03F092FC03BBCFD9
:1021300010920604B8CF8091AA0281110EC061E00E
:1021400087E00E94900361E088E00E949003E4E051
:10215000E093970281E08093AA028FE693E00E94C9
:10216000C708882319F0F3E0F093970285E993E01C
:102170000E94C708882321F084E692E00E94F909B2
:1021800082E893E00E94AE08882389F00E94E0086C
:102190002092960281E0809397020E94B806609395
:1021A000920270939302809394029093950280918F
:1021B0009702813009F040C00E94B8060091920257
:1021C000109193022091940230919502601B710B43
:1021D000820B930B683E73408105910508F470C033
:1021E0000E94B806609392027093930280939402C7
:1021F00090939502F09096020F2D10E0C8010E9476
:102200003C09C801880F991F60911002709111025A
:102210000E942B12CB0140E05FEF60E070E00E9473
:102220008D098FEF8F0D809396028B3008F048C098
:102230000E94E0083092970280919702823009F064
:102240003FC00E94B8060091920210919302209123
:10225000940230919502601B710B820B930B683EC8
:1022600073408105910508F443C00E94B80660934D
:102270009202709393028093940290939502F0904F
:1022800096020F2D10E0C8010E943C09C801880F7A
:10229000991F60911002709111020E942B12CB01C4
:1022A00040E05FEF6FEF70E00E948D09FA94F092CA
:1022B0009602F1101DC00E94E00843E0409397028F
:1022C000809197028330A1F454E0509397021982D1
:1022D0001A821B821C8240E064E0CE0101960E94BB
:1022E0006E0440E050E0BA0190E080E00E948D0969
:1022F0008FE693E00E94AE08882359F110E000E0D9
:10230000F801E756FD4F208130E050E040E019A28F
:102310007E0181E2E80EF11CCA01B901A30192011C
:102320000E943F12605DD7016E937D01211531053A
:102330004105510589F7109719F0CD010E94EC096C
:1023400081E692E00E94EC090F5F1F4F0F301105EC
:10235000B9F6809198028111109298020E94B202FF
:10236000F6CD8091AB028111C3CF88E692E00E9446
:10237000F90961E086E00E94900361E087E00E9435
:10238000900361E08CE00E94900361E08AE00E948B
:10239000900361E089E00E9490031093AB02A8CF04
:1023A0008091A9028111A4CF83E792E00E94F909EC
:1023B00061E086E00E94900361E087E00E94900364
:1023C00061E08CE00E94900361E088E00E9490034D
:1023D00061E089E00E94900381E08093A90288CFA8
:1023E0008091A802811184CF8CE792E00E94F909C4
:1023F00061E08BE00E94900361E087E00E9490031F
:1024000061E08CE00E94900361E088E00E9490030C
:1024100081E08093A8026CCFCF93DF93EC01898594
:102420009A850E9433138E819F8197FD05C060E0DD
:10243000DF91CF910C94BE03DF91CF91089588EA8C
:1024400093E00E940C128EEB93E00E940C1284ED3C
:1024500093E00C940C12AA1BBB1B51E107C0AA1FEE
:10246000BB1FA617B70710F0A61BB70B881F991F35
:102470005A95A9F780959095BC01CD010895A1E2E8
:102480001A2EAA1BBB1BFD010DC0AA1FBB1FEE1FEE
:10249000FF1FA217B307E407F50720F0A21BB30B39
:1024A000E40BF50B661F771F881F991F1A9469F7B5
:1024B00060957095809590959B01AC01BD01CF0111
:1024C0000895052E97FB1EF400940E94781257FD84
:1024D00007D00E943F1207FC03D04EF40C947812F0
:1024E00050954095309521953F4F4F4F5F4F089540
:1024F00090958095709561957F4F8F4F9F4F089570
:10250000EE0FFF1F881F8BBF0790F691E02D1994E7
:10251000A29FB001B39FC001A39F700D811D112424
:10252000911DB29F700D811D1124911D08950F936F
:102530001F93CF93DF938230910510F482E090E0F7
:10254000E0910A04F0910B0430E020E0B0E0A0E05C
:10255000309799F42115310509F44AC0281B390B2D
:1025600024303105D8F58A819B816115710589F187
:10257000FB0193838283FE0111C04081518102815E
:10258000138148175907E0F04817590799F4109735
:1025900061F012960C93129713961C933296CF010A
:1025A000DF91CF911F910F91089500930A0410932A
:1025B0000B04F4CF2115310551F04217530738F0C1
:1025C000A901DB019A01BD01DF01F801C1CFEF01D3
:1025D000F9CF90930B0480930A04CDCFFE01E20F54
:1025E000F31F819391932250310939832883D7CFE8
:1025F0002091080430910904232B41F42091150205
:10260000309116023093090420930804209113029C
:10261000309114022115310541F42DB73EB7409198
:10262000170250911802241B350BE0910804F09119
:102630000904E217F307A0F42E1B3F0B28173907F4
:1026400078F0AC014E5F5F4F2417350748F04E0F0E
:102650005F1F5093090440930804819391939FCF87
:10266000F0E0E0E09CCFCF93DF930097E9F0FC012E
:10267000329713821282A0910A04B0910B04ED01EB
:1026800030E020E01097A1F420813181820F931F68
:1026900020910804309109042817390709F061C016
:1026A000F0930904E0930804DF91CF910895EA01C3
:1026B000CE17DF07E8F54A815B819E014115510580
:1026C000B1F7E901FB83EA8349915991C40FD51F02
:1026D000EC17FD0761F4808191810296840F951FAC
:1026E000E90199838883828193819B838A83F0E0C7
:1026F000E0E012968D919C9113970097B9F52D917A
:102700003C911197CD010296820F931F20910804EE
:10271000309109042817390739F6309751F510928E
:102720000B0410920A04B0930904A0930804BCCFD0
:10273000D383C28340815181840F951FC817D90765
:1027400061F44E5F5F4F88819981480F591F518313
:1027500040838A819B81938382832115310509F00F
:10276000B0CFF0930B04E0930A049ECFFD01DC018F
:10277000C0CF13821282D7CFDC0101C06D934150CC
:102780005040E0F7089511E0CCE3D1E000E006C04E
:10279000802FFE010E9480122196011DCD33D107AA
:1027A00080E00807A9F7F894FFCFC406C406C40662
:1027B000C406C406C406C406C4060200FF00000C1A
:1027C00004800025262728292A2B2C2D2E2F303156
:1027D0003233060708090A0B0C0D161718191A1BB5
:1027E0001C1D1E1F20212223243F065B4F666D7D8A
:1027F000077F6F777C395E7971000000004502AF7A
:1028000001DC0192020D02EB01FF010D0A004347BA
:102810004B00425241494E5F52494E4700575F4B71
:10282000494C4C45520053564F59415F47414D4525
:022830000000A6
:10E000000D9489F10D94B2F10D94B2F10D94B2F129
:10E010000D94B2F10D94B2F10D94B2F10D94B2F1F0
:10E020000D94B2F10D94B2F10D94B2F10D94B2F1E0
:10E030000D94B2F10D94B2F10D94B2F10D94B2F1D0
:10E040000D94B2F10D94B2F10D94B2F10D94B2F1C0
:10E050000D94B2F10D94B2F10D94B2F10D94B2F1B0
:10E060000D94B2F10D94B2F10D94B2F10D94B2F1A0
:10E070000D94B2F10D94B2F10D94B2F10D94B2F190
:10E080000D94B2F10D94B2F10D94B2F10D94B2F180
:10E090000D94B2F10D94B2F10D94B2F10D94B2F170
:10E0A0000D94B2F10D94B2F10D94B2F10D94B2F160
:10E0B0000D94B2F10D94B2F10D94B2F10D94B2F150
:10E0C0000D94B2F10D94B2F10D94B2F10D94B2F140
:10E0D0000D94B2F10D94B2F10D94B2F10D94B2F130
:10E0E0000D94B2F141546D656761323536300041AF
:10E0F000726475696E6F206578706C6F72657220DE
:10E1000073746B3530305632206279204D4C530099
:10E11000426F6F746C6F616465723E004875683F52
:10E1200000436F6D70696C6564206F6E203D200048
:10E130004350552054797065202020203D20005FF9
:10E140005F4156525F415243485F5F3D2000415658
:10E1500052204C696243205665723D20004743437C
:10E160002056657273696F6E203D20004350552024
:10E1700049442020202020203D20004C6F7720663D
:10E18000757365202020203D20004869676820665F
:10E190007573652020203D200045787420667573D6
:10E1A00065202020203D20004C6F636B2066757336
:10E1B000652020203D20004D617220203720323024
:10E1C000313300312E362E3800342E332E350056A2
:10E1D00023202020414444522020206F7020636F70
:10E1E00064652020202020696E73747275637469E1
:10E1F0006F6E2061646472202020496E74657272B3
:10E20000757074006E6F20766563746F7200726A49
:10E210006D702020006A6D70200057686174207056
:10E220006F72743A00506F7274206E6F7420737541
:10E2300070706F72746564004D7573742062652030
:10E2400061206C6574746572002000577269747483
:10E25000696E672045450052656164696E672045B7
:10E26000450045452065727220636E743D00504F35
:10E27000525400303D5A65726F2061646472003FF1
:10E280003D43505520737461747300403D454550C3
:10E29000524F4D207465737400423D426C696E6B41
:10E2A000204C454400453D44756D70204545505215
:10E2B0004F4D00463D44756D7020464C415348001B
:10E2C000483D48656C70004C3D4C69737420492F83
:10E2D0004F20506F72747300513D51756974005234
:10E2E0003D44756D702052414D00563D73686F7707
:10E2F00020696E7465727275707420566563746FF0
:10E30000727300593D506F727420626C696E6B00BD
:10E310002A0011241FBECFEFD1E2DEBFCDBF01E046
:10E320000CBF12E0A0E0B2E0EEE1FDEF03E00BBFB6
:10E3300002C007900D92A030B107D9F712E0A0E01B
:10E34000B2E001C01D92AE30B107E1F70F9460F367
:10E350000D948DFE01E20EBF0FEF0DBF11241FBE05
:10E360000D9460F30D9400F020E030E040ED57E0B4
:10E3700005C0FA013197F1F72F5F3F4F2817390792
:10E38000C0F308959C01260F311DC901A0E0B0E043
:10E390002F5F3F4FABBFFC018791882361F08093D3
:10E3A000C6008091C00086FFFCCF8091C0008064D1
:10E3B0008093C000EACF08958DE08093C6008091DD
:10E3C000C00086FFFCCF8091C00080648093C000B5
:10E3D0008AE08093C6008091C00086FFFCCF8091C8
:10E3E000C00080648093C00008950F94C2F10F9420
:10E3F000DCF10895FC019081992359F09093C600B7
:10E400008091C00086FFFCCF8091C0008064809323
:10E41000C0003196992379F70895282F982F929567
:10E420009F70892F805D8A3308F0895F8093C600D2
:10E430008091C00086FFFCCF8091C00080648093F3
:10E44000C000822F8F70982F905D9A3308F0995FEB
:10E450009093C6008091C00086FFFCCF8091C000E1
:10E4600080648093C00008959C01FB01853691056E
:10E470001CF46330710594F0C90164E670E00F94F8
:10E480002EFE605D7F4F6093C6008091C00086FFC6
:10E49000FCCF8091C00080648093C0002B30310598
:10E4A00014F43297B4F0C90164E670E00F942EFEC4
:10E4B0006AE070E00F942EFE605D7F4F6093C600AF
:10E4C0008091C00086FFFCCF8091C0008064809363
:10E4D000C000C9016AE070E00F942EFEC0968093E0
:10E4E000C6008091C00086FFFCCF8091C000806490
:10E4F0008093C00008951F93182F8EE692EE60E07F
:10E500000F94C2F11093C6008091C00086FFFCCF2B
:10E510008091C00080648093C0000F94DCF11F9153
:10E5200008952F923F924F925F926F927F928F92B7
:10E530009F92AF92BF92CF92DF92EF92FF920F9392
:10E540001F93DF93CF93CDB7DEB762970FB6F894E2
:10E55000DEBF0FBECDBF382E622ECA01DB015C01CB
:10E560006D01772420E2222E2E010894411C511CBB
:10E570008BC081E0A81680E0B80681E0C80680E084
:10E58000D80628F0C601AA27BB270F940DF2BB2797
:10E59000AD2D9C2D8B2D0F940DF28A2D0F940DF225
:10E5A0002092C6008091C00086FFFCCF8091C00001
:10E5B00080648093C0009DE29093C6008091C0006B
:10E5C00086FFFCCF8091C00080648093C0002092C1
:10E5D000C6008091C00086FFFCCF8091C00080649F
:10E5E0008093C00019828601750188249924A1E0D6
:10E5F0003A1651F03A1620F0B2E03B1661F409C029
:10E600000BBFF701779007C0C7010F9477FE782EF4
:10E6100002C0F7017080872D0F940DF22092C60082
:10E620008091C00086FFFCCF8091C0008064809301
:10E63000C000872D8052F401EF70F0708F3520F408
:10E64000E40DF51D708204C0E40DF51D8EE280839B
:10E650000894E11CF11C011D111D0894811C911CE2
:10E6600090E18916910409F0C2CF80E190E0A0E02A
:10E67000B0E0A80EB91ECA1EDB1E198AC2010F9493
:10E68000FAF10F94DCF16A94662009F072CF629679
:10E690000FB6F894DEBF0FBECDBFCF91DF911F91B3
:10E6A0000F91FF90EF90DF90CF90BF90AF909F9031
:10E6B0008F907F906F905F904F903F902F90089534
:10E6C0002F923F924F925F926F927F928F929F9282
:10E6D000AF92BF92CF92DF92EF92FF920F931F9370
:10E6E000DF93CF93CDB7DEB7CD53D1400FB6F894BB
:10E6F000DEBF0FBECDBF01E20EBF0FEF0DBF94B75F
:10E70000F894A89514BE80916000886180936000A1
:10E7100010926000789493FF05C0E0910002F091A0
:10E7200001021995279A2F9A8091C00082608093E8
:10E73000C00080E18093C40088E18093C1000000A4
:10E74000EE24FF24870144E0A42EB12CCC24DD2448
:10E7500024C0C5010197F1F70894E11CF11C011DCB
:10E76000111D21E2E2162EE4F20620E0020720E06D
:10E77000120718F031E0C32ED12CC801B70127ECE5
:10E780003BE140E050E00F9441FE611571058105C9
:10E79000910519F485B1805885B98091C00087FD35
:10E7A00003C0C114D104A9F2A6014F5F5F4FC25E3E
:10E7B000DE4F59834883CE51D140C25EDE4F8881FF
:10E7C0009981CE51D140019711F00D9410FEC05D9A
:10E7D000DE4F19821882C053D14060E0C15DDE4F28
:10E7E0001882CF52D14088249924C35DDE4F19820C
:10E7F0001882CD52D140C05EDE4F188219821A8233
:10E800001B82C052D140CE5CDE4F188219821A8220
:10E810001B82C253D140EE24FF2487010BBFF701B6
:10E8200007911691C45CDE4F19830883CC53D14005
:10E830000D940BFEC25EDE4F28813981CE51D1404E
:10E840002130310509F52091C600C25EDE4F1982E4
:10E850001882CE51D14022C02F5F3F4F4F4F5F4FA4
:10E86000213082E138078AE7480780E0580780F0C6
:10E87000C45CDE4FE881F981CC53D140EF5FFF4F9C
:10E8800019F0EE27FF27099420E030E040E050E047
:10E890008091C00087FFE0CF2091C600C35DDE4FAE
:10E8A00048815981CD52D1404F5F5F4FC35DDE4FEC
:10E8B00059834883CD52D140213209F063C64A3092
:10E8C000510508F05FC60894811C911C53E0851621
:10E8D000910409F059C600E010E018C081E280936D
:10E8E000C6008091C00086FFFCCF8091C00080648C
:10E8F0008093C0002F5F3F4F2931310579F70F9486
:10E90000DCF10F5F1F4F0530110519F020E030E0FA
:10E91000E5CF10920A0210920B0210920C02109294
:10E920000D02109206021092070210920802109235
:10E930000902109202021092030210920402109235
:10E9400005028FEE90EE60E00F94F5F180E191EE1C
:10E9500060E00F94C2F18091C00087FFFCCF9091DE
:10E96000C600903608F09F759032B8F09093C600BC
:10E970008091C00086FFFCCF8091C00080648093AE
:10E98000C000A0E2A093C6008091C00086FFFCCF2B
:10E990008091C00080648093C000983409F4D7C18E
:10E9A0009934B8F4923409F459C1933458F490333B
:10E9B00019F1903308F4E3C59F33A1F1903409F0C5
:10E9C000DEC5BDC0953409F470C1963409F0D7C5D1
:10E9D00098C1923509F42BC2933538F49C3409F46C
:10E9E000F5C1913509F0CBC518C2963509F445C279
:10E9F000993509F0C4C567C483E792EE62E00F94CD
:10EA0000F5F110920602109207021092080210927D
:10EA1000090210920A0210920B0210920C0210923C
:10EA20000D0213C18FE792EE62E00F94F5F18FEEC5
:10EA300090EE60E00F94F5F181E291EE60E00F94CA
:10EA4000C2F187EB91EE60E00F94F5F180E391EE77
:10EA500060E00F94C2F184EE90EE60E00F94F5F167
:10EA60008FE391EE60E00F94C2F186E090E061E008
:10EA700070E00F9434F20F94DCF18DE591EE60E0DC
:10EA80000F94C2F189EC91EE60E00F94F5F18EE401
:10EA900091EE60E00F94C2F183EC91EE60E00F9490
:10EAA000F5F18CE691EE60E00F94C2F18EE10F94E7
:10EAB0000DF288E90F940DF281E00F940DF20F949E
:10EAC000DCF18BE791EE60E00F94C2F119E0E0E039
:10EAD000F0E010935700E4918E2F0F940DF20F94F5
:10EAE000DCF18AE891EE60E00F94C2F1E3E0F0E03F
:10EAF00010935700E4918E2F0F940DF20F94DCF1D8
:10EB000089E991EE60E00F94C2F1E2E0F0E0109349
:10EB10005700E4918E2F0F940DF20F94DCF188EAE8
:10EB200091EE60E00F94C2F1E1E0F0E01093570045
:10EB30001491812F0F940DF20F94DCF107CF8BE825
:10EB400092EE62E00F94F5F18BE492EE60E00F94A8
:10EB5000F5F10F94DCF100E010E019C0C8016F2D51
:10EB60000F947FFEFF2031F489E492EE60E00F9471
:10EB7000C2F10BC0F092C6008091C00086FFFCCFAE
:10EB80008091C00080648093C0000F5F1F4FC80158
:10EB900081519F41A0E0B0E0ABBFFC01F790BAE229
:10EBA000FB1621F0E2E000301E07C1F60F94DCF105
:10EBB0000F94DCF187E592EE60E00F94F5F10F948D
:10EBC000DCF1CC24DD2400E010E01EC0C8010F946D
:10EBD00077FEF82E882331F489E492EE60E00F94FA
:10EBE000C2F10BC08093C6008091C00086FFFCCFAD
:10EBF0008091C00080648093C000FE1419F00894D6
:10EC0000C11CD11C0F5F1F4FC80181519F41A0E063
:10EC1000B0E0ABBFFC01E790FAE2EF1621F022E092
:10EC20000030120799F60F94DCF10F94DCF182E6C4
:10EC300092EE60E00F94C2F1C60161E070E00F94C3
:10EC400034F20F94DCF10F94DCF110920202109276
:10EC50000302109204021092050278CE89E992EE26
:10EC600062E00F94F5F1279A2F9A16C02F9880E052
:10EC700090E0E0EDF7E03197F1F7019684369105E9
:10EC8000C1F72F9A80E090E0E0EDF7E03197F1F7DF
:10EC9000019684369105C1F78091C00087FFE6CFC9
:10ECA0008091C00087FFFCCF64C485EA92EE62E0E9
:10ECB0000F94F5F140910202509103026091040219
:10ECC0007091050281E020E10F9491F2809102029F
:10ECD00090910302A0910402B091050280509F4FD1
:10ECE000AF4FBF4F8093020290930302A0930402A0
:10ECF000B093050280509041A040B04008F426CE69
:10ED0000A4CF83EB92EE62E00F94F5F140910602FE
:10ED100050910702609108027091090280E020E1A1
:10ED20000F9491F28091060290910702A09108023F
:10ED3000B091090280509F4FAF4FBF4F80930602A2
:10ED400090930702A0930802B0930902FFCD80ECD4
:10ED500092EE62E00F94F5F183E792EE60E00F949B
:10ED6000F5F18FE792EE60E00F94F5F18BE892EE0B
:10ED700060E00F94F5F189E992EE60E00F94F5F10F
:10ED800085EA92EE60E00F94F5F183EB92EE60E09D
:10ED90000F94F5F180EC92EE60E00F94F5F187ECC2
:10EDA00092EE60E00F94F5F188ED92EE60E00F9442
:10EDB000F5F18FED92EE60E00F94F5F18AEE92EEB0
:10EDC00060E00F94F5F183E093EEBDCD87EC92EE19
:10EDD00062E00F94F5F181E40F947BF282E40F94EA
:10EDE0007BF283E40F947BF284E40F947BF285E45E
:10EDF0000F947BF286E40F947BF287E40F947BF20E
:10EE000088E40F947BF28AE40F947BF28BE40F94F6
:10EE10007BF28CE40F947BF299CD88ED92EE62E068
:10EE20000F94F5F1772473948824992409C48FED05
:10EE300092EE62E00F94F5F140910A0250910B02BC
:10EE400060910C0270910D0282E020E10F9491F22A
:10EE500080910A0290910B02A0910C02B0910D02D8
:10EE600080509F4FAF4FBF4F80930A0290930B0289
:10EE7000A0930C02B0930D0269CD8AEE92EE62E08F
:10EE80000F94F5F184EE90EE60E00F94F5F18FECC5
:10EE900091EE60E00F94F5F1662477244301CC5D98
:10EEA000DE4F19821882C452D140D401C301B695F5
:10EEB000A79597958795CA5DDE4F88839983AA8326
:10EEC000BB83C652D140CC5DDE4FA881B981C4520C
:10EED000D1401196CC5DDE4FB983A883C452D14096
:10EEE000CD0162E070E00F9434F2B0E2B093C6005E
:10EEF0008091C00086FFFCCF8091C0008064809329
:10EF0000C000EDE2E093C6008091C00086FFFCCF18
:10EF10008091C00080648093C000F0E2F093C6004E
:10EF20008091C00086FFFCCF8091C00080648093F8
:10EF3000C000CA5DDE4FE880F9800A811B81C6529D
:10EF4000D140BB27A12F902F8F2D0F940DF2CA5DBA
:10EF5000DE4F8881C652D1400F940DF2B0E2FB2EF5
:10EF6000F092C6008091C00086FFFCCF8091C00067
:10EF700080648093C0000DE30093C6008091C000C0
:10EF800086FFFCCF8091C00080648093C00010E2B7
:10EF90001093C6008091C00086FFFCCF8091C00016
:10EFA00080648093C0008BBEF3012791C65DDE4F65
:10EFB0002883CA52D140A22EBB24CC24DD2408943D
:10EFC000611C711C811C911C8BBEF3018791282E42
:10EFD0003324442455240894611C711C811C911C09
:10EFE0008BBEF3013791C55DDE4F3883CB52D140E4
:10EFF0000894611C711C811C911C8BBEF30147910C
:10F00000C45DDE4F4883CC52D140ADEFEA2EAFEF66
:10F01000FA2EAFEF0A2FAFEF1A2F6E0C7F1C801E57
:10F02000911E142D032DF22CEE24EA0CFB1C0C1D5A
:10F030001D1D0F940DF220E22093C6008091C000A8
:10F0400086FFFCCF8091C00080648093C000C65DC5
:10F05000DE4F8881CA52D1400F940DF230E23093D6
:10F06000C6008091C00086FFFCCF8091C000806404
:10F070008093C000C45DDE4F8881CC52D1400F9494
:10F080000DF240E24093C6008091C00086FFFCCFA5
:10F090008091C00080648093C000C55DDE4F888190
:10F0A000CB52D1400F940DF250E25093C6008091A4
:10F0B000C00086FFFCCF8091C00080648093C000B8
:10F0C0008FEFE8168FEFF80680E0080780E018075A
:10F0D00031F484E092EE60E00F94C2F1DFC0D80119
:10F0E000C7018070907CA070B0708050904CA040A0
:10F0F000B040D1F52FEF3FE340E050E0E222F322B1
:10F1000004231523CA5DDE4FA880B980CA80DB8046
:10F11000C652D140AE0CBF1CC01ED11EAA0CBB1CD7
:10F12000CC1CDD1C8EE092EE60E00F94C2F1BB2798
:10F13000A12F902F8F2D0F940DF28E2D0F940DF285
:10F1400030E23093C6008091C00086FFFCCF8091F2
:10F15000C00080648093C0004EE34093C60080915D
:10F16000C00086FFFCCF87C08EE09EEFA0E0B0E03D
:10F17000E822F9220A231B239CE0E91694E9F90608
:10F1800090E0090790E0190709F088C0C45DDE4FE0
:10F19000A881CC52D140EA2EFF2400E010E0102FCD
:10F1A0000F2DFE2CEE24C55DDE4FB881CB52D14031
:10F1B000EB0EF11C011D111DD601C501817090706F
:10F1C000A070B070DC0199278827E80EF91E0A1F8D
:10F1D0001B1F20EF30E040E050E0A222B322C42207
:10F1E000D52241E1AA0CBB1CCC1CDD1C4A95D1F7F1
:10F1F000EA0CFB1C0C1D1D1D81E090E0A0E0B0E0BE
:10F20000282239224A225B2235E1220C331C441C7D
:10F21000551C3A95D1F7E20CF31C041D151D57013E
:10F220006801AA0CBB1CCC1CDD1C85E192EE60E0E1
:10F230000F94C2F1C801AA27BB270F940DF2BB2778
:10F24000A12F902F8F2D0F940DF28E2D0F940DF274
:10F2500090E29093C6008091C00086FFFCCF809121
:10F26000C00080648093C000AEE3A093C60080918C
:10F27000C00086FFFCCF8091C00080648093C000F6
:10F28000C601AA27BB270F940DF2BB27AD2D9C2DDD
:10F290008B2D0F940DF28A2D0F940DF20F94DCF14B
:10F2A000CC5DDE4FE881F981C452D140F99709F471
:10F2B0004DCBF4E0EF2EF12C012D112D6E0C7F1CA7
:10F2C000801E911EF2CD83E093EE62E00F94F5F183
:10F2D0008AE192EE60E00F94C2F18091C00087FF56
:10F2E000FCCF1091C6001F751093C6008091C0001E
:10F2F00086FFFCCF8091C00080648093C0000F9493
:10F30000DCF1812F81548A3108F036C1163409F4BA
:10F3100095C0173490F4133409F44EC0143430F40B
:10F320001134F1F0123409F01DC130C0143409F465
:10F3300059C0153409F016C16BC01A3409F4C4C0A1
:10F340001B3438F4173409F48FC0183409F00AC19B
:10F35000A1C01B3409F4D2C01C3409F003C1E8C0B9
:10F360008FEF81B90DC082B1809582B980E090E0C5
:10F37000E0EDF7E03197F1F70196883C9105C1F790
:10F380008091C00087FFEFCF12B8EFC08FEF84B934
:10F390000DC085B1809585B980E090E0E0EDF7E0A3
:10F3A0003197F1F70196883C9105C1F78091C00033
:10F3B00087FFEFCF15B8D9C08FEF87B90DC088B1DF
:10F3C000809588B980E090E0E0EDF7E03197F1F7C3
:10F3D0000196883C9105C1F78091C00087FFEFCF6F
:10F3E00018B8C3C08FEF8AB90DC08BB180958BB9A7
:10F3F00080E090E0E0EDF7E03197F1F70196883C8E
:10F400009105C1F78091C00087FFEFCF1BB8ADC059
:10F410008FEF8DB90DC08EB180958EB980E090E0F0
:10F42000E0EDF7E03197F1F70196883C9105C1F7DF
:10F430008091C00087FFEFCF1EB897C08FEF80BBD1
:10F440000DC081B3809581BB80E090E0E0EDF7E0F6
:10F450003197F1F70196883C9105C1F78091C00082
:10F4600087FFEFCF11BA81C08FEF83BB0DC084B38C
:10F47000809584BB80E090E0E0EDF7E03197F1F714
:10F480000196883C9105C1F78091C00087FFEFCFBE
:10F4900014BA6BC08FEF809301010FC080910201FD
:10F4A00080958093020180E090E0E0EDF7E03197F5
:10F4B000F1F70196883C9105C1F78091C00087FF64
:10F4C000EDCF1092020151C08FEF809304010FC065
:10F4D0008091050180958093050180E090E0E0ED4A
:10F4E000F7E03197F1F70196883C9105C1F78091DB
:10F4F000C00087FFEDCF1092050137C08FEF8093DA
:10F5000007010FC08091080180958093080180E079
:10F5100090E0E0EDF7E03197F1F70196883C910536
:10F52000C1F78091C00087FFEDCF109208011DC088
:10F530008FEF80930A010FC080910B01809580931B
:10F540000B0180E090E0E0EDF7E03197F1F70196F4
:10F55000883C9105C1F78091C00087FFEDCF1092E4
:10F560000B0103C085E292EEEEC98091C00087FFD7
:10F57000FCCF8091C600EAC988E392EEE4C98CE131
:10F5800091EEE1C988249924933011F1943028F444
:10F59000913089F09230B8F408C0953061F195301F
:10F5A000F0F0963009F048C043C02B3109F042C951
:10F5B00091E06BE13FC96227C15DDE4F2883CF52E6
:10F5C000D14092E037C9B22FA0E0622793E032C960
:10F5D000822F90E0A82BB92B622794E02BC92E3004
:10F5E00009F039C3622795E0C05DDE4F19821882A9
:10F5F000C053D1401FC9E1E0F0E0EC0FFD1FC05D3A
:10F60000DE4F08811981C053D140E00FF11F2083E4
:10F610000F5F1F4FC05DDE4F19830883C053D14079
:10F6200062270A171B0709F005C9D80196E002C92D
:10F63000261709F010C303C0973009F0FBC87724E0
:10F640009981933109F412C19431C8F4963009F4C8
:10F65000D8C0973050F4923009F406C1933009F4C1
:10F660006DC0913009F059C253C0913109F477C08F
:10F67000923108F0BBC0903109F04FC2F5C098310B
:10F6800009F487C0993150F4953109F4EFC09531F0
:10F6900008F4C6C1963109F040C2C2C19A3109F4DA
:10F6A0006CC09A3108F491C09B3109F45BC09D3164
:10F6B00009F033C29D81903359F48F81882311F46E
:10F6C0009EE11CC0813011F091E018C098E916C08D
:10F6D000892F807591F0903539F4E0E0F0E089E011
:10F6E0008093570094910AC0983539F4E3E0F0E034
:10F6F00089E080935700949101C090E01A821B82A8
:10F700008D818C831D829E831F8227E030E009C299
:10F710001A8288E08B8381E48C8386E58D8382E581
:10F720008E8389E48F8383E5888780E589878FE5E9
:10F730008A8782E38B872BE030E0F3C18A818139AD
:10F7400041F0823941F0803911F48FE005C080E04A
:10F7500003C082E001C08AE01A828B8344C0772410
:10F76000739482C08D81882311F48EE12CC0813086
:10F7700011F081E028C088E926C01A82E1E0F0E0BB
:10F7800089E08093570084918B831C8224E030E0D1
:10F79000C8C18B81803589F48C81883039F4E2E0EE
:10F7A000F0E089E08093570084910DC0E0E0F0E044
:10F7B00089E080935700849106C0E3E0F0E089E09F
:10F7C0008093570084911A82DFCF8D81836C99E0FA
:10F7D000E1E0F0E0082E90935700E89507B600FCB2
:10F7E000FDCF1A821B8223E030E09BC180EC8A832C
:10F7F000CE5CDE4F188219821A821B82C253D1401E
:10F800008EC18A8190E0A0E0B0E0582F44273327D2
:10F8100022278B8190E0A0E0B0E0DC0199278827C7
:10F82000282B392B4A2B5B2B8D8190E0A0E0B0E098
:10F83000282B392B4A2B5B2B8C8190E0A0E0B0E089
:10F84000BA2FA92F982F8827282B392B4A2B5B2BCF
:10F85000220F331F441F551FC05EDE4F288339839C
:10F860004A835B83C052D1401A8259C13A81C95C34
:10F87000DE4F3883C753D140CA5CDE4F1882C6536F
:10F88000D1408B81C82EDD24CA5CDE4F488159816E
:10F89000C653D140C42AD52A933109F082C0CE5C28
:10F8A000DE4F88819981AA81BB81C253D1408050AB
:10F8B000904CA340B04030F583E0CE5CDE4FE88052
:10F8C000F9800A811B81C253D140F70100935B008C
:10F8D00080935700E89507B600FCFDCFCE5CDE4F65
:10F8E000088119812A813B81C253D14000501F4FAA
:10F8F0002F4F3F4FCE5CDE4F088319832A833B8313
:10F90000C253D140C05EDE4F488159816A817B81FC
:10F91000C052D140DE011B9631E08C9111962C91A2
:10F9200011971296C75CDE4F2883C953D140C85C3B
:10F93000DE4F1882C853D14090E0C85CDE4FE881AA
:10F94000F981C853D1408E2B9F2B0C01FA01609393
:10F950005B0030935700E89511244E5F5F4F6F4F67
:10F960007F4F0EEFE02E0FEFF02ECE0CDF1CC114F8
:10F97000D10499F685E0C05EDE4F088119812A81A5
:10F980003B81C052D140F80120935B008093570027
:10F99000E89507B600FCFDCF81E180935700E8951C
:10F9A00035C0C05EDE4F88819981AA81BB81C0527B
:10F9B000D140B695A795979587957C018601ABE0D8
:10F9C000AA2EB12CAC0EBD1E0BC0D5016D915D01F0
:10F9D000C7010F947FFE0894E11CF11C01501040F8
:10F9E0000115110591F7A60160E070E0440F551F65
:10F9F000661F771FC05EDE4FE880F9800A811B8199
:10FA0000C052D1404E0D5F1D601F711F1A82C05E33
:10FA1000DE4F488359836A837B83C052D1407FC0C5
:10FA2000FA80C55CDE4FF882CB53D140C65CDE4F16
:10FA30001882CA53D1408B81C82EDD24C65CDE4FAC
:10FA400008811981CA53D140C02AD12A1A828981DA
:10FA5000BE016D5F7F4F843121F59601C05EDE4FA0
:10FA6000E880F9800A811B81C052D1400BBFF701A9
:10FA700087919691DB018C9311969C936E5F7F4FDB
:10FA8000D801C7010296A11DB11DC05EDE4F88835B
:10FA90009983AA83BB83C052D14022503040F1F6F3
:10FAA00036C0C05EDE4F288139814A815B81C052F9
:10FAB000D1400894C108D108760100E010E0089414
:10FAC000C11CD11C0894E11CF11C011D111DE20E8A
:10FAD000F31E041F151F21BDBB27A52F942F832FB5
:10FAE00082BD2F5F3F4F4F4F5F4FF89A80B5DB01CC
:10FAF0008D93BD012E153F054007510761F7C05E8C
:10FB0000DE4F288339834A835B83C052D1409601FC
:10FB10002D5F3F4FFB01108204C080EC8A8322E0FE
:10FB200030E08BE18093C6008091C00086FFFCCF5F
:10FB30008091C00080648093C000C15DDE4FF88179
:10FB4000CF52D140F093C6008091C00086FFFCCF19
:10FB50008091C00080648093C000432F3093C60022
:10FB60008091C00086FFFCCF8091C00080648093AC
:10FB7000C000922F2093C6008091C00086FFFCCF6A
:10FB80008091C00080648093C0008EE08093C600A6
:10FB90008091C00086FFFCCF8091C000806480937C
:10FBA000C00065E1C15DDE4FE880CF52D1406E25D7
:10FBB00069276427FE01319610C090819093C6009A
:10FBC0008091C00086FFFCCF31968091C000806498
:10FBD0008093C0006927215030402115310569F715
:10FBE0006093C6008091C00086FFFCCF8091C0006A
:10FBF00080648093C00085B1805885B9772081F4F6
:10FC0000C15DDE4F0881CF52D1400F5FC15DDE4F35
:10FC10000883CF52D14090E0A0E0B0E00D941AF4F8
:10FC200027982F9880E090E020ED37E0F901319798
:10FC3000F1F7019684369105C9F700008091C00064
:10FC40008D7F8093C00081E180935700E895EE2777
:10FC5000FF270994FFCF90E00D941AF497FB092E2B
:10FC600007260AD077FD04D02ED006D000201AF443
:10FC7000709561957F4F0895F6F7909581959F4F08
:10FC80000895A1E21A2EAA1BBB1BFD010DC0AA1FDD
:10FC9000BB1FEE1FFF1FA217B307E407F50720F0F5
:10FCA000A21BB30BE40BF50B661F771F881F991F70
:10FCB0001A9469F760957095809590959B01AC01B9
:10FCC000BD01CF010895AA1BBB1B51E107C0AA1FAC
:10FCD000BB1FA617B70710F0A61BB70B881F991FED
:10FCE0005A95A9F780959095BC01CD010895F99991
:10FCF000FECF92BD81BDF89A992780B50895262F31
:10FD0000F999FECF1FBA92BD81BD20BD0FB6F89400
:0EFD1000FA9AF99A0FBE01960895F894FFCF63
:00000001FF
