:100000000C943D010C94250C0C94FA0B0C94CF0B22
:100010000C94A40B0C94790B0C944E0B0C94230BA6
:100020000C94F80A0C946E010C946E010C946E0101
:100030000C946E010C94AF090C946E010C946E013B
:100040000C946E010C946E010C946E010C946E0174
:100050000C946E010C946E010C946E010C94AE0A1B
:100060000C946E010C94780A0C944E0A0C946E0158
:100070000C946E010C946E010C946E010C946E0144
:100080000C946E010C946E010C946E010C946E0134
:100090000C946E010C946E010C946E010C946E0124
:1000A0000C946E010C946E010C946E010C946E0114
:1000B0000C946E010C946E010C946E010C946E0104
:1000C0000C946E010C946E010C946E010C946E01F4
:1000D0000C946E010C946E010C946E010C946E01E4
:1000E0000C946E010C9445020C9489060C949202B7
:1000F0000C9407030C9442030C9420030C940F03FC
:100100000C942A030C9401030C940B030C947303BA
:100110000C94DC010C942E030C9426030C941C0309
:100120000C9434030C94EB010C94CA0C0C94130340
:100130000C9446030C943C030C940D020C94410364
:100140000C9438030C94FF010C9416030C94AF012B
:100150000C94CE1100002100240027002A002D005D
:100160003000330001010000040107010A01000012
:1001700020002300260029002C002F00320000015F
:10018000000003010601090100000A0B02090C0D21
:100190000E0807030401000000000000000000003A
:1001A000000000000000000000000000000000004F
:1001B000000000001211100000000000000000000C
:1001C000000000000000000000000000000002012C
:1001D0000210202008081020401020408002010258
:1001E0000108040201010204081020408080402020
:1001F000100804020180040201804020100804025B
:1002000001080402010102040810204080010204D8
:10021000081020408000002200250028002B002E1E
:10022000003100340002010000050108010B010546
:10023000050505070508080808020202020A0A085F
:100240000804040404010101010101010103030385
:100250000303030303040707070C0C0C0C0C0C0C22
:100260000C0202020206060606060606060B0B0B29
:100270000B0B0B0B0B00CA0CCE1111241FBECFEFC2
:10028000D1E2DEBFCDBF00E00CBF12E0A0E0B2E0E3
:10029000EEE1F7E200E00BBF02C007900D92A0383C
:1002A000B107D9F724E0A0E8B2E001C01D92A43064
:1002B000B207E1F711E0CCE3D1E000E006C02197FE
:1002C0000109802FFE010E942F12CB33D10780E05D
:1002D0000807A9F70E94790D0C947D130C94000077
:1002E0000F931F93CF93DF93EC012885222319F1FD
:1002F00009851A852150D9F030E050E040E06FEFD9
:100300007FEF80E090E00E941012F8014C815D8147
:10031000CF01801B910B8417950760F44081429FA9
:10032000C001439F900D112490833196EFCF30E0B0
:1003300020E0EBCF1886DF91CF911F910F910895A8
:1003400080916503909166038230910538F0880FA3
:10035000991F880F991F05970197F1F70895AF929C
:10036000BF92CF92DF92EF92FF920F931F93CF93A2
:10037000DF936C017B018B01040F151FEB015E0104
:10038000AE18BF08C017D10759F06991D601ED9199
:10039000FC910190F081E02DC6011995892B79F728
:1003A000C501DF91CF911F910F91FF90EF90DF90EA
:1003B000CF90BF90AF900895FC01538D448D252FB1
:1003C00030E0842F90E0821B930B541710F0CF96EF
:1003D000089501970895FC01918D828D981761F021
:1003E000A28DAE0FBF2FB11D5D968C91928D9F5F38
:1003F0009F73928F90E008958FEF9FEF0895FC0117
:10040000918D828D981731F0828DE80FF11D858DC9
:1004100090E008958FEF9FEF0895FC01918D228D5C
:10042000892F90E0805C9F4F821B91098F739927E1
:10043000089585EC92E00E940D0221E0892B09F4D9
:1004400020E0822F0895FC01A48DA80FB92FB11DC3
:10045000A35ABF4F2C91848D90E001968F739927FA
:10046000848FA689B7892C93A089B1898C918370D8
:1004700080648C93938D848D981306C00288F389D1
:10048000E02D80818F7D80830895EF92FF920F93FE
:100490001F93CF93DF93EC0181E0888F9B8D8C8D30
:1004A00098131AC0E889F989808185FF15C09FB724
:1004B000F894EE89FF896083E889F98980818370E7
:1004C000806480839FBF81E090E0DF91CF911F9196
:1004D0000F91FF90EF900895F62E0B8D10E00F5FB7
:1004E0001F4F0F731127E02E8C8D8E110CC00FB68D
:1004F00007FCFACFE889F989808185FFF5CFCE0125
:100500000E942302F1CFEB8DEC0FFD2FF11DE35A7A
:10051000FF4FF0829FB7F8940B8FEA89FB898081A7
:100520008062CFCFCF93DF93EC01888D8823B9F021
:10053000AA89BB89E889F9898C9185FD03C08081EE
:1005400086FD0DC00FB607FCF7CF8C9185FFF2CF6B
:10055000808185FFEDCFCE010E942302E9CFDF919C
:10056000CF91089580E090E0892B29F00E94190234
:1005700081110E94000080E090E0892B49F080E02A
:1005800090E0892B29F00E94000081110E94000058
:1005900080E090E0892B49F080E090E0892B29F001
:1005A0000E94000081110E94000080E090E0892BF1
:1005B00049F080E090E0892B29F00E940000811131
:1005C0000C94000008958150823108F05AC0E82F41
:1005D000F0E08827E151FD4F8F4F0C942F120F034D
:1005E0001303010307030B03410316031C0320033A
:1005F00026032A032E033403380341033C0342033A
:100600004603809180008F778093800008958091C9
:1006100080008F7DF9CF80918000877FF5CF84B5F2
:100620008F7784BD089584B58F7DFBCF8091B00016
:100630008F778093B00008958091B0008F7DF9CFBF
:10064000809190008F778093900008958091900022
:100650008F7DF9CF80919000877FF5CF8091A000AA
:100660008F778093A00008958091A0008F7DF9CFAF
:100670008091A000877FF5CF809120018F778093B4
:1006800020010895809120018F7DF9CF8091200174
:10069000877FF5CFCF93DF93282F30E0F901E8571C
:1006A000FE4F8491F901E153FE4FD491F901E15DD0
:1006B000FD4FC491CC23A1F081110E94E302EC2FE5
:1006C000F0E0EE0FFF1FE259FE4FA591B491EC91BF
:1006D000ED2381E090E009F480E0DF91CF9108956F
:1006E00080E090E0FACF0F931F93CF93DF9381E0E8
:1006F0008093900209E112E0D0E0C0E0F80181911E
:100700008F010E944A03FE01EF56FD4F8083219620
:10071000CF30D10599F7DF91CF911F910F910895B7
:100720001F93CF93DF93282F30E0F901E857FE4F56
:100730008491F901E153FE4FD491F901E15DFD4F40
:10074000C491CC23A9F0162F81110E94E302EC2F53
:10075000F0E0EE0FFF1FEB5EFD4FA591B4918FB758
:10076000F894EC91111108C0D095DE23DC938FBF73
:10077000DF91CF911F910895DE2BF8CFCF93DF93B8
:1007800090E0FC01E153FE4F2491815D9D4FFC01FF
:1007900084918823C9F090E0880F991FFC01EC5ADE
:1007A000FE4FA591B491FC01EB5EFD4FC591D49134
:1007B00061110DC09FB7F8948C91209582238C9382
:1007C0008881282328839FBFDF91CF9108956230CD
:1007D00051F49FB7F8943C91822F809583238C939A
:1007E000E8812E2BEFCF8FB7F894EC912E2B2C9322
:1007F0008FBFEACFCF93DF93C2E6D3E061E0898178
:100800000E94BE030E94A00160E088810E94BE0396
:100810000E94A00160E089810E94BE03DF91CF9118
:100820000C94A0010F931F93CF93DF93D82FC8E0B0
:1008300061E0809162030E94BE030E94A0010D2F1F
:1008400010E060E0D0FF61E0809163030E94BE038E
:100850000E94A00160E0809162030E94BE030E949A
:10086000A00115950795D02FC15011F761E0809137
:1008700062030E94BE0360E0809163030E94BE0396
:100880000E94A00160E0809162030E94BE030E946A
:10089000A001809163030E944A03C82F811105C003
:1008A00061E0809163030E94BE030E94A00161E0A9
:1008B000809162030E94BE030E94A00181E0C111E9
:1008C00001C080E0DF91CF911F910F91089561E009
:1008D000809163030E94BE030C94A001EF92FF92EB
:1008E0000F931F93CF93DF93182FE92E062FC42F5A
:1008F0000E94670480E40E9412040E94FA030E948E
:10090000670480EC8C0F0E941204F12EC12FDE2DA3
:1009100089910E9412048C2F8F198017C8F30E94AE
:10092000FA030E946704809164038F7080580E94CC
:100930001204DF91CF911F910F91FF90EF900C94D3
:10094000FA03CF92DF92EF92FF921F93CF93DF9340
:100950006B017C0180911202833151F08F3FF1F0E5
:10096000DF91CF911F91FF90EF90DF90CF9008958E
:10097000EEECF1E0C491C7FDF3CF61E083E10E94AA
:10098000BE03CC2309F4DDC0C23009F00AC1809156
:10099000B100887F84608093B100D7C083E18093E9
:1009A0001202EEECF1E0C4918C2FCF3FC9F2C230BD
:1009B00009F468C060F4CC2379F1C13009F444C073
:1009C00087FDCECF61E083E10E94BE03DDCFC4305E
:1009D00009F499C008F478C0C53091F7109220014D
:1009E00010922101809121018860809321018091E2
:1009F0002101816080932101E2E4F2E0E491F0E0E2
:100A0000EE0FFF1FEB5EFD4F85919491E2EEF1E05A
:100A1000E491E093A502B1CF14BC15BC84B582600B
:100A200084BD85B5816085BDE2E4F2E0E491F0E04B
:100A3000EE0FFF1FEB5EFD4F85919491E2EEF1E02A
:100A4000E491E093AC0299CF109280001092810063
:100A50008091810088608093810080918100816015
:100A600080938100E2E4F2E0E491F0E0EE0FFF1FFA
:100A7000EB5EFD4F85919491E2EEF1E0E491E0931D
:100A8000AB027BCF1092B0001092B1008091B00009
:100A900082608093B0008091B10081608093B1004A
:100AA000E2E4F2E0E491F0E0EE0FFF1FEB5EFD4FB9
:100AB000859194919093AA028093A902E2EEF1E0CD
:100AC000E491E093A80259CF109290001092910007
:100AD0008091910088608093910080919100816065
:100AE00080939100E2E4F2E0E491F0E0EE0FFF1F6A
:100AF000EB5EFD4F85919491E2EEF1E0E491E0939D
:100B0000A702C3E03ACF1092A0001092A1008091FA
:100B1000A10088608093A1008091A10081608093F2
:100B2000A100E2E4F2E0E491F0E0EE0FFF1FEB5EE3
:100B3000FD4F85919491E2EEF1E0E491E093A602FD
:100B40001CCF85B5887F836085BDD9EF10E0A8EE06
:100B5000B3E0A70196010E94371228EE33E040E08F
:100B600050E00E94EE11C23009F450C00CF086C073
:100B7000CC23E9F1C13009F0F3CE8D2F912F909362
:100B80008900809388002093BD023093BE02409379
:100B9000BF025093C00280916F00826080936F000B
:100BA000DFCEC13049F480918100887F81608093DD
:100BB0008100DFE71EE3CBCFC33039F48091910091
:100BC000887F816080939100F4CFC43039F48091A4
:100BD000A100887F81608093A100EBCFC53049F7E9
:100BE00080912101887F816080932101E2CFD7BD70
:100BF0002093C1023093C2024093C3025093C402B7
:100C000080916E00826080936E00AACED093B30074
:100C10002093B9023093BA024093BB025093BC02B6
:100C2000809170008260809370009ACE8D2F912FFA
:100C300090939900809398002093B5023093B60268
:100C40004093B7025093B802809171008260809304
:100C5000710086CE8D2F912F9093A9008093A800CC
:100C60002093B1023093B2024093B3025093B40286
:100C70008091720082608093720072CEC43051F312
:100C8000ACF2C53009F06CCE8D2F912F90932901D5
:100C9000809328012093AD023093AE024093AF02BF
:100CA0005093B0028091730082608093730058CE9D
:100CB0003FB7F8948091860290918702A0918802B4
:100CC000B091890226B5A89B05C02F3F19F0019667
:100CD000A11DB11D3FBFBA2FA92F982F8827BC0196
:100CE000CD01620F711D811D911D42E0660F771FBE
:100CF000881F991F4A95D1F708952FB7F8946091EE
:100D000082027091830280918402909185022FBFAC
:100D100008950895CF92DF92EF92FF92CF93DF93E1
:100D2000FC01CA01AA27BB27C32ED42EE52EFF241F
:100D30004C2D3085332371F0C32FD0E0C89FA00124
:100D4000C99F500DD89F500D1124852F3C9D6001E7
:100D500011244D2DA685218532859385A9131DC0AB
:100D6000DB01AA0FBB1F6A0F7B1F620F731FA385D6
:100D7000A60FB72FB11D8C93A485A60FB72FB11D59
:100D80004C938585680F711DFB011082DF91CF9117
:100D9000FF90EF90DF90CF900895660F771F660F5A
:100DA000771F620F731FA60FB72FB11D1C92DFCFE5
:100DB000CF92DF92EF92FF920F931F93CF93DF9327
:100DC00000D000D000D0CDB7DEB78C01DC01199681
:100DD0008D919C91892B09F465C00E945806F801F9
:100DE000C784D088E188F2886C197D098E099F0933
:100DF0006C3271408105910580F3F894D801149606
:100E00008D919C9115979A8389831996ED91FC9108
:100E10007F01BFEFEB1AFB0A80818987F80190817F
:100E20000388F489E02DD80155968C91992309F413
:100E300048C09081982B98879081809589238F83D3
:100E40008F818C8388E08B8358856F8149853B81B6
:100E50002C8189819A81D701508347FD252F3A95AE
:100E60002083262F39F0441F00C00000608300005B
:100E700000C0F2CF38E04D9160830000019761F728
:100E8000D8015496FC93EE93539749873B832C8368
:100E90009A83898378940E945806F8016787708B3B
:100EA000818B928B29960FB6F894DEBF0FBECDBF13
:100EB000DF91CF911F910F91FF90EF90DF90CF9036
:100EC00008959081982B98879081809589238F83AE
:100ED0008F818E8388E08D8358856F8149853D8120
:100EE0002E8189819A81D701508347FD252F00C02B
:100EF00000C0208300C000C000C000C000C06083EC
:100F00000000262F3A9541F0441F000000C000C0A9
:100F100000C000C000C0E8CF38E04D9100C0608341
:100F200000C0019709F7D8015496FC93EE935397AC
:100F300049873D832E83ACCFCF93DF93EC018E8125
:100F40009F8197FD07C061E00E94BE0360E08E8133
:100F50000E94900381E08983DF91CF910895CF9320
:100F6000DF93EC018E85882349F00E947D0668831B
:100F700079838A839B83DF91CF9108950E945806DD
:100F8000F6CFCF92DF92EF92FF920F931F93CF9302
:100F9000DF93EC01898182FD13C085FD11C08A8138
:100FA0000E944A03398131FB222720F933FB332782
:100FB00030F9232731E0892B09F030E02327298BF2
:100FC0000E947D06AB01BC0199892A8988819923F9
:100FD00009F46BC0211169C080FD4EC08160888317
:100FE0004D875E876F87788B8A89882319F19923CB
:100FF00009F18D819E81B0E0A0E00D851E852F85D1
:1010000038896A017B01C01AD10AE20AF30A970102
:101010008601081719072A073B0760F0888181FDC0
:1010200009C01B861C868A648F7788834D875E87FC
:101030006F87788B8D859E85AF85B889481B590B46
:101040006A0B7B0B8F819885B0E0A0E048175907A9
:101050006A077B0740F08B85882329F08C871B86E5
:10106000888184608883DF91CF911F910F91FF90D9
:10107000EF90DF90CF9008950D851E852F853889DC
:101080006A017B01C01AD10AE20AF30A0B811C81B2
:1010900030E020E0C016D106E206F30658F221E067
:1010A0002A8B8062806888839FCF8E7F888391118E
:1010B0009BCF222309F4BECF1A8A81FD03C08B8502
:1010C0008F5F8B8788818D7F4D875E876F87788B59
:1010D00080618F7B888387FFADCF8F7788838981FD
:1010E0008160898381CFCF93DF93EC01898184FF75
:1010F00003C0CE010E94C107988192FB882780F926
:1011000092FF05C02C85213029F49B7F9883DF91C5
:10111000CF91089580E0FBCFDF92EF92FF920F9383
:101120001F93CF93DF9300D01F92CDB7DEB7D62E9B
:10113000262F30E0B90161507109009701F59981BE
:1011400080E0861717061CF48F5F90E0FACF998332
:101150006C0F7D1F8FE3DB0111968C936D2DCE01FB
:1011600001960E946E040F900F900F900F90DF91E8
:10117000CF911F910F91FF90EF90DF900895FC01A8
:101180008E010F5F1F4F200F311F8AE0E82EF12CD8
:10119000CF01B7010E94DA1121503109009769F49B
:1011A000309759F4D9011C92CF01B7010E94DA118E
:1011B000FB010217130761F7D1CF895C9D4FDC015A
:1011C0008C91D9018C93F0CFFF920F931F93CF9303
:1011D000DF9300D01F92CDB7DEB76CE370E00E94C2
:1011E000DA11262F182F092F6623D9F010928002CA
:1011F00040E062E0822F972F0E948C0889E08117DF
:1012000010F542E062E0812F902F0E948C080F9031
:101210000F900F900F90DF91CF911F910F91FF9042
:101220000895809180028111ECCF19821A821B826D
:101230001C8240E064E0CE0101960E946E0481E0D1
:1012400080938002DECF42E061E090E080E00E9487
:101250008C0843E061E0D7CFFC014481558170E008
:1012600060E0818592850C947613CF92DF92EF92A5
:10127000FF920F931F93CF93DF938C016A017B0141
:101280008CEC93E00E942C0986EB93E00E942C09E1
:1012900080EA93E00E942C090115110589F1D0E044
:1012A000C0E0C017D10761F18091CE039091CF03C8
:1012B000C817D90738F4A7019601BE018CEC93E05A
:1012C0000E948A068091B8039091B903C817D90784
:1012D00038F4A7019601BE0186EB93E00E948A06CE
:1012E0008091A2039091A303C817D90738F4A701EE
:1012F0009601BE0180EA93E00E948A062196D1CF32
:101300008CEC93E00E94D80686EB93E00E94D8060E
:1013100080EA93E0DF91CF911F910F91FF90EF90C2
:10132000DF90CF900C94D806FC0101900020E9F7E3
:101330003197AF01481B590BBC0185EC92E00C942E
:10134000AF01CF93DF930E949409EC0189E592E00D
:101350000E9494098C0F9D1FDF91CF9108951F92D9
:101360000F920FB60F9211240BB60F922F933F934B
:101370004F935F936F937F938F939F93AF93BF939D
:10138000EF93FF938091B9029091BA02A091BB02B2
:10139000B091BC02892B8A2B8B2BE1F19091A80292
:1013A000E091A902F091AA0280818927808380912F
:1013B000B9029091BA02A091BB02B091BC0218167A
:1013C00019061A061B069CF48091B9029091BA0284
:1013D000A091BB02B091BC020197A109B109809311
:1013E000B9029093BA02A093BB02B093BC02FF91E2
:1013F000EF91BF91AF919F918F917F916F915F918D
:101400004F913F912F910F900BBE0F900FBE0F90F9
:101410001F90189580911202EEECF1E0E4919FEF9D
:1014200090931202E230E9F040F4EE2389F0E130CB
:1014300091F060E00E949003DACFE43049F110F1BE
:10144000E530B9F7909173009D7F90937300F1CFD1
:1014500010926E00EECF90916F009D7F90936F0081
:10146000E8CF909170009D7F9093700091E09093F1
:10147000B0009091B100987F94609093B100109269
:10148000B300D7CF909171009D7F90937100D1CF21
:10149000909172009D7F90937200CBCF1F920F921C
:1014A0000FB60F9211240BB60F922F933F934F93C9
:1014B0005F936F937F938F939F93AF93BF93EF93BC
:1014C000FF9385EC92E00E942302FF91EF91BF9180
:1014D000AF919F918F917F916F915F914F913F91CC
:1014E0002F910F900BBE0F900FBE0F901F9018956D
:1014F0001F920F920FB60F9211240BB60F922F93DB
:101500008F939F93EF93FF93E091D502F091D602D2
:101510008081E091DB02F091DC0282FD1DC09081B0
:101520008091DE028F5F8F732091DF02821741F07E
:10153000E091DE02F0E0EB53FD4F958F8093DE02E9
:10154000FF91EF919F918F912F910F900BBE0F9074
:101550000FBE0F901F9018958081F2CF1F920F92AF
:101560000FB60F9211242F933F938F939F93AF93B6
:10157000BF938091820290918302A0918402B091E6
:1015800085023091810223E0230F2D3758F5019613
:10159000A11DB11D2093810280938202909383024A
:1015A000A0938402B0938502809186029091870275
:1015B000A0918802B09189020196A11DB11D80936E
:1015C000860290938702A0938802B0938902BF910C
:1015D000AF919F918F913F912F910F900FBE0F90E0
:1015E0001F90189526E8230F0296A11DB11DD2CF9A
:1015F0001F920F920FB60F9211240BB60F922F93DA
:101600003F934F935F936F937F938F939F93AF938A
:10161000BF93EF93FF93E0910E02F0910F021995A3
:10162000FF91EF91BF91AF919F918F917F916F91BA
:101630005F914F913F912F910F900BBE0F900FBE76
:101640000F901F9018951F920F920FB60F921124B2
:101650000BB60F922F933F934F935F936F937F93AC
:101660008F939F93AF93BF93EF93FF93E0910C02FF
:10167000F0910D021995FF91EF91BF91AF919F915C
:101680008F917F916F915F914F913F912F910F902B
:101690000BBE0F900FBE0F901F9018951F920F92C8
:1016A0000FB60F9211240BB60F922F933F934F93C7
:1016B0005F936F937F938F939F93AF93BF93EF93BA
:1016C000FF93E0910202F09103021995FF91EF91CF
:1016D000BF91AF919F918F917F916F915F914F914A
:1016E0003F912F910F900BBE0F900FBE0F901F9048
:1016F00018951F920F920FB60F9211240BB60F92EE
:101700002F933F934F935F936F937F938F939F9309
:10171000AF93BF93EF93FF93E0910002F09101022A
:101720001995FF91EF91BF91AF919F918F917F910B
:101730006F915F914F913F912F910F900BBE0F9042
:101740000FBE0F901F9018951F920F920FB60F9219
:1017500011240BB60F922F933F934F935F936F9388
:101760007F938F939F93AF93BF93EF93FF93E091FA
:101770000A02F0910B021995FF91EF91BF91AF9181
:101780009F918F917F916F915F914F913F912F9199
:101790000F900BBE0F900FBE0F901F9018951F92C9
:1017A0000F920FB60F9211240BB60F922F933F9307
:1017B0004F935F936F937F938F939F93AF93BF9359
:1017C000EF93FF93E0910802F09109021995FF91C0
:1017D000EF91BF91AF919F918F917F916F915F91A9
:1017E0004F913F912F910F900BBE0F900FBE0F9016
:1017F0001F9018951F920F920FB60F9211240BB6DF
:101800000F922F933F934F935F936F937F938F9399
:101810009F93AF93BF93EF93FF93E0910602F091F4
:1018200007021995FF91EF91BF91AF919F918F9111
:101830007F916F915F914F913F912F910F900BBED0
:101840000F900FBE0F901F9018951F920F920FB61A
:101850000F9211240BB60F922F933F934F935F93E8
:101860006F937F938F939F93AF93BF93EF93FF9368
:10187000E0910402F09105021995FF91EF91BF915B
:10188000AF919F918F917F916F915F914F913F9118
:101890002F910F900BBE0F900FBE0F901F901895B9
:1018A000CF93DF93EC01862F2CE330E03C832B8336
:1018B00024EF31E03E832D832CE231E038872F8303
:1018C00020E931E03A8729871B861C861D861E8603
:1018D0001F86188A198A1A8A6A8399819F7D977F41
:1018E000998362E00E94BE0389818B7E8D7F89830C
:1018F000DF91CF9108950F931F93CF93DF93EC0166
:101900008B01198218861F86188A198A1A8A81E023
:101910008E878B871C8692E09D8788838AE590E07E
:101920009D838C830E9451129A878987009769F161
:101930002AE5FC0111922A95E9F78EE190E09B835C
:101940008A831F830E838981882341F061E0802F81
:101950000E94BE0360E0802F0E949003F801E15DC9
:10196000FD4FE491F0E0EE0FFF1FEB5EFD4F859120
:1019700094919C8B8B8BF801E153FE4FE491ED8B9E
:10198000DF91CF911F910F9108951D821C821B82C0
:101990001A82D7CFCF92DF92EF92FF921F93CF930D
:1019A000DF93E5ECF2E01382128288EE93E0A0E090
:1019B000B0E084839583A683B7838BE492E0918320
:1019C000808385EC90E09587848784EC90E097870E
:1019D000868780EC90E0918B808B81EC90E0938BFC
:1019E000828B82EC90E0958B848B86EC90E0978BD9
:1019F000868B118E128E138E148EC1EFD3E0188257
:101A000019821A821B82188619861A861B8611E093
:101A10001C871E8788EB9BE0A0E0B0E08C839D8351
:101A2000AE83BF831D87CE010E94AF071E87C2EE23
:101A3000D3E0188219821A821B821C821D821E82A8
:101A40001F82188619861A861B861C871D861E878C
:101A50000E947D06C880D980EA80FB806C197D09D0
:101A60008E099F09688779878A879B871E8765E02B
:101A700070E08CEC93E00E947B0C63E070E086EBFE
:101A800093E00E947B0C64E070E080EA93E00E94A7
:101A90007B0C6FE08DE893E00E94500C60E18AE7D8
:101AA00093E00E94500C61E187E693E00E94500CA5
:101AB000C2E6D3E084E3888385E3898384E690E00B
:101AC0009C838B8360E084E30E94BE0360E0898195
:101AD0000E94BE0360E088810E94900360E08981DB
:101AE000DF91CF911F91FF90EF90DF90CF900C94FA
:101AF0009003CF93DF93CDB7DEB7A5970FB6F894D9
:101B0000DEBF0FBECDBF789484B5826084BD84B53E
:101B1000816084BD85B5826085BD85B5816085BDE8
:101B200080916E00816080936E00109281008091A0
:101B30008100826080938100809181008160809328
:101B40008100809180008160809380008091B1004D
:101B500084608093B1008091B00081608093B00078
:101B600080919100826080939100809191008160CA
:101B7000809391008091900081608093900080918B
:101B8000A10082608093A1008091A1008160809378
:101B9000A1008091A00081608093A000809121012C
:101BA00082608093210180912101816080932101D5
:101BB0008091200181608093200180917A0084606F
:101BC00080937A0080917A00826080937A0080917D
:101BD0007A00816080937A0080917A008068809397
:101BE0007A001092C10090E080E011E0FC01EF5615
:101BF000FD4F108301968F309105C1F761E086E1BA
:101C00000E94BE0361E087E10E94BE0361E088E1BB
:101C10000E94BE0361E089E10E94BE0361E08AE1A7
:101C20000E94BE0361E08BE10E94BE0361E08CE193
:101C30000E94BE0361E08DE10E94BE0361E08EE17F
:101C40000E94BE0361E08FE10E94BE0361E080E27A
:101C50000E94BE0361E081E20E94BE0361E082E275
:101C60000E94BE0361E083E20E94BE0361E084E261
:101C70000E94BE0362E085E20E94BE0362E086E24B
:101C80000E94BE0362E087E20E94BE0362E088E237
:101C90000E94BE0362E089E20E94BE0362E08AE223
:101CA0000E94BE0362E08BE20E94BE0362E08CE20F
:101CB0000E94BE0362E08DE20E94BE0362E08EE2FB
:101CC0000E94BE0362E08FE20E94BE0362E080E3F6
:101CD0000E94BE0362E081E30E94BE0362E082E3F1
:101CE0000E94BE0362E083E30E94BE0361E086E0DF
:101CF0000E94BE0361E087E00E94BE0361E088E0CD
:101D00000E94BE0361E089E00E94BE0361E08AE0B8
:101D10000E94BE0361E08BE00E94BE0361E08CE0A4
:101D20000E94BE0361E08DE00E94BE0360E082E09D
:101D30000E94BE0361E085E00E94BE0361E083E093
:101D40000E94BE0361E084E00E94BE038FE08093A6
:101D5000640319821A821B821C8240E064E0CE0177
:101D600001960E946E04E091D502F091D60282E0C5
:101D70008083E091D102F091D2021082E091D302EF
:101D8000F091D4028FEC80831092DD02E091D902B1
:101D9000F091DA0286E08083E091D702F091D802D8
:101DA000808180618083E091D702F091D8028081A8
:101DB00088608083E091D702F091D80280818068AA
:101DC0008083E091D702F091D80280818F7D80835B
:101DD00061E083E10E94BE038CEC93E00E949C07CB
:101DE0008CEC93E00E9470018CEC93E00E942C0933
:101DF0008CEC93E00E94D80686EB93E00E949C074F
:101E000086EB93E00E94700186EB93E00E942C0920
:101E100086EB93E00E94D80680EA93E00E949C073C
:101E200080EA93E00E94700180EA93E00E942C090E
:101E300080EA93E00E94D80683E793E0909307023C
:101E400080930602809169008C6080936900E99A12
:101E50000E947D068CED95E0A0E0B0E08093E60363
:101E60009093E703A093E803B093E9031093EE0384
:101E70001093EF0382EE93E00E94AF071092EE03FF
:101E800084E090E0909311028093100244E0342E9D
:101E900053E0252E6AE0462E512C612C712C8DE8E2
:101EA00093E00E94C1078AE793E00E94C10787E69A
:101EB00093E00E94C1078AE793E00E947308882399
:101EC00069F18091A4028F5F8093A4021092A30213
:101ED0001092A2021092A1021092A00260E086E08D
:101EE0000E94900360E087E00E94900360E088E039
:101EF0000E94900360E08CE00E94900360E08AE022
:101F00000E94900360E089E00E94900360E08BE013
:101F10000E94900360E08DE00E9490038091FE0398
:101F2000882309F46CC08091FF03882309F476C0EC
:101F30000E947D068090F1039090F203A090F3033D
:101F4000B090F4038AA29BA2ACA2BDA20091F503BB
:101F50001091F6032091F7033091F8036B017C0197
:101F6000C818D908EA08FB08C016D106E206F3062D
:101F700008F445C0E091FD03EE2309F465C0AB0110
:101F8000BC01401B510B620B730B8AA19BA1ACA13E
:101F9000BDA1800F911FA21FB31F8AA39BA3ACA357
:101FA000BDA380179107A207B307D8F58093F1036B
:101FB0009093F203A093F303B093F40308E212E0CA
:101FC00060E0D8018D918D010E949003E7E3F2E07B
:101FD000E017F107A9F710E000E0F801EF56FD4F18
:101FE0008081811107C061E0F801E85DFD4F8081CB
:101FF0000E9490030F5F1F4F0F30110571F7109172
:10200000A402113009F45CC110F1123009F477C157
:10201000133009F494C11092A4020CC10E94580616
:1020200089CF8AA09BA0ACA0BDA084169506A60669
:10203000B70608F4AACF8092F1039092F203A0921F
:10204000F303B092F403BACF1092FE03B7CF80919E
:10205000A20281110DC061E087E00E94900361E05F
:1020600088E00E94900330928F0281E08093A20268
:1020700087E693E00E947308811120928F028DE819
:1020800093E00E947308882321F08CE592E00E947F
:10209000A10980917B0384FF04C08AE793E00E943A
:1020A000C10780917A0382FF1DC090918603923010
:1020B000C9F48B7F80937A0364E670E080E090E05F
:1020C0000E94A104FCE3F0938E0281E080938F02D2
:1020D0000E947D0660938A0270938B0280938C022B
:1020E00090938D0280918F02813009F045C00E944B
:1020F0007D0600918A0210918B0220918C02309112
:102100008D02601B710B820B930B683E734081053F
:10211000910508F478C00E947D0660938A0270934E
:102120008B0280938C0290938D02F0908E020F2D83
:1021300010E0C8010E94E408C801880F991F60914F
:102140001002709111020E94DA11CB0140E05FEFA2
:1021500060E070E00E9435098FEF8F0D80938E0252
:102160008B3008F050C064E670E080E090E00E94A0
:10217000A10432E030938F0280918F02823009F007
:1021800042C00E947D0600918A0210918B0220912C
:102190008C0230918D02601B710B820B930B683E99
:1021A00073408105910508F445C00E947D06609347
:1021B0008A0270938B0280938C0290938D02F09030
:1021C0008E020F2D10E0C8010E94E408C801880F9C
:1021D000991F60911002709111020E94DA11CB01D7
:1021E00040E05FEF6FEF70E00E943509FA94F092E3
:1021F0008E02F1101FC068EE73E080E090E00E9454
:10220000A10420928F0280918F02833099F4309242
:102210008F0219821A821B821C8240E064E0CE0188
:1022200001960E946E0440E050E0BA0190E080E028
:102230000E9435098091680384FF04C087E693E01B
:102240000E94C1078091670382FF32C0909173039F
:10225000923071F58B7F8093670310E000E0F80106
:10226000EF56FD4F208130E050E040E019A27E01A2
:1022700081E2E80EF11CCA01B901A30192010E949A
:10228000EE11605DD7016E937D0121153105410589
:10229000510589F7109719F0CD010E94940989E53D
:1022A00092E00E9494090F5F1F4F0F301105B9F69D
:1022B000809190028111109290020E94B202EFCDA3
:1022C0008091A3028111B6CF80E692E00E94A1091D
:1022D00061E086E00E94900361E087E00E94900345
:1022E00061E08CE00E94900361E08AE00E9490032C
:1022F00061E089E00E9490031093A3029BCF80913C
:10230000A102811197CF8BE692E00E94A10961E0C2
:1023100086E00E94900361E087E00E94900361E004
:102320008CE00E94900361E088E00E94900361E0ED
:1023300089E00E94900381E08093A1027BCF80918D
:10234000A002811177CF84E792E00E94A10961E0A9
:102350008BE00E94900361E087E00E94900361E0BF
:102360008CE00E94900361E088E00E94900381E08D
:102370008093A0025FCFCF93DF93EC0189859A858C
:102380000E94ED128E819F8197FD05C060E0DF9174
:10239000CF910C94BE03DF91CF91089580EA93E032
:1023A0000E94BB1186EB93E00E94BB118CEC93E082
:1023B0000C94BB11AA1BBB1B51E107C0AA1FBB1F7A
:1023C000A617B70710F0A61BB70B881F991F5A95C1
:1023D000A9F780959095BC01CD010895A1E21A2E30
:1023E000AA1BBB1BFD010DC0AA1FBB1FEE1FFF1FB9
:1023F000A217B307E407F50720F0A21BB30BE40B09
:10240000F50B661F771F881F991F1A9469F760954F
:102410007095809590959B01AC01BD01CF01089509
:10242000052E97FB1EF400940E94271257FD07D03B
:102430000E94EE1107FC03D04EF40C942712509525
:102440004095309521953F4F4F4F5F4F08959095A0
:102450008095709561957F4F8F4F9F4F0895EE0F38
:10246000FF1F881F8BBF0790F691E02D19940E94E3
:102470004212A59F900DB49F900DA49F800D911DB9
:1024800011240895A29FB001B39FC001A39F700DB6
:10249000811D1124911DB29F700D811D1124911D6C
:1024A00008950F931F93CF93DF938230910510F41B
:1024B00082E090E0E0910204F091030430E020E03B
:1024C000B0E0A0E0309799F42115310509F44AC035
:1024D000281B390B24303105D8F58A819B81611581
:1024E000710589F1FB0193838283FE0111C0408154
:1024F00051810281138148175907E0F048175907A5
:1025000099F4109761F012960C93129713961C93FE
:102510003296CF01DF91CF911F910F9108950093D3
:10252000020410930304F4CF2115310551F0421732
:10253000530738F0A901DB019A01BD01DF01F80161
:10254000C1CFEF01F9CF9093030480930204CDCF64
:10255000FE01E20FF31F81939193225031093983D9
:102560002883D7CF2091000430910104232B41F41C
:10257000209115023091160230930104209300043B
:1025800020911302309114022115310541F42DB729
:102590003EB74091170250911802241B350BE09171
:1025A0000004F0910104E217F307A0F42E1B3F0B87
:1025B0002817390778F0AC014E5F5F4F24173507B5
:1025C00048F04E0F5F1F5093010440930004819325
:1025D00091939FCFF0E0E0E09CCFCF93DF93009703
:1025E000E9F0FC01329713821282A0910204B091AB
:1025F0000304ED0130E020E01097A1F42081318147
:10260000820F931F2091000430910104281739078D
:1026100009F061C0F0930104E0930004DF91CF91D1
:102620000895EA01CE17DF07E8F54A815B819E0134
:1026300041155105B1F7E901FB83EA8349915991AD
:10264000C40FD51FEC17FD0761F4808191810296BC
:10265000840F951FE90199838883828193819B83ED
:102660008A83F0E0E0E012968D919C911397009799
:10267000B9F52D913C911197CD010296820F931FD0
:1026800020910004309101042817390739F630975A
:1026900051F51092030410920204B0930104A09328
:1026A0000004BCCFD383C28340815181840F951F26
:1026B000C817D90761F44E5F5F4F88819981480F31
:1026C000591F518340838A819B8193838283211583
:1026D000310509F0B0CFF0930304E09302049ECFDC
:1026E000FD01DC01C0CF13821282D7CFDC0101C013
:1026F0006D9341505040E0F7089511E0CCE3D1E0F4
:1027000000E006C0802FFE010E942F122196011DBD
:0E271000CD33D10780E00807A9F7F894FFCF7A
:10271E008906890689068906890689068906890633
:10272E000200FF00000404800025262728292A2BFA
:10273E002C2D2E2F30313233161718191A1B1C1D43
:10274E001E1F20212223243F065B4F666D7D077FCF
:10275E006F777C395E7971000000004502AF01DCB5
:10276E000192020D02EB01FF010D0A0043474B00DF
:10277E00425241494E5F52494E4700575F4B494CBA
:10278E004C45520053564F59415F47414D4500004D
:00000001FF
