:100000000C9439010C946A010C946A010C946A01F5
:100010000C946A010C946A010C946A010C946A01B4
:100020000C946A010C946A010C946A010C946A01A4
:100030000C946A010C94E4050C946A010C946A0116
:100040000C946A010C946A010C946A010C946A0184
:100050000C946A010C946A010C946A010C94E306F6
:100060000C946A010C94AD060C9483060C946A01FE
:100070000C946A010C946A010C946A010C946A0154
:100080000C946A010C946A010C946A010C946A0144
:100090000C946A010C946A010C946A010C946A0134
:1000A0000C946A010C946A010C946A010C946A0124
:1000B0000C946A010C946A010C946A010C946A0114
:1000C0000C946A010C946A010C946A010C946A0104
:1000D0000C946A010C946A010C946A010C946A01F4
:1000E0000C946A010C94560C0C9407030C941C039A
:1000F0000C94E7010C9434030C9430030C943803F3
:100100000C942A030C943D030C94FB010C944102C3
:100110000C9418030C9422030C9412030C943E03C9
:100120000C94FD020C9409020C940F030C944203EE
:100130000C9426030C940B030C9403030C947C077F
:100140000C94D8010C94AB010C948E020000210099
:10015000240027002A002D00300033000101000098
:10016000040107010A0102000020002300260029E3
:10017000002C002F003200000100000301060109DD
:100180000100000A0B02090C0D0E08070304010010
:10019000000000000000000000000000000000005F
:1001A000000000000000000000000000001211101C
:1001B000000000000000000000000000000000003F
:1001C000000000000000000102102020080810209C
:1001D00040102040800201020108040201010204D3
:1001E0000810204080804020100804020180040292
:1001F00001804020100804020108040201010204E9
:1002000008102040800102040810204080000022D5
:1002100000250028002B002E0031003400020100D0
:1002200000050108010B010505050507050808087B
:1002300008020202020A0A08080404040401010177
:10024000010101010103030303030303030407077F
:10025000070C0C0C0C0C0C0C0C020202020606061D
:1002600006060606060B0B0B0B0B0B0B0B007C0795
:10027000560C11241FBECFEFD1E2DEBFCDBF00E090
:100280000CBF12E0A0E0B2E0EAEFFBE100E00BBF40
:1002900002C007900D92AE32B107D9F723E0AEE26B
:1002A000B2E001C01D92A134B207E1F711E0C8E34A
:1002B000D1E000E006C021970109802FFE010E94D5
:1002C000B70CC733D10780E00807A9F70E94D80709
:1002D0000C94EB0D0C9400000F931F93CF93DF93BE
:1002E000EC012885222319F109851A852150D9F0BE
:1002F00030E050E040E06FEF7FEF80E090E00E9460
:10030000980CF8014C815D81CF01801B910B841703
:10031000950760F44081429FC001439F900D1124D6
:1003200090833196EFCF30E020E0EBCF1886DF915D
:10033000CF911F910F9108958091F9029091FA0247
:100340008230910538F0880F991F880F991F059703
:100350000197F1F70895AF92BF92CF92DF92EF929B
:10036000FF920F931F93CF93DF936C017B018B015F
:10037000040F151FEB015E01AE18BF08C017D107AF
:1003800059F06991D601ED91FC910190F081E02D39
:10039000C6011995892B79F7C501DF91CF911F917E
:1003A0000F91FF90EF90DF90CF90BF90AF900895A6
:1003B000FC01538D448D252F30E0842F90E0821B6B
:1003C000930B541710F0CF96089501970895FC01F0
:1003D000918D828D981761F0A28DAE0FBF2FB11D48
:1003E0005D968C91928D9F5F9F73928F90E00895A0
:1003F0008FEF9FEF0895FC01918D828D981731F05A
:10040000828DE80FF11D858D90E008958FEF9FEFAD
:100410000895FC01918D228D892F90E0805C9F4F83
:10042000821B91098F739927089589E592E00E94B4
:10043000090221E0892B09F420E0822F0895FC01B4
:10044000A48DA80FB92FB11DA35ABF4F2C91848D35
:1004500090E001968F739927848FA689B7892C9392
:10046000A089B1898C91837080648C93938D848DE5
:10047000981306C00288F389E02D80818F7D8083E8
:100480000895EF92FF920F931F93CF93DF93EC01A8
:1004900081E0888F9B8D8C8D98131AC0E889F9892B
:1004A000808185FF15C09FB7F894EE89FF8960832E
:1004B000E889F98980818370806480839FBF81E0AF
:1004C00090E0DF91CF911F910F91FF90EF900895F1
:1004D000F62E0B8D10E00F5F1F4F0F731127E02ECC
:1004E0008C8D8E110CC00FB607FCFACFE889F98904
:1004F000808185FFF5CFCE010E941F02F1CFEB8DE9
:10050000EC0FFD2FF11DE35AFF4FF0829FB7F894D7
:100510000B8FEA89FB8980818062CFCFCF93DF93F5
:10052000EC01888D8823B9F0AA89BB89E889F9890B
:100530008C9185FD03C0808186FD0DC00FB607FC40
:10054000F7CF8C9185FFF2CF808185FFEDCFCE0173
:100550000E941F02E9CFDF91CF91089580E090E0E3
:10056000892B29F00E94150281110E94000080E071
:1005700090E0892B49F080E090E0892B29F00E94DF
:10058000000081110E94000080E090E0892B49F07A
:1005900080E090E0892B29F00E94000081110E94E8
:1005A000000080E090E0892B49F080E090E0892B0A
:1005B00029F00E94000081110C94000008958150E0
:1005C000823108F05AC0E82FF0E08827E551FD4F4E
:1005D0008F4F0C94B70C0B030F03FD0203030703AB
:1005E0003D03120318031C03220326032A033003CE
:1005F00034033D0338033E034203809180008F772C
:10060000809380000895809180008F7DF9CF809144
:100610008000877FF5CF84B58F7784BD089584B53A
:100620008F7DFBCF8091B0008F778093B0000895CD
:100630008091B0008F7DF9CF809190008F7780936B
:1006400090000895809190008F7DF9CF8091900067
:10065000877FF5CF8091A0008F778093A0000895C9
:100660008091A0008F7DF9CF8091A000877FF5CF8A
:10067000809120018F77809320010895809120013F
:100680008F7DF9CF80912001877FF5CF1F93CF9386
:10069000DF93282F30E0F901EF57FE4F8491F901E5
:1006A000E953FE4FD491F901E95DFD4FC491CC238C
:1006B000A9F0162F81110E94DF02EC2FF0E0EE0F5F
:1006C000FF1FE35FFD4FA591B4918FB7F894EC91B4
:1006D000111108C0D095DE23DC938FBFDF91CF913D
:1006E0001F910895DE2BF8CFCF93DF9390E0FC01AC
:1006F000E953FE4F2491895D9D4FFC01849188232D
:10070000C9F090E0880F991FFC01E45BFE4FA591B2
:10071000B491FC01E35FFD4FC591D49161110DC00F
:100720009FB7F8948C91209582238C9388812823FD
:1007300028839FBFDF91CF910895623051F49FB716
:10074000F8943C91822F809583238C93E8812E2B03
:10075000EFCF8FB7F894EC912E2B2C938FBFEACF6D
:10076000CF93DF93C6EFD2E061E089810E947403EA
:100770000E949C0160E088810E9474030E949C0199
:1007800060E089810E947403DF91CF910C949C01F9
:100790000F931F93CF93DF93D82FC8E061E0809130
:1007A000F6020E9474030E949C010D2F10E060E08D
:1007B000D0FF61E08091F7020E9474030E949C01C7
:1007C00060E08091F6020E9474030E949C011595DE
:1007D0000795D02FC15011F761E08091F6020E9479
:1007E000740360E08091F7020E9474030E949C01F0
:1007F00060E08091F6020E9474030E949C012091A7
:10080000F70230E0F901EF57FE4F8491F901E95307
:10081000FE4FD491F901E95DFD4FC491CC2339F12C
:1008200081110E94DF02EC2FF0E0EE0FFF1FE9596B
:10083000FE4FA591B491EC91ED23C1E009F4C0E025
:10084000C11105C061E08091F7020E9474030E940B
:100850009C0161E08091F6020E9474030E949C0159
:100860008C2F8170DF91CF911F910F910895C0E07F
:10087000E9CF61E08091F7020E9474030C949C011F
:100880000F931F93CF93DF938C010E94390480E470
:100890000E94C8030E94B0030E94390480EC0E94A9
:1008A000C803E8010C5F1F4F89910E94C803C0175D
:1008B000D107D1F70E94B0030E9439048091F80259
:1008C0008F7080580E94C803DF91CF911F910F91C4
:1008D0000C94B0033FB7F8948091330290913402A6
:1008E000A0913502B091360226B5A89B05C02F3FD6
:1008F00019F00196A11DB11D3FBFBA2FA92F982F46
:100900008827BC01CD01620F711D811D911D42E040
:10091000660F771F881F991F4A95D1F708958F9208
:100920009F92AF92BF92CF92DF92EF92FF924B01D4
:100930005C010E946A046B017C010E946A046C19CC
:100940007D098E099F09683E734081059105A8F3D2
:1009500021E0821A9108A108B10888EEC80E83E050
:10096000D81EE11CF11C81149104A104B10429F7E3
:10097000FF90EF90DF90CF90BF90AF909F908F90BF
:100980000895CF92DF92EF92FF920F931F93CF9330
:10099000FC01C32ED42EE52EFF241C2D922F808522
:1009A000CFEF882359F09FEF899FD0011124CB2FDF
:1009B0008C9D80011124829FC0011124A685218570
:1009C00032858385A8131EC0DB01AA0FBB1F6A0FE7
:1009D0007B1F620F731FA385A60FB72FB11DCC938A
:1009E000A485A60FB72FB11D1C938585680F711DB7
:1009F000FB019083CF911F910F91FF90EF90DF90BB
:100A0000CF900895660F771F660F771F620F731FD1
:100A1000A60FB72FB11D1C92DECFCF92DF92EF92BF
:100A2000FF920F931F93CF93DF9300D000D000D09D
:100A3000CDB7DEB78C01DC0119968D919C91892B85
:100A400009F465C00E946A04F801C784D088E1886F
:100A5000F2886C197D098E099F096C3271408105FD
:100A6000910580F3F894D80114968D919C91159777
:100A70009A8389831996ED91FC917F01BFEFEB1A60
:100A8000FB0A80818987F80190810388F489E02D31
:100A9000D80155968C91992309F448C09081982BE0
:100AA00098879081809589238F838F818C8388E0BC
:100AB0008B8358856F8149853B812C8189819A81FF
:100AC000D701508347FD252F3A952083262F39F0F3
:100AD000441F00C000006083000000C0F2CF38E077
:100AE0004D9160830000019761F7D8015496FC9303
:100AF000EE93539749873B832C839A838983789419
:100B00000E946A04F8016787708B818B928B29960B
:100B10000FB6F894DEBF0FBECDBFDF91CF911F910E
:100B20000F91FF90EF90DF90CF9008959081982BD8
:100B300098879081809589238F838F818E8388E029
:100B40008D8358856F8149853D812E8189819A8168
:100B5000D701508347FD252F00C000C0208300C06F
:100B600000C000C000C000C060830000262F3A957E
:100B700041F0441F000000C000C000C000C000C021
:100B8000E8CF38E04D9100C0608300C0019709F7BD
:100B9000D8015496FC93EE93539749873D832E8357
:100BA000ACCFCF93DF93EC018E819F8197FD07C07F
:100BB00061E00E94740360E08E810E94460381E040
:100BC0008983DF91CF9108951F920F920FB60F92F4
:100BD00011240BB60F922F933F934F935F936F9314
:100BE0007F938F939F93AF93BF93EF93FF938091E6
:100BF0004B0290914C02A0914D02B0914E02892B74
:100C00008A2B8B2BE1F190913A02E0913B02F0911B
:100C10003C0280818927808380914B0290914C0215
:100C2000A0914D02B0914E02181619061A061B0625
:100C30009CF480914B0290914C02A0914D02B09196
:100C40004E020197A109B10980934B0290934C0287
:100C5000A0934D02B0934E02FF91EF91BF91AF91DF
:100C60009F918F917F916F915F914F913F912F91C4
:100C70000F900BBE0F900FBE0F901F901895809194
:100C80000002E6E6F1E0E4919FEF90930002E2308B
:100C9000E9F040F4EE2389F0E13091F060E00E9449
:100CA0004603DACFE43049F110F1E530B9F790911D
:100CB00073009D7F90937300F1CF10926E00EECF82
:100CC00090916F009D7F90936F00E8CF909170009E
:100CD0009D7F9093700091E09093B0009091B1004F
:100CE000987F94609093B1001092B300D7CF909109
:100CF00071009D7F90937100D1CF909172009D7F84
:100D000090937200CBCF1F920F920FB60F921124C7
:100D10000BB60F922F933F934F935F936F937F93F5
:100D20008F939F93AF93BF93EF93FF9389E592E0E7
:100D30000E941F02FF91EF91BF91AF919F918F9100
:100D40007F916F915F914F913F912F910F900BBECB
:100D50000F900FBE0F901F9018951F920F920FB615
:100D60000F9211240BB60F922F938F939F93EF93B3
:100D7000FF93E0916902F0916A028081E0916F0235
:100D8000F091700282FD1DC09081809172028F5F90
:100D90008F7320917302821741F0E0917202F0E0AC
:100DA000E75AFD4F958F80937202FF91EF919F91CB
:100DB0008F912F910F900BBE0F900FBE0F901F9031
:100DC00018958081F2CF1F920F920FB60F921124C7
:100DD0002F933F938F939F93AF93BF9380912F0255
:100DE00090913002A0913102B091320230912E02E6
:100DF00023E0230F2D3758F50196A11DB11D209337
:100E00002E0280932F0290933002A0933102B09370
:100E100032028091330290913402A0913502B09158
:100E200036020196A11DB11D8093330290933402C6
:100E3000A0933502B0933602BF91AF919F918F91ED
:100E40003F912F910F900FBE0F901F90189526E89D
:100E5000230F0296A11DB11DD2CF0F931F93CF93E5
:100E6000DF93EC018B01198218861F86188A198A74
:100E70001A8A81E08E878B871C8692E09D87888303
:100E80008AE590E09D838C830E94BF0C9A878987B6
:100E9000009769F12AE5FC0111922A95E9F78EE1A4
:100EA00090E09B838A831F830E838981882341F08E
:100EB00061E0802F0E94740360E0802F0E9446034F
:100EC000F801E95DFD4FE491F0E0EE0FFF1FE35FF5
:100ED000FD4F859194919C8B8B8BF801E953FE4FCC
:100EE000E491ED8BDF91CF911F910F9108951D82B9
:100EF0001C821B821A82D7CFCF93DF93E9E5F2E001
:100F00001382128288EE93E0A0E0B0E084839583A0
:100F1000A683B7838DE192E09183808385EC90E096
:100F20009587848784EC90E09787868780EC90E0B3
:100F3000918B808B81EC90E0938B828B82EC90E0A4
:100F4000958B848B86EC90E0978B868B118E128E1E
:100F5000138E148E62E070E087E293E00E942D070A
:100F600063E070E081E193E00E942D0764E070E0AF
:100F70008BEF92E00E942D07C6EFD2E084E38883D6
:100F800085E3898384E690E09C838B8360E084E33F
:100F90000E94740360E089810E94740360E088818C
:100FA0000E94460360E08981DF91CF910C94460353
:100FB000CF93DF93CDB7DEB7A1970FB6F894DEBF1E
:100FC0000FBECDBF789484B5826084BD84B5816046
:100FD00084BD85B5826085BD85B5816085BD809104
:100FE0006E00816080936E0010928100809181007C
:100FF0008260809381008091810081608093810074
:10100000809180008160809380008091B100846035
:101010008093B1008091B00081608093B000809196
:101020009100826080939100809191008160809313
:101030009100809190008160809390008091A10048
:1010400082608093A1008091A10081608093A100C3
:101050008091A00081608093A00080912101826036
:1010600080932101809121018160809321018091F1
:10107000200181608093200180917A0084608093B8
:101080007A0080917A00826080937A0080917A0061
:10109000816080937A0080917A00806880937A00E2
:1010A0001092C10061E086E10E94740361E087E173
:1010B0000E94740361E088E10E94740361E089E1A9
:1010C0000E94740361E08AE10E94740361E08BE195
:1010D0000E94740361E08CE10E94740361E08DE181
:1010E0000E94740361E08EE10E94740361E08FE16D
:1010F0000E94740361E080E20E94740361E081E277
:101100000E94740361E082E20E94740361E083E262
:101110000E94740361E084E20E94740362E085E24D
:101120000E94740362E086E20E94740362E087E238
:101130000E94740362E088E20E94740362E089E224
:101140000E94740362E08AE20E94740362E08BE210
:101150000E94740362E08CE20E94740362E08DE2FC
:101160000E94740362E08EE20E94740362E08FE2E8
:101170000E94740362E080E30E94740362E081E3F2
:101180000E94740362E082E30E94740362E083E3DE
:101190000E94740361E086E00E94740361E087E0CE
:1011A0000E94740361E088E00E94740361E089E0BA
:1011B0000E94740361E08AE00E94740361E08BE0A6
:1011C0000E94740361E08CE00E94740361E08DE092
:1011D0000E94740361E082E00E94740361E083E096
:1011E0000E94740361E084E00E9474038FE08093A6
:1011F000F80219821A821B821C82CE0101960E947B
:101200004004E0916902F0916A0282E08083E091FB
:101210006502F09166021082E0916702F091680227
:101220008FEC808310927102E0916D02F0916E025A
:1012300086E08083E0916B02F0916C028081806196
:101240008083E0916B02F0916C02808188608083E2
:10125000E0916B02F0916C02808180688083E09164
:101260006B02F0916C0280818F7D808361E083E16D
:101270000E94740387E293E00E94D10587E293E025
:101280000E946C0140912B0350912C0370E060E0B0
:1012900080913003909131030E94E40D87E293E046
:1012A0000E940D0581E193E00E94D10581E193E068
:1012B0000E946C01409115035091160370E060E0AC
:1012C00080911A0390911B030E94E40D81E193E049
:1012D0000E940D058BEF92E00E94D1058BEF92E00A
:1012E0000E946C014091FF025091000370E060E0A9
:1012F00080910403909105030E94E40D8BEF92E02E
:101300000E940D05222423943E0183E0681A71088F
:101310006AE0C62ED12C7AE0872E912CA12CB12C1C
:10132000E6E03E2EFFE34F2E55245394AFE7EA2E1E
:10133000AEE3FA2E10E000E08091290390912A0399
:101340000817190748F42FEF3FEF4FEF50E0B801AF
:1013500087E293E00E94C10487E293E00E940D05BA
:1013600064EF71E080E090E00E948F040F5F1F4FF8
:101370000E31110509F768EE73E080E090E00E94FD
:101380008F0410E000E0809113039091140308177C
:10139000190748F420E030E04FEF50E0B80181E158
:1013A00093E00E94C10481E193E00E940D0564EF87
:1013B00071E080E090E00E948F040F5F1F4F0E31BC
:1013C000110509F768EE73E080E090E00E948F0459
:1013D00010E000E08091FD029091FE0208171907CD
:1013E00048F420E03FEF4FEF50E0B8018BEF92E080
:1013F0000E94C1048BEF92E00E940D0564EF71E042
:1014000080E090E00E948F040F5F1F4F0E311105A6
:1014100009F768EE73E080E090E00E948F0486E1B7
:10142000809358021091580280910202153208F000
:101430007BC0882309F454C0509257026091570230
:10144000812F0E94460311114EC019821A821B82FD
:101450004C82CE0101960E944004212F30E050E0E2
:1014600040E019A28E010F5D1F4FCA01B901A5010D
:1014700094010E94760C605DF80162938F01211542
:1014800031054105510589F7309761F00190002041
:10149000E9F73197AF01401B510BB80189E592E0A4
:1014A0000E94AB0142E050E06BE272E089E592E01D
:1014B0000E94AB011091010260915702812F0E949E
:1014C00046031F5F1E3069F11093010268EE73E05E
:1014D00080E090E00E948F04809158028F5FA0CF3F
:1014E00010925702ABCF212F30E0FE013196C90197
:1014F000B6010E94620C009771F42115310559F470
:101500001382C901B6010E94620C9B0131976E16CD
:101510007F0669F79ECF875F9D4FDC018C918383A7
:10152000F0CF30920102D2CF8225809302028091C7
:1015300000028331B9F4E6E6F1E0149117FD81C1B0
:1015400061E083E10E947403112309F4E2C01230C8
:1015500009F0F7C08091B100887F84608093B1006A
:1015600089EF7DC18F3F09F06CC183E18093000258
:10157000E6E6F1E01491812F1F3F09F462C11230B9
:1015800009F468C060F4112379F1113009F444C002
:1015900087FD57C161E083E10E947403D8CF143006
:1015A00009F499C008F478C0153091F71092200121
:1015B0001092210180912101886080932101809106
:1015C0002101816080932101EAE3F2E0E491F0E0FF
:1015D000EE0FFF1FE35FFD4F85919491EAEDF1E07F
:1015E000E491E0933702ACCF14BC15BC84B58260A3
:1015F00084BD85B5816085BDEAE3F2E0E491F0E069
:10160000EE0FFF1FE35FFD4F85919491EAEDF1E04E
:10161000E491E0933E0294CF1092800010928100FA
:101620008091810088608093810080918100816039
:1016300080938100EAE3F2E0E491F0E0EE0FFF1F17
:10164000E35FFD4F85919491EAEDF1E0E491E09341
:101650003D0276CF1092B0001092B1008091B000A0
:1016600082608093B0008091B10081608093B1006E
:10167000EAE3F2E0E491F0E0EE0FFF1FE35FFD4FDD
:101680008591949190933C0280933B02EAEDF1E0C6
:10169000E491E0933A0254CF10929000109291009E
:1016A0008091910088608093910080919100816089
:1016B00080939100EAE3F2E0E491F0E0EE0FFF1F87
:1016C000E35FFD4F85919491EAEDF1E0E491E093C1
:1016D000390213E035CF1092A0001092A100809142
:1016E000A10088608093A1008091A1008160809317
:1016F000A100EAE3F2E0E491F0E0EE0FFF1FE35F08
:10170000FD4F85919491EAEDF1E0E491E093380288
:1017100017CF85B5887F836085BD89EF87BD84EF4E
:1017200091E0A0E0B0E08093530290935402A09324
:101730005502B093560280916E00826080936E00D5
:1017400080C01130E1F480918100887F81608093B6
:101750008100F0928900E092880084EF91E0A0E09F
:10176000B0E080934F0290935002A0935102B09347
:10177000520280916F00826080936F0062C01330CC
:10178000E1F480919100887F816080939100F092D4
:101790009900E092980084EF91E0A0E0B0E080939F
:1017A000470290934802A0934902B0934A02809165
:1017B000710082608093710044C01430E1F4809124
:1017C000A100887F81608093A100F092A900E0923F
:1017D000A80084EF91E0A0E0B0E0809343029093F2
:1017E0004402A0934502B093460280917200826049
:1017F0008093720026C01530E1F480912101887F2A
:10180000816080932101F0922901E092280184EF08
:1018100091E0A0E0B0E080933F0290934002A0935B
:101820004102B09342028091730082608093730002
:1018300008C0123099F044F4112371F0113009F40A
:1018400088CF0E94AE0276CD143009F4BECF0CF4DE
:101850009ECF1530B1F7D7CF8FE760CF8FE780935A
:10186000B30084EF91E0A0E0B0E080934B0290934E
:101870004C02A0934D02B0934E02809170008260A2
:1018800080937000DECFCF93DF93EC0189859A853A
:101890000E945B0D8E819F8197FD05C060E0DF9106
:1018A000CF910C947403DF91CF9108958BEF92E068
:1018B0000E94430C81E193E00E94430C87E293E095
:1018C0000C94430CAA1BBB1B51E107C0AA1FBB1FF2
:1018D000A617B70710F0A61BB70B881F991F5A95BC
:1018E000A9F780959095BC01CD010895A1E21A2E2B
:1018F000AA1BBB1BFD010DC0AA1FBB1FEE1FFF1FB4
:10190000A217B307E407F50720F0A21BB30BE40B03
:10191000F50B661F771F881F991F1A9469F760954A
:101920007095809590959B01AC01BD01CF01089504
:10193000052E97FB1EF400940E94AF0C57FD07D0B4
:101940000E94760C07FC03D04EF40C94AF0C50951B
:101950004095309521953F4F4F4F5F4F089590959B
:101960008095709561957F4F8F4F9F4F0895EE0F33
:10197000FF1F881F8BBF0790F691E02D19940F93DE
:101980001F93CF93DF938230910510F482E090E0B3
:10199000E0913F03F091400330E020E0B0E0A0E0B0
:1019A000309799F42115310509F44AC0281B390BE9
:1019B00024303105D8F58A819B816115710589F143
:1019C000FB0193838283FE0111C04081518102811A
:1019D000138148175907E0F04817590799F41097F1
:1019E00061F012960C93129713961C933296CF01C6
:1019F000DF91CF911F910F91089500933F031093B2
:101A00004003F4CF2115310551F04217530738F048
:101A1000A901DB019A01BD01DF01F801C1CFEF018E
:101A2000F9CF9093400380933F03CDCFFE01E20FA7
:101A3000F31F819391932250310939832883D7CFA3
:101A400020913D0330913E03232B41F42091050268
:101A50003091060230933E0320933D032091030210
:101A6000309104022115310541F42DB73EB7409164
:101A7000070250910802241B350BE0913D03F091C1
:101A80003E03E217F307A0F42E1B3F0B281739077C
:101A900078F0AC014E5F5F4F2417350748F04E0FCA
:101AA0005F1F50933E0340933D03819391939FCFDB
:101AB000F0E0E0E09CCFCF93DF930097E9F0FC01EA
:101AC000329713821282A0913F03B0914003ED013F
:101AD00030E020E01097A1F420813181820F931F24
:101AE00020913D0330913E032817390709F061C06A
:101AF000F0933E03E0933D03DF91CF910895EA0117
:101B0000CE17DF07E8F54A815B819E01411551053B
:101B1000B1F7E901FB83EA8349915991C40FD51FBD
:101B2000EC17FD0761F4808191810296840F951F67
:101B3000E90199838883828193819B838A83F0E082
:101B4000E0E012968D919C9113970097B9F52D9135
:101B50003C911197CD010296820F931F20913D0376
:101B600030913E032817390739F6309751F5109216
:101B7000400310923F03B0933E03A0933D03BCCFBC
:101B8000D383C28340815181840F951FC817D90721
:101B900061F44E5F5F4F88819981480F591F5183CF
:101BA00040838A819B81938382832115310509F0CB
:101BB000B0CFF0934003E0933F039ECFFD01DC01E3
:101BC000C0CF13821282D7CFDC0101C06D93415088
:101BD0005040E0F7089511E0C8E3D1E000E006C00E
:101BE000802FFE010E94B70C2196011DC933D10739
:0A1BF00080E00807A9F7F894FFCF82
:101BFA00FF06010000410380003F065B4F666D7DD2
:101C0A00077F6F777C395E7971000000004102AB73
:0E1C1A0001D8018E020902E701FB010D0A004C
:00000001FF
